:020000040800F2
:1000000088140020B15E0008DD1E0008DF1E000815
:10001000E31E0008E71E0008EB1E000800000000B9
:10002000000000000000000000000000EF1E0008BB
:10003000F11E000800000000F31E0008F51E000875
:10004000CB5E0008CB5E0008CB5E0008CB5E0008EC
:10005000CB5E0008CB5E0008373E0008993E0008E2
:10006000CB5E0008CB5E0008CB5E0008CB5E0008CC
:10007000CB5E0008CB5E0008CB5E0008CB5E0008BC
:10008000CB5E0008CB5E0008CB5E0008CB5E0008AC
:10009000CB5E0008CB5E0008CB5E0008CB5E00089C
:1000A000CB5E0008CB5E0008CB5E0008CB5E00088C
:1000B000CB5E000833300008CB5E0008CB5E000842
:1000C000CB5E0008CB5E0008CB5E0008CB5E00086C
:1000D000CB5E00082B5E0008CB5E000815590008B7
:1000E000CB5E0008CB5E0008CB5E0008CB5E00084C
:1000F000CB5E0008CB5E0008CB5E0008CB5E00083C
:10010000CB5E0008CB5E0008CB5E0008CB5E00082B
:10011000CB5E0008CB5E0008CB5E0008CB5E00081B
:10012000CB5E0008CB5E0008CB5E0008CB5E00080B
:1001300000F002F800F05CF80AA090E8000C82449D
:100140008344AAF10107DA4501D100F051F8AFF27A
:10015000090EBAE80F0013F0010F18BFFB1A43F0A5
:1001600001031847A8AF0000C8AF00000A444FF0D1
:10017000000C10F8013B13F0070408BF10F8014B06
:100180001D1108BF10F8015B641E05D010F8016B4B
:10019000641E01F8016BF9D113F0080F1EBF10F8AF
:1001A000014BAD1C0C1B09D16D1E58BF01F801CBD2
:1001B000FAD505E014F8016B01F8016B6D1EF9D555
:1001C0009142D6D37047000000230024002500266A
:1001D000103A28BF78C1FBD8520728BF30C148BFAA
:1001E0000B6070471FB507F028FC1FBD10B510BD90
:1001F00007F062FC1146FFF7F5FF01F03BFD07F049
:1002000080FC03B4FFF7F2FF03BC05F0B3FD000070
:100210000B49D1F800C04A685CF8043B10681844E8
:1002200042F8040B8C4528BFA1F1DC0C8A4228BFA0
:10023000A1F1DC02C1F800C04A6020F00040704724
:10024000200E00202DE9F84F81468A4616461D46AD
:10025000DDE90A8B5F46002400BF19E0601CB8424C
:100260000AD10020009005FB046081B200234A46B9
:10027000504602F04FFB09E00020009005FB0460AF
:1002800081B200232022504602F044FB601CC4B21D
:100290004445E3DB0020F8490870F849087046E05F
:1002A0000020F649087000F01FFFF4480078072886
:1002B00000D142E0F1480078052802D10020BDE8D5
:1002C000F88FED48007800F0040018B9EB4800788A
:1002D00002282CD10020E9490870E748007800F096
:1002E000FB00E549087097FBF8F008FB1070401C14
:1002F000C7B2002419E0601CB8420AD10020009067
:1003000005FB046081B200234A46504602F002FB1E
:1003100009E00020009005FB046081B20023202248
:10032000504602F0F7FA601CC4B24445E3DBD24801
:10033000007800F001000028B2D000BF4FF47840F0
:10034000009005FB07F0401B304481B200234A4671
:10035000504602F0DFFA4FF4FA7005F0DEFC0020A0
:10036000C5490870C54908703846A8E71CB501247E
:10037000C348008802F040F8002010230222014602
:1003800000903C2002F079F900201023032201465E
:1003900000905C2002F071F9002010230422014635
:1003A00000907C2002F069F900201023052214211E
:1003B00000903C2002F061F9002010230622142155
:1003C00000904C2002F059F900201023072214213C
:1003D00000905C2002F051F9002010230822142123
:1003E00000906C2002F049F900201023092214210A
:1003F00000907C2002F041F90020102316222821D1
:1004000000903C2002F039F9002010231722282107
:1004100000905C2002F031F90020102318222821DE
:1004200000907C2002F029F90020034632223C2172
:100430000090084602F06EFA0020034630223C216C
:100440000090512002F066FA0020034634223C213D
:100450000090662002F05EFA0020034638223C211C
:1004600000907C2002F056FA042014230022194642
:10047000CDE900043E20FFF7E5FE044614B900F084
:100480008BFA1CBD7E48008801F0B6FF012C01D11B
:100490000120F6E7022C01D10220F2E7032C01D162
:1004A0000320EEE70420ECE7F8B5012400257448AA
:1004B000008801F0A1FF4FF4784000233E22194646
:1004C0000090142002F026FA002003465222014632
:1004D00000903C2002F01EFA002003463A2201461A
:1004E0000090502002F016FA002003464722142103
:1004F00000903C2002F00EFA002003463A2214211C
:100500000090502002F006FA0020034642222821E3
:1005100000903C2002F0FEF9002003463A222821F8
:100520000090502002F0F6F9002010230C223C210C
:1005300000902A2002F0A1F8002010230D223C2177
:100540000090084602F099F8002003463A223C2128
:100550000090502002F0DEF9E7E1002047490870E2
:1005600000F0C2FD45480078072804D042480078D2
:1005700000F0020080B14048007800F0FD003E49E4
:10058000087040480278404801784048007802F0FE
:1005900082FC3B490880C9E138480078092806D127
:1005A00000F0E8FE35480078632831D1BEE13348D9
:1005B0000078022804D03048007800F0080040B3EA
:1005C0002D48007800F0F7002B4908704FF4784070
:1005D000009004EB84008000143881B200232022B4
:1005E000142002F097F9E11704EB91718910A4EB44
:1005F0008101491CCCB24FF47840009004EB840098
:100600008000143881B200233E22142002F082F9C7
:1006100057E11A480078032804D01748007800F002
:100620000400A8B31448007800F0FB0012490870D9
:10063000012C09D1154800780028E9DD134800781D
:10064000401E124908703CE1022C09D10E48007886
:100650000028DDDD0C480078401E0B49087030E1B1
:10066000032C16D1074800780028D1DD0548007812
:10067000401E0449087024E13207002001000020D8
:1006800030070020050000200400002003000020A7
:1006900010E0042CBCD1FE480078002804DDFC48A2
:1006A0000078401EFA490870F9480178F94807F0C7
:1006B000D9F806E1F8480078042804D0F748007813
:1006C00000F00100D0B3F548007800F0FE00F349D7
:1006D0000870012C09D1F2480078FF2898DAF04818
:1006E0000078401CEE490870EBE0022C09D1ED487F
:1006F0000078FF288CDAEB480078401CE949087044
:10070000DFE0032C09D1E8480078FF289BDAE648AF
:100710000078401CE4490870D3E0042C93D1DC48F5
:100720000078C82804DADA480078401CD8490870F4
:10073000D7480178D74807F095F8C2E0FFE7D648D8
:1007400000787F285CDBD4480078882858DC012CAE
:1007500012D1D348007800EB8000CF49097801EB33
:1007600040007F3885B2FF2D03DDFF20CC490870A3
:10077000A7E0CB490D70A4E0022C12D1C948007843
:1007800000EB8000C449097801EB40007F3885B256
:10079000FF2D03DDFF20C349087092E0C1490D70B1
:1007A0008FE0032C12D1C048007800EB8000BA49DA
:1007B000097801EB40007F3885B2FF2D03DDFF2073
:1007C000B94908707DE0B8490D707AE0042C78D101
:1007D000AF48007800EB8000AF49097801EB40009A
:1007E0007F3885B2C82D03DDC820A949087001E013
:1007F000A7490D70A6480178A64807F033F860E0D5
:10080000A548007805283CD1012C0BD1A4480078DC
:10081000002856DDA24800780A2190FBF1F0A0499B
:1008200008704EE0022C0BD19E480078002848DD6D
:100830009C4800780A2190FBF1F09A49087040E04A
:10084000032C0BD19848007800283ADD96480078B0
:100850000A2190FBF1F09449087032E0042C30D169
:100860008B480078002806DD894800780A2190FB33
:10087000F1F08749087086480178864806F0F2FF53
:100880001FE08548007806281BD1012C03D10020E9
:100890008349087015E0022C03D1002081490870BB
:1008A0000FE0032C03D100207F49087009E0042CDD
:1008B00007D100207649087008460178754806F08F
:1008C000D1FF0020032300907548027800216420A6
:1008D00002F0F7F8002003230090724802781421F8
:1008E000642002F0EEF80020032300906E480278A6
:1008F0002821642002F0E5F80020032300906448DA
:1009000002783C21642002F0DCF8674802786548F0
:1009100001786348007802F0BEFA06460A23A02256
:1009200000210090962001F0F5FE16E600BF5F481A
:10093000008801F061FD002010231C220A21009094
:100940003C2001F09AFE002010231D220A21009075
:100950004E2001F092FE002010231E22114600902E
:100960003C2001F08AFE002010231F221E2100904F
:100970004E2001F082FE002010232E223221009012
:100980003C2001F07AFE002010232F22322100901B
:100990004E2001F072FEF8BD1CB5012443480088CA
:1009A00001F02AFD002010231C220A2100903C2087
:1009B00001F063FE002010231D220A2100904E202A
:1009C00001F05BFE002010231E22114600903C2007
:1009D00001F053FE002010231F221E2100904E2004
:1009E00001F04BFE002010232E22322100903C20EB
:1009F00001F043FE002010232F22322100904E20D0
:100A000001F03BFE16E00DE0032014230A221946F4
:100A1000CDE900043E20FFF715FC04460CB9012483
:100A200000E000E0F0E700BF032C02D1FFF73CFD3F
:100A300000E000E0E7E700BF1C48008801F0DCFCB4
:100A4000012C02D100F008F81CBD022C02D1FFF7E6
:100A50008DFCF9E70020F7E71CB501241348008856
:100A600001F0CAFC002010232022014600903C2007
:100A700001F003FE002010232122014600905120A6
:100A800001F0FBFD002010232222014600900FE020
:100A90000000002000040040010000203207002078
:100AA0000300002004000020050000203007002083
:100AB000662001F0E2FD0020102323220146009071
:100AC0007C2001F0DAFD0020102324221421009064
:100AD0003C2001F0D2FD002010232522142100909B
:100AE0005C2001F0CAFD0020102326221421009072
:100AF0007C2001F0C2FD0023FDA228213C2001F052
:100B00007DFF0320142300221946CDE900043E2076
:100B1000FFF798FB044614B9FFF73EFF1CBDF548EC
:100B2000008801F069FC012C01D16520F6E7032C57
:100B300001D16720F2E70420F0E738B50024ED4842
:100B4000008801F059FC002010232722402100904A
:100B500001F093FD00201023282240210090184628
:100B600001F08BFD0020102329224021009020203D
:100B700001F083FD002003463A22402100903020FE
:100B800001F0C8FEA9E00020DB49087000F0ACFAD3
:100B9000D9480078072800D1A6E0D748007809286E
:100BA0000AD100F0E7FBD4480078632835D1FFF77D
:100BB00053FFD249087038BDCF4800787F2819DB31
:100BC000CD480078882815DCCD480078092824DA3B
:100BD000C94800784F38CB49C94A12788854C84868
:100BE0000078401CC64908704520C649C44A12789E
:100BF000885412E0C048007805280ED1C04800781B
:100C000000280ADD4521BE480078401EBD4A115427
:100C1000BB480078401EBA490870B94800780028DF
:100C20000EDDB84800783038B749086000200090E1
:100C3000B448027800234021382001F06BFE02E026
:100C40000020B1490860002445E0AD4800788442A6
:100C500017DAB4B1AB48005DAB49096801EB81011B
:100C600000EB41003038A84908600020A5490090F9
:100C70000A5DE10001F138000023402101F04AFE45
:100C800027E09F4909788C4215D1A0490988642240
:100C900091FBF2F000EBD0714910A0EB410151B192
:100CA0000020E100009001F1380000235F22402184
:100CB00001F030FE0DE09348005D452809D1002089
:100CC000E100009001F1380000232022402101F0D2
:100CD00021FE601CC4B20A2CB7DB8D48007800F0FE
:100CE000020000283FF44FAF00BF0020844900906D
:100CF0000978C90001F1380000232022402101F0C9
:100D000009FE7C48008801F077FB7F48006804F00A
:100D1000B6FD012004F098FD00BF4CE708B575480A
:100D2000008801F069FB7B480078072190FBF1F215
:100D300001FB1200401C774908700846007802F059
:100D4000D3FF59E000206C49087000F0CDF96A48E3
:100D50000078072800D155E06748007805280CD1B5
:100D6000FFF704FB6549087008460078012800D0A9
:100D700008BD6848007802F0B7FF6548007800F0C9
:100D8000040018B95C480078022814D16048007843
:100D900000F0FB005E4908705E480078072190FB78
:100DA000F1F201FB1200401C5A4908700846007815
:100DB00002F09AFF1DE05648007800F0010018B9D3
:100DC0004D480078012814D15148007800F0FE0009
:100DD0004F4908704F480078401D072190FBF1F201
:100DE00001FB1200401C4B4908700846007802F0D5
:100DF0007BFF0A2004F091FF4548007800F00200D4
:100E000000289FD000BF4FF4784000233E220A21E3
:100E100000904B2001F07EFD4FF47A7004F07DFFCE
:100E20003448008801F0E8FA3A48007802F065FAA0
:100E30004FF4FA7004F071FF0020354908702E4914
:100E4000087000BF94E710B50446302C03D103208E
:100E50002949087047E1382C03D10220264908703F
:100E600041E1372C03D10120234908703BE1402C9C
:100E700003D104202049087035E1392C03D1072023
:100E80001D4908702FE1312C03D105201A49087043
:100E900029E1292C03D106201749087023E1282CC9
:100EA00003D10820144908701DE1212C0ED11A48E5
:100EB0000078C32804DA18480078401D16490870E5
:100EC00015480178154806F0CDFC0CE1192C27D106
:100ED00011480078052804DD0F480078401F0E49AE
:100EE00008700D4801780D4806F0BCFCFBE00000DE
:100EF00050574D0030070020010000200200002064
:100F0000070000200C000020080000203C07002003
:100F100032070020060000200000002000040040EE
:100F2000082C03D10920FE490870DCE0102C03D105
:100F30000A20FB490870D6E0032C03D16520F8494C
:100F40000870D0E00B2C03D16620F5490870CAE088
:100F5000132C03D16720F2490870C4E01B2C03D185
:100F60006820EF490870BEE0232C03D16920EC49CA
:100F70000870B8E0042C03D16A20E9490870B2E097
:100F80000C2C03D16B20E6490870ACE0142C03D183
:100F90006C20E3490870A6E01C2C03D16D20E049C9
:100FA0000870A0E0242C03D16E20DD4908709AE07F
:100FB000052C03D16F20DA49087094E00D2C03D181
:100FC0007020D74908708EE0152C03D17120D449C8
:100FD000087088E01D2C03D17220D149087082E08E
:100FE000252C03D17320CE4908707CE0062C03D158
:100FF0007420CB49087076E00E2C03D17520C849C7
:10100000087070E0162C03D17620C54908706AE09C
:101010001E2C03D17720C249087064E0262C03D12E
:101020007820BF4908705EE0072C03D17920BC49C5
:10103000087058E00F2C03D17A20B949087052E0AB
:10104000172C03D17B20B64908704CE01F2C03D12C
:101050007C20B349087046E0272C03D17D20B0499D
:10106000087040E02F2C03D17E20AD4908703AE093
:101070003F2C03D17F20AA49087034E02E2C03D1E5
:101080008020A74908702EE0362C03D18120A44986
:10109000087028E03E2C03D18220A149087022E08C
:1010A0002D2C03D183209E4908701CE0352C03D1E0
:1010B00084209B49087016E03D2C03D18520984977
:1010C000087010E02C2C03D18620954908700AE0A6
:1010D000342C03D187209249087004E03C2C02D1C3
:1010E00088208F49087010BD30B585B004460025B2
:1010F0008C48007801283CD102208A4908708A482F
:1011000041780078303800EB800001EB4000303847
:10111000C5B22846FFF797FE012C2BD180480078F6
:10112000022802D102F09CFB20E07D4800780128D3
:1011300002D102F095FB19E079480078032803D129
:10114000042002F08DFB11E075480078042803D1DB
:10115000032002F085FB09E071480078072803D0DE
:101160006F480078052801D1FFF7D8FD00206C49B1
:101170000870FDE0022C5ED100206C4908806848B0
:101180000078042803D1052003F0B9FA4FE0644841
:101190000078012803D1062003F0B1FA47E0604847
:1011A0000078032803D1082003F0A9FA3FE05C4847
:1011B0000078022803D1072003F0A1FA37E058484D
:1011C0000078082810D10020554908700AE0002056
:1011D000FFF78AFF52480078082800D103E0642016
:1011E00004F09BFDF3E722E04D480078072816D174
:1011F0004F48008801F000F9012003F0C2F80220F6
:1012000003F0BFF8002003F0BCF8684602F050FF7E
:10121000002003F000F9684602F04AFF07E040486A
:101220000078052803D1FFF7A1F842490870002093
:101230003B4908709CE0032C25D1394800780828E8
:1012400010D10020364908700AE00020FFF74CFF5B
:1012500033480078082800D103E0642004F05DFDE5
:10126000F3E70CE02E480078052804D1FFF77EF85C
:101270003049087003E02A48007804F082F8002022
:101280002749087074E0042C34D1254800780228DE
:1012900003D1012004F052F928E021480078012808
:1012A00003D1022004F04AF920E01D480078032809
:1012B00003D1042004F042F918E01948007804280A
:1012C00003D1032004F03AF910E01548007805280E
:1012D00004D1FFF74BF81749087007E01048007871
:1012E000072803D104F091FA04F0E0F800200C493B
:1012F00008703DE0652C3BD109480078092801D1F0
:1013000000F038F806480078632815D1002004F072
:101310009BFA0A2004F001FDFFF70FFC25E0000016
:101320000100002090070020300D00203C07002025
:101330003007002002000020FE480078622803D118
:101340000020FD49087010E0FA480078602808D1B4
:10135000FA48007808B9012000E00020F749087039
:1013600003E0F448007804F0C5FB0020F149087060
:1013700005B030BD10B500240A2461E00020ED491D
:101380000870642004F0C9FC0020FFF7ADFEE948B6
:10139000007882282FD00EDC7F2820D006DC05289C
:1013A00011D0062813D0072841D114E080281AD084
:1013B00081283CD11BE08338062838D2DFE800F0D2
:1013C0001F23272B2F336320DA49087033E0622074
:1013D000D84908702FE06120D64908702BE0912091
:1013E000D449087027E08920D249087023E09E2064
:1013F000D04908701FE08B20CE4908701BE08C207C
:10140000CC49087017E08D20CA49087013E0A2206B
:10141000C84908700FE08E20C64908700BE0922082
:10142000C449087007E09020C249087003E000201A
:10143000C049087000BF00BFBE48007800B110BDB1
:10144000201EA4F10101CCB298DC6020B9490870DB
:1014500000BFF4E77CB501240125B948008800F0FD
:10146000CBFF002003463E2214210090084601F0E5
:1014700051FA0023B3A214213C2001F0BFFA00234B
:10148000B2A228213C2001F0B9FA022014231A4606
:101490001946CDE900043E20FEF7D4FE044624B9E7
:1014A000FFF7DAFAAB4908707CBD012C03D10220AA
:1014B000A949087004E0022C02D10420A649087052
:1014C0009F48008800F098FF4FF4784000233E22A8
:1014D00014210090084601F01DFA00239FA2142158
:1014E0003C2001F08BFA00239EA228213C2001F031
:1014F00085FA0020052300909C480288142164206E
:1015000001F0DFFA00200523009099480288282185
:10151000642001F0D6FA0124A3E000208549087078
:10152000FFF7E2FD83480078072800D19AE0814860
:101530000078022829D1012C13D102244FF47840DD
:101540000023202214210090084601F0E3F94FF413
:10155000784000233E2228210090142001F0DAF97F
:101560006DE001244FF4784000233E2214210090C6
:10157000084601F0CFF94FF47840002320222821BB
:101580000090142001F0C6F959E06A480078092853
:1015900008D1FFF7EFFE6748007863284FD1FFF7C7
:1015A00059FF81E763480078052819D1012C0BD138
:1015B0006E480088002807DD6C4800880A2190FBEF
:1015C000F1F06A4908803AE069480088002836DD71
:1015D000674800880A2190FBF1F0654908802EE0F9
:1015E00054480078062809D1012C03D100205F4916
:1015F000088024E000205E49088020E04D48007803
:101600007F281CDB4B480078882818DC012C0BD184
:101610005648008800EB80004649097801EB4000FD
:101620007F38524908800AE05148008800EB80006A
:101630004049097801EB40007F384D49088000207F
:1016400005230090494802881421642001F039FAEA
:10165000002005230090464802882821642001F0DC
:1016600030FA5AE700BF3C480078022822D1404AAD
:101670001288521E91B23D4A1288521E90B201F059
:1016800025FD3C4801884FF0804006F0EFF83A48CD
:1016900001884FF0804006F0EBF8002337A21421B8
:1016A0003C2001F0ABF9002335A228213C2001F0B9
:1016B000A5F923E02848007804281FD12C4A128875
:1016C000521E91B2294A1288521E90B201F046FD74
:1016D000284801882B4806F0C9F82748018829487E
:1016E00006F0C6F8002328A214213C2001F086F958
:1016F000002326A228213C2001F080F901240020AB
:10170000052300901B4802881421642001F0D9F9B8
:10171000002005230090184802882821642001F049
:10172000D0F94FF4784000233E221421009008465F
:101730002EE0000001000020840700208207002026
:101740003007002054494D320000000054494D3408
:1017500000000000020000203A0700206172723A87
:10176000000000007073633A0000000016000020C3
:10177000180000203E0700204007002050413200A2
:1017800050413300000800405042380050423900B8
:1017900001F0C0F84FF47840002320222821009067
:1017A000142001F0B7F873E10020FE490870FFF73C
:1017B0009BFCFC48007807281BD1FB4800780228D6
:1017C0000CD1FA4801884FF0804006F04FF8F848F5
:1017D00001884FF0804006F04BF847E1F34801885C
:1017E000F44806F043F8F2480188F24806F040F861
:1017F0003CE1EC48007809281BD1FFF7BBFDE94824
:10180000007863280FD1E8480078022804D100212D
:10181000400705F08FFD03E00021E64805F08AFD52
:10182000FFF718FE40E6DF4800786128D5D1002593
:101830001CE1DC480078052819D1022C0BD1DC48CA
:101840000088002807DDDA4800880A2190FBF1F0C3
:10185000D74908800AE1D54800880028BDDDD34873
:1018600000880A2190FBF1F0D0490880FEE0CD48C5
:101870000078062809D1022C03D10020CC49088029
:10188000F4E00020C9490880F0E0C64800787F28CD
:1018900031DBC448007888282DDC022C0BD1C448E9
:1018A000008800EB8000BF49097801EB40007F38D9
:1018B000BF4908800AE0BD48008800EB8000B949B4
:1018C000097801EB40007F38B8490880B7480088A4
:1018D000B9490988884203DDB7480088B3490880C0
:1018E000B3480088B44909888842A1DDB24800881D
:1018F000AF490880BAE0B148007800F0040018B998
:10190000A848007803283BD10020A6490870AB48BE
:10191000007800F0FB00A9490870022C09D1A44806
:101920000088002805DDA2480088401EA0490880E4
:101930000AE0012C08D19D480088002804DD9B485E
:101940000088401E994908809748007802280CD1E9
:10195000964801884FF0804005F088FF9448018840
:101960004FF0804005F084FF80E090480188914866
:1019700005F07CFF8E4801888E4805F079FF75E000
:101980008E48007800F0010018B9864800780428D5
:101990003FD10020834908708848007800F0FE009D
:1019A00086490870022C0BD1814800888249098839
:1019B000884205DA7E480088401C7D4908800CE09A
:1019C000012C0AD1794800887B490988884204DAC9
:1019D00076480088401C75490880734800780228C2
:1019E0000CD1724801884FF0804005F03FFF7048ED
:1019F00001884FF0804005F03BFF37E06B480188DD
:101A00006C4805F033FF6A4801886A4805F030FFEA
:101A10002CE064480078022828D1012C13D102243C
:101A20004FF478400023202214210090084600F053
:101A300071FF4FF4784000233E22282100901420AB
:101A400000F068FF12E001244FF4784000233E22AA
:101A500014210090084600F05DFF4FF47840002309
:101A6000202228210090142000F054FF002005239C
:101A700000904E4802881421642001F022F80020D2
:101A8000052300904A4802882821642001F019F8B3
:101A9000012D3FF489AE44480078022804D100218A
:101AA000400705F047FC03E00021424805F042FCF6
:101AB0000020424908703B4908704148008800F006
:101AC0009BFC00BFF0E410B50446012C3BD13B4821
:101AD000007800F0010048B1022001F0C1FE374853
:101AE000007800F0FE00354908700DE033480078BA
:101AF00000F0020040B1012001F0B2FE2F48007852
:101B000000F0FD002D4908702C48007800F004001A
:101B100048B1042001F0A4FE2848007800F0FB0042
:101B20002649087069E02548007800F00800002880
:101B300063D0032001F094FE2048007800F0F70005
:101B40001E49087059E0022C57D11C480078002823
:101B500002DD00201B4908801848007800F00100D1
:101B600048B1062002F0CBFD1448007800F0FE00DA
:101B7000124908700DE01148007800F0020040B1F1
:101B8000082002F0BCFD0D48007800F0FD000B4974
:101B900008700A48007800F00400E0B1072002F065
:101BA000AEFD11E0010000203A0700203E070020B2
:101BB00040070020000800401600002032070020E7
:101BC000300700203C070020B948007800F0FB00F7
:101BD000B749087011E0B648007800F0080060B11D
:101BE000052002F08CFD01F07FF9022805D0B048F5
:101BF000007800F0F700AE490870042C39D1AC48E9
:101C0000007800F0010048B1012003F097FCA848DB
:101C1000007800F0FE00A64908700DE0A4480078A6
:101C200000F0020040B1022003F088FCA0480078D8
:101C300000F0FD009E4908709D48007800F0040007
:101C400048B1042003F07AFC9948007800F0FB00CA
:101C5000974908700DE09648007800F0080040B100
:101C6000032003F06BFC9248007800F0F7009049E5
:101C7000087010BD86B004F013F800F0B1FA00F05F
:101C80002BFA01F021F94FF4A06004F031F902F0D1
:101C900093F84FF4E13004F07CF840F2CF21C720F4
:101CA00001F09AF940F2CF21C72001F0D2F9814822
:101CB0000178814805F0D6FD4FF6E0707F49088035
:101CC00001207F490860FEF767FE7E490870EDE05D
:101CD0007A48008800F090FB4FF4C87004F01DF8BB
:101CE0007948008805F094FE002077490880704903
:101CF00008707448007801281BD1FFF70FF813E033
:101D000001F0D6FC01F075FD01F08CFD18B101F079
:101D1000DBFFFFF703F80120FFF7E6F90120FFF7EB
:101D2000D2FE322003F0F9FF664800780128CED1B8
:101D3000E6E764480078022862D101A802F0B8F909
:101D4000002002F068FB01A802F0B2F953E002F0B3
:101D5000D7F802F0DFF802F0FEF80220FFF7C4F92E
:101D60000220FFF7B0FE58480088962805DD0020C5
:101D700055490880052002F0C2FC022002F04BFB0E
:101D800002F02BFD08B902F01DFD02F040FA02F04E
:101D9000EDFD68B34948008800F02EFB00234BA2FC
:101DA0001E21282000F02AFE07E00020FFF79CF902
:101DB00049480078072800D103E001F095F8002891
:101DC000F3D000BF3D48008800F016FB012002F070
:101DD000D8FA022002F0D5FA002002F0D2FA01A8C7
:101DE00002F066F9002002F016FB01A802F060F98B
:101DF0000A2003F092FF33480078022856D1A6E764
:101E000030480078032817D102F0F9FE0FE02E4881
:101E100000880F2190FBF1F201FB120008B903F0DA
:101E20008FFA0320FFF760F9022003F076FF2548C0
:101E3000007803283AD1EAE72248007804281BD129
:101E40001E48008800F0D8FA00202349087003F0EB
:101E5000DCFC03F02BFB0AE00420FFF745F904202B
:101E6000FFF731FE03F0D6FA642003F056FF154861
:101E7000007804281AD1EFE71248007865280FD1BE
:101E8000FEF75BFE04E003F0C6FD6520FFF72CF9CA
:101E90000C4800786528F6D0002003F0D5FC05E05A
:101EA00008480078672801D1FFF7D4FA10E700004E
:101EB000320700200000002000040040300700200E
:101EC000B4012242020000203C070020596F752017
:101ED0004C6F73650000000001000020704700BFD8
:101EE000FEE700BFFEE700BFFEE700BFFEE770476A
:101EF00070477047704700000CB5002001900090BB
:101F00006C48006840F480306A49086000BF694846
:101F1000006800F4003000900198401C0190009887
:101F200018B90198B0F5A06FF1D16248006800F4CB
:101F3000003010B10120009001E0002000900098D6
:101F4000012843D15C48006840F010005A490860FD
:101F50000846006820F0030008600846006840F06A
:101F6000020008605348406852494860084640688B
:101F700048600846406840F4806048600846406811
:101F800020F47C1048600846406840F4E81048603F
:101F90000846006840F08070086000BF454800684F
:101FA00000F000700028F9D04248406820F003009B
:101FB000404948600846406840F00200486000BF61
:101FC0003C48406800F00C000828F9D10CBD10B561
:101FD000FFF792FF10BD10B53648006840F00100D1
:101FE000344908600846406834490840314948602F
:101FF00008460068324908402E49086008460068D3
:1020000020F4802008600846406820F4FE00486004
:102010004FF41F008860FFF7DAFF4FF00060294996
:10202000086010BD10B5002100200022214B5B6824
:1020300003F00C0121B1042906D0082928D107E0BA
:10204000214B224C236027E01F4B204C236023E0D0
:10205000184B5B6803F47010164B5B6803F4803216
:10206000022303EB904022B9194B4343174C2360E2
:102070000DE0104B5B6803F4003323B1144B434372
:10208000124C236003E0104B4343104C236003E0E9
:102090000D4B0E4C236000BF00BF064B5B68C3F3C3
:1020A00003130C4CE15C094B1B68CB40074C2360CD
:1020B00010BD000000100240002002400000FFF8A8
:1020C000FFFFF6FE08ED00E000127A001C00002081
:1020D00000093D002000002008B50121102004F077
:1020E00091FA4FF40050ADF8000010208DF8030075
:1020F00003208DF802006946034803F0C7FF202142
:10210000014804F070F808BD0010014070B50446A5
:102110001021FC4804F069F8002516E02021F94858
:1021200004F063F87F2C04DD8021F64804F05BF8AE
:1021300003E08021F34804F058F82021F14804F02E
:1021400052F86006040E681CC5B2082DE6DB1021AB
:10215000EC4804F048F870BD10B504460221EA4886
:1021600004F041F82046FFF7D1FF10BD10B504463A
:102170000221E54804F037F82012FFF7C7FFE0B26C
:10218000FFF7C4FF10BD10B504460221DE4804F07D
:102190002CF82046FFF7BAFF10BD2DE9F0410446A8
:1021A0000D4616461F462A20FFF7EDFF611C88B238
:1021B000FFF7DCFF711C88B2FFF7D8FF2B20FFF779
:1021C000E2FF05F11A0188B2FFF7D0FF07F11A010B
:1021D00088B2FFF7CBFF2C20FFF7D5FFBDE8F081D9
:1021E00008B501210C2004F00DFA03208DF802003F
:1021F00010208DF803000320ADF800006946C248A6
:1022000003F044FFB020ADF800006946BD4803F07C
:102210003DFF0121BC4803F0E8FFC82003F07DFD2D
:102220000121B94803F0DFFFC82003F076FD11203B
:10223000FFF7A9FF642003F070FD2120FFF7A3FF43
:10224000B120FFF7A0FF0520FFF786FF3A20FFF738
:1022500083FF3A20FFF780FFB220FFF794FF0520AD
:10226000FFF77AFF3A20FFF777FF3A20FFF774FF76
:10227000B320FFF788FF0520FFF76EFF3A20FFF736
:102280006BFF3A20FFF768FF0520FFF765FF3A2054
:10229000FFF762FF3A20FFF75FFFB420FFF773FFFD
:1022A0000320FFF759FFC020FFF76DFF6220FFF703
:1022B00053FF0220FFF750FF0420FFF74DFFC1201E
:1022C000FFF761FFC020FFF747FFC220FFF75BFF6A
:1022D0000D20FFF741FF0020FFF73EFFC320FFF76F
:1022E00052FF8D20FFF738FF6A20FFF735FFC4202B
:1022F000FFF749FF8D20FFF72FFFEE20FFF72CFFA0
:10230000C520FFF740FF0E20FFF726FFE020FFF774
:102310003AFF1020FFF720FF0E20FFF71DFF0220DD
:10232000FFF71AFF0320FFF717FF0E20FFF714FF38
:102330000720FFF711FF0220FFF70EFF0720FFF72E
:102340000BFF0A20FFF708FF1220FFF705FF2720E9
:10235000FFF702FF3720FFF7FFFE0020FFF7FCFE2C
:102360000D20FFF7F9FE0E20FFF7F6FE1020FFF715
:10237000F3FEE120FFF707FF1020FFF7EDFE0E2030
:10238000FFF7EAFE0320FFF7E7FE0320FFF7E4FE76
:102390000F20FFF7E1FE0620FFF7DEFE0220FFF729
:1023A000DBFE0820FFF7D8FE0A20FFF7D5FE13203A
:1023B000FFF7D2FE2620FFF7CFFE3620FFF7CCFE38
:1023C0000020FFF7C9FE0D20FFF7C6FE0E20FFF725
:1023D000C3FE1020FFF7C0FE3A20FFF7D4FE052011
:1023E000FFF7BAFE3620FFF7CEFE7820FFF7B4FEE7
:1023F0002920FFF7C8FE08BD70B506464F239F226F
:1024000000210846FFF7C9FE00240AE0002504E089
:102410003046FFF7ABFE681C85B2502DF8DB601C20
:1024200084B2A02CF2DB70BD2DE9F04704460D46C6
:1024300016461F46DDF820804FF00009CA46E8190D
:10244000401E83B2A019401E82B229462046FFF7E3
:10245000A4FE02212C4803F0C6FEA14614E0AA46C1
:102460000BE04FEA2820FFF751FE08F0FF00FFF7CE
:102470004DFE0AF101001FFA80FAE8195045F0DC20
:1024800009F101001FFA80F9A0194845E7DCBDE811
:10249000F0872DE9FF4F85B088469146DDE912AB04
:1024A000DDE91447002500260020049003900290E7
:1024B00001900120009000BFD8E00025D0E00898EE
:1024C000012813D104FB0651CA1701EB5272D31035
:1024D000059AD25C04FB0650C31700EB5373DB1064
:1024E000A0EBC3039A40D2B2009201E0FF2000901B
:1024F00000987F287DDDB8F1000F07D10495039681
:1025000021E0000000080140000C0140B8F1010F7B
:1025100005D10495B81E801BC0B2039013E0B8F13A
:10252000020F05D1A01E401BC0B2049003960AE022
:10253000B8F1030F07D1A01E401BC0B20490B81E13
:10254000801BC0B20390B9F1000F08D10498504429
:10255000C0B2029003985844C0B201902BE0B9F188
:10256000010F13D1E01900EBD0714A1003994942D1
:1025700051441144C9B20291381B00EBD0714A108A
:10258000049959441144C9B2019114E0B9F1020F00
:1025900011D1E01B00EBD0714A1003995144114452
:1025A000C9B20291381B00EBD0714A10049959440A
:1025B0001144C9B201910221F94803F016FE2A2004
:1025C000FFF7A4FD0221F64803F00DFE0020FFF7FF
:1025D0009DFD0299491CC8B2FFF798FD0221F04801
:1025E00003F001FE0020FFF791FD0299891CC8B29B
:1025F00000E033E0FFF78AFD0221E94803F0F5FD32
:102600002B20FFF783FD0221E54803F0ECFD0020BD
:10261000FFF77CFD01991A31C8B2FFF777FD02215F
:10262000DF4803F0E0FD0020FFF770FD01991B314A
:10263000C8B2FFF76BFD0221D94803F0D6FD2C206C
:10264000FFF764FD0221D64803F0CDFD169908126C
:10265000FFF75CFD1699C8B2FFF758FD681CC5B2BC
:10266000601EA8423FF72BAF701CC6B2781EB04266
:102670003FF723AF09B0BDE8F08F2DE9F05F814649
:102680008A4693461C46102C00D1C64D202C00D102
:10269000C54D0AEB0400401E83B209EB0400401E46
:1026A00082B251464846FFF778FD04FB04F0C1179B
:1026B00000EB5171C1F3C7080BFB0855002715E06B
:1026C00000260EE028780121B140084018B10A9890
:1026D000FFF74CFD03E0B5480088FFF747FD701C8D
:1026E000C6B2082EEEDB6D1C781CC7B24745E7DB8F
:1026F000BDE8F09F70B504460D461646681C83B2CF
:10270000601C82B229462046FFF747FD3046FFF79E
:102710002DFD70BD2DE9F04706460F4614461D46B7
:10272000DDF820A0681E83B2601E82B239463046B2
:10273000FFF733FDB8460EE0B14606E05046FFF71E
:1027400015FD09F101001FFA80F9A145F6DD08F138
:1027500001001FFA80F8A845EEDDBDE8F087F8B566
:1027600004460D4616466F1CBBB2671CBAB26F1EFC
:10277000B9B2671EB8B20096FFF7CCFFF8BD2DE9DD
:10278000FF4F85B081468A46002003908346079814
:10279000A0EB09040898A0EB0A06CDF80890CDF844
:1027A00004A0002C01DD012705E00CB9002702E0A0
:1027B0004FF0FF376442002E02DD4FF0010806E0C3
:1027C00016B94FF0000802E04FF0FF386642B442FD
:1027D00001DD254600E03546002004901EE0019A08
:1027E00091B2029A90B2129AFFF784FF03982044A4
:1027F0000390B3440398A84205DD0398401B03905F
:10280000029838440290AB4504DDABEB050B019810
:10281000404401900498401C80B20490691C0498C4
:102820008842DCDB09B0BDE8F08F2DE9F8430646AD
:102830000F4690461D46089C3B4642463946304668
:102840000094FFF79CFF2B463246394630460094F1
:10285000FFF795FF2B464246294630460094FFF786
:102860008EFF681C83B24246394640460094FFF70B
:1028700086FFBDE8F8832DE9F04706460F469046EF
:1028800099460025444641E07A1B91B2321B90B232
:102890004A46FFF72FFF7A1B91B2321990B24A468F
:1028A000FFF728FF3A1991B2721B90B24A46FFF720
:1028B00021FF3A1B91B2721B90B24A46FFF71AFFF2
:1028C0007A1991B2321990B24A46FFF713FF3A1BB8
:1028D00091B2721990B24A46FFF70CFF3A1991B2C1
:1028E000721990B24A46FFF705FF7A1991B2321B6E
:1028F00090B24A46FFF7FEFE6D1C05FB05F004FB97
:10290000040108FB08F0814200DD641EA542BBDD26
:10291000BDE8F0872DE9F84F05460F4616469A4662
:10292000DDF828B00095982D01DC402F01DDBDE8D1
:10293000F88FA6F12000C6B207F10F0083B2E81DA0
:1029400082B239462846FFF728FCBAF1000F31D190
:10295000002422E004EB0610154911F800904FF016
:10296000000812E009F0010018B15846FFF7FEFB1D
:1029700003E00E480088FFF7F9FB4FEA6909681C7D
:1029800085B208F1010000F0FF08B8F1080FE9DB9B
:10299000009D781C87B2601CC4B2102CDADB2BE0DF
:1029A000000C0140300100203000002030070020E2
:1029B0003481000800241DE004EB0610FB4911F8E7
:1029C00000904FF0000810E009F0010038B13A190A
:1029D00091B205EB080290B25A46FFF78BFE4FEA20
:1029E000690908F1010000F0FF08B8F1080FEBDBFE
:1029F000601CC4B2102CDFDB00BF98E7F8B50546B9
:102A00000E4614461F4619E0902D03DD002506F101
:102A1000100086B2402E06DD0020054606464FF423
:102A20007840FFF7E9FC00972278002331462846DA
:102A3000FFF770FF05F1080085B2641C20780028BC
:102A4000E2D1F8BD10B50246012000E050430B0072
:102A5000A1F10104E1B2F9D110BD2DE9FE43064612
:102A6000894615461F460024A0460020019002908A
:102A700000BF0A2095FBF0F100FB115001A9085599
:102A80000A2095FBF0F085B2601CC4B2002DF0DC8A
:102A9000A046002411E0A8EB0401491E01AB0097F9
:102AA000595C3031CAB2082101FB046188B20023AD
:102AB0004946FFF72FFF601CC4B24445EBDBBDE87D
:102AC000FE832DE9FE4F07468A4615469846DDF8F7
:102AD00030900024002600200190029000BF0A20C0
:102AE00095FBF0F100FB115001A988550A2095FBD8
:102AF000F0F085B2701CC6B2002DF0DC00241FE09F
:102B0000B44210DA311B491E01ABCDF80090595C7C
:102B10003031CAB2082101FB047188B2002351464A
:102B2000FFF7F8FE0AE0082101FB047188B20023D8
:102B300020225146CDF80090FFF7ECFE601CC4B295
:102B40004445DDDBBDE8FE8F2DE9F84F06468A4699
:102B500017461C46DDF828809549384604F0FCFFEE
:102B6000009004F0D9FF1FFA80FB00252EE0601BC7
:102B7000401EC1B20A20FFF765FFBBFBF0F00A213F
:102B8000B0FBF1F201FB1209A01EA8420FD1A11E59
:102B9000082202FB016188B200232E225146CDF8A3
:102BA0000080FFF7B7FE681CC5B2601CC4B209F113
:102BB0003001CAB2082101FB056188B200235146E9
:102BC000CDF80080FFF7A6FE681CC5B2A542CEDB9B
:102BD000BDE8F88F2DE9F04705460E4617469846A2
:102BE000DDF8209007EB0900401E83B206EB0800D9
:102BF000401E82B239463046FFF7CFFA00240BE080
:102C0000012101EB4401685CFFF7A6FA15F81400F6
:102C1000FFF7A2FA601C84B208FB09F0A042EFDCC7
:102C2000BDE8F0872DE9FF4F89B08246904699466E
:102C3000DDE919B41B9F00250026002008900790AD
:102C400006900590012004900020039002900190CE
:102C5000E11704EB5171C910A4EBC10149B1204641
:102C6000E11704EB5171C910491CC906090E039103
:102C700000E003940026F5E00025EEE01698012818
:102C800002D01698022815D1039A02FB0651CA17E2
:102C900001EB5272D3100A9AD25C039B03FB0650DD
:102CA000C31700EB5373DB10A0EBC3039A40D2B2FF
:102CB000049201E0FF200490B8F1000F02D10895C2
:102CC00007961CE0B8F1010F05D10895B81E801BCE
:102CD000C0B2079013E0B8F1020F05D1A01E401B4F
:102CE000C0B2089007960AE0B8F1030F07D1A01E02
:102CF000401BC0B20890B81E801BC0B20790B9F14B
:102D0000000F09D1189908980844C0B20690079896
:102D10005844C0B205902DE0B9F1010F14D1E0196B
:102D200000EBD0714A1007994B421899194411448D
:102D3000C9B20691381B00EBD0714A10089959446A
:102D40001144C9B2059115E0B9F1020F12D1E01B8F
:102D500000EBD0714B10189A079911441944C9B26D
:102D60000691381B00EBD0714A1008995944114460
:102D7000C9B2059104987F280DDD06FB045001219E
:102D800001EB40001AF80000029006FB04501AF80C
:102D9000100001900FE0169802280BD1179800122E
:102DA00002901798C0B2019005E00000348100083D
:102DB0000000C8424FE00221424803F016FA2A20E0
:102DC000FFF7A4F902213F4803F00DFA0020FFF7B6
:102DD0009DF90699491CC8B2FFF798F902213948B4
:102DE00003F001FA0020FFF791F90699891CC8B297
:102DF000FFF78CF90221334803F0F7F92B20FFF796
:102E000085F902212F4803F0EEF90020FFF77EF943
:102E100005991A31C8B2FFF779F90221294803F060
:102E2000E2F90020FFF772F905991B31C8B2FFF7EC
:102E30006DF90221234803F0D8F92C20FFF766F939
:102E40000221204803F0CFF90298FFF75FF90198BB
:102E5000FFF75CF900BF681CC5B2A542FFF60EAFD4
:102E6000701CC6B2BE42FFF607AF0DB0BDE8F08FD2
:102E700002460020002100BF0AE042FA01F303F0FD
:102E800001030BB1431CD8B24306180E4B1CD9B238
:102E90000829F2DB704730B50346C3EB4310FF242B
:102EA00090FBF4F0C002C1EB8114FF2594FBF5F414
:102EB00000EB4410C2EB421494FBF5F4204480B2C2
:102EC00030BD0000000C014008B50121042003F0D2
:102ED00099FB48208DF803000320ADF800006946F7
:102EE000374803F0D3F808BD10B50121344803F08A
:102EF00060F988B933480088401C3249088032485C
:102F0000006808B9012000E000202F490860002077
:102F10002E490870012010BD0221294803F049F90B
:102F200088B92B480088401C294908802648006839
:102F300008B9012000E0002023490860002025494D
:102F400008700220E7E701211D4803F032F901284B
:102F500008D11E48007828B100201A4908801B4972
:102F600008700DE00221164803F023F9012807D16B
:102F70001848007820B100201549088015490870CC
:102F80000020C8E70146012904D1104A10700D48FD
:102F900000887047022905D101200E4A10700C48A4
:102FA0000088F6E70020F4E7012803D10021054A54
:102FB000118004E0022802D10021054A11807047E7
:102FC0000008014034070020B401224238070020E5
:102FD00036070020390700207FB505460C46012141
:102FE000022003F01CFBADF80850ADF804400020AF
:102FF000ADF80A00ADF8060001A99A4803F03EFEBC
:1030000001221146974804F0B0F91D208DF8000008
:1030100000208DF8010003208DF8020001208DF8BA
:103020000300684602F069FF01218E4804F082F92E
:103030007FBD10B501218B4804F045FC40B1012152
:10304000884804F051FC88480088401C8649088064
:1030500010BD30B589B005460C460121022003F0B1
:10306000DEFA0121042003F0CDFA4020ADF8200063
:1030700018208DF8230003208DF8220008A97B4832
:1030800003F004F8ADF81850ADF814400020ADF886
:103090001A00ADF8160005A9724803F0EFFD702084
:1030A000ADF804000120ADF806000020ADF80C00DA
:1030B00001A96C4803F01FFE08216A4804F06AFA6F
:1030C0000121684804F036F909B030BD30B589B047
:1030D00005460C460121084603F0A1FA012104200F
:1030E00003F090FA0C20ADF8200018208DF8230092
:1030F00003208DF8220008A95C4802F0C7FFADF854
:103100001850ADF814400020ADF81A00ADF81600C4
:1031100005A94FF0804003F0B1FD7020ADF8040028
:103120000120ADF806000020ADF80C0001A94FF019
:10313000804003F06FFE0821C80604F041FA01A99F
:103140004FF0804003F0B1FE0821C80604F041FAB8
:103150000121880704F0EEF809B030BD30B589B020
:1031600005460C460121042003F059FA01210820EC
:1031700003F048FA4FF44070ADF8200018208DF8A5
:10318000230003208DF8220008A9394802F07EFFB1
:10319000ADF81850ADF814400020ADF81A00ADF8A5
:1031A000160005A9334803F069FD7020ADF804004E
:1031B0000120ADF806000020ADF80C0001A92D4853
:1031C00003F028FE08212B4804F0FAF901A9294848
:1031D00003F06BFE0821274804F0FBF90121254884
:1031E00004F0A8F809B030BD30B589B005460C46EA
:1031F0000121C80203F013FA0121042003F002FAAE
:103200004FF48070ADF8200018208DF823000320C3
:103210008DF8220008A9154802F038FFADF81850C3
:10322000ADF814400020ADF81A00ADF8160005A95D
:10323000114803F023FD7020ADF804000120ADF823
:1032400006000020ADF80C0001A90B4803F053FD67
:103250000821094804F09EF90121074804F06AF8A2
:1032600009B030BD000400403C07002000080140C8
:10327000000C014000080040002C0140002000210B
:1032800000BF04E00022FE4B1A54421CD0B20D28AD
:10329000F8DB00201AE0002114E0FA4A02EBC00239
:1032A000525C042A05D0F74A02EBC002525C052AA0
:1032B00006D1F34A125C01238B401A43F04B1A5497
:1032C0004A1CD1B20829E8DB421CD0B20D28E2DB4F
:1032D00070470020002100BF0CE0002106E0002222
:1032E000E84B03EBC0035A544A1CD1B20829F6DB61
:1032F000421CD0B20D28F0DB704730B505460024E3
:10330000FFF7E7FF0020E0490870012D3FD100BF23
:1033100008E00320DB4901F8340001EBC401C87167
:10332000601CC4B2072CF4DB012408E00320D5495B
:1033300008550321D34830300155601CC4B2072C16
:10334000F4DB0321CF4881768177012180F82610B4
:10335000022180F82310C176C1740177417680F88C
:103360002510417741750421417441728174817245
:1033700080F8291080F8211080F82A1080F8221097
:103380000420C24908700620C14908708DE1022D51
:1033900045D1002404E00320BA490855601CC4B29A
:1033A000082CF8DB0320B74908720874087603215B
:1033B000B448417680F8211080F8291080F82A104E
:1033C00080F8321080F83A10C17480F83B1080F811
:1033D0003C1080F82D1080F8351080F83D10817772
:1033E00080F8261080F82E10C173C175C1770121B5
:1033F000C1720221C17680F8241001754175042143
:1034000080F82C1080F8331080F8341080F82510E4
:1034100001209E49087003209D49087045E1032D55
:103420003AD1002408E00320964901F8340001EB6A
:10343000C401C871601CC4B2072CF4DB012408E08D
:1034400003209049085503218E4830300155601CF7
:10345000C4B2072CF4DB03218A48C17280F82B1018
:10346000817701214176022180F8221081768174D2
:1034700080F82510417505210177042180F823107B
:10348000C176C17480F82410017503207F4908704B
:1034900001207F49087008E1042D2FD1002408E0A5
:1034A0000320784901F8340001EBC4018871601CE5
:1034B000C4B2052CF4DB012408E00320714908554F
:1034C0000321704820300155601CC4B2062CF4DB87
:1034D00002216C4841748174C1740175C172042168
:1034E000417241764173417541770121817201201A
:1034F00066490870022066490870D6E0052D38D16B
:10350000002408E003205F4901F8340001EBC40106
:103510008871601CC4B2072CF4DB012408E003208E
:10352000584908550321574830300155601CC4B232
:10353000062CF4DB032153484172C17480F8231038
:1035400080F825100221C172C17680F8221080F81F
:1035500024100421817280F8291080F82D10417305
:10356000012101730120494908700420484908706D
:103570009BE0062D41D1012408E00320414901F8D8
:10358000340001EBC401C871601CC4B2062CF4DB2A
:10359000022408E003203B49085503213948303014
:1035A0000155601CC4B2062CF4DB0321354841727E
:1035B000817280F8291080F831104173817380F88E
:1035C0002E1080F8361002218174C174417580F884
:1035D000221080F8241080F825100421417681768D
:1035E000C176017741778177012101730120274955
:1035F000087004202649087057E0072D55D1012492
:1036000008E003201F4901F8340001EBC401887170
:10361000601CC4B2052CF4DB002408E00320194927
:1036200008550321174838300155601CC4B2072CD7
:10363000F4DB0320134981F8280081F830000321CE
:10364000104880F8211080F8221080F8241080F8AB
:1036500025108174017580F8271080F82F1080F8EC
:10366000371080F83F10042180F8321080F83310B2
:1036700080F83410022180F82A1080F82B1009E01D
:1036800010080020A807002044070020420700205F
:103690004307002080F82C10012180F82E1005200F
:1036A000FE4908700620FE490870FFF7E7FD30BDAF
:1036B00070B586B00024002500BF95E000258EE09F
:1036C000F84800EBC400405DA8B9F748008805EB56
:1036D0008506760006F10A0304EB8406760006F1FF
:1036E0000A0205EB8506710004EB84060090700069
:1036F000FFF710F871E0EB4800EBC400405D0128D3
:1037000018D10A2205EB85004006000E04EB840167
:103710004906090ECDE90302E348059202910088AB
:10372000022100231A46CDE90010E049E048FFF7E6
:1037300079FA52E0DB4800EBC400405D02280ED16C
:103740000A20009005EB85004006020E04EB840081
:103750004006010E0A23D748FFF73CFA3DE0D14866
:1037600000EBC400405D03280ED10A20009005EB59
:1037700085004006020E04EB84004006010E0A2379
:10378000CD48FFF727FA28E0C64800EBC400405DAB
:1037900005280ED10A20009005EB85004006020E98
:1037A00004EB84004006010E0A23C448FFF712FA16
:1037B00013E0BC4800EBC400405D04280DD10A2092
:1037C000009005EB85004006020E04EB84004006E5
:1037D000010E0A23BA48FFF7FDF9681CC5B2082D8F
:1037E000FFF66EAF601CC4B20D2CFFF667AF06B0DB
:1037F00070BD08B5002010230A220221009082200B
:10380000FEF73BFF002010230B22022100909120A5
:10381000FEF733FF0023AB48027813218520FFF722
:103820001CF908BD0021002200BF15E000220FE0B6
:10383000A548405C01239340184038B1994800EBFB
:10384000C100805C052801D000207047501CC2B226
:10385000082AEDDB481CC1B20D29E7DB0120F4E7A3
:103860002DE9F0410446002200238C4F3D788C4F17
:103870003E7800200021012C02D100BF411E0DE046
:10388000022C02D10020012108E0032C02D10120EA
:10389000002103E0042C01D1601F00217F4F3F78FD
:1038A0000744DFF800C20CEBC707DFF8F4C19CF84F
:1038B00000C08C4417F80C707FB1784F3F780744F4
:1038C000DFF8E0C10CEBC707DFF8D4C19CF800C0FB
:1038D0008C4417F80C70042F2CD10027DFF8C4C1DA
:1038E000DFF8B88198F800800CEBC80CDFF8B081E5
:1038F00098F800800CF80870684F3F780744DFF8AC
:103900009CC18CF80070664F3F780F44DFF890C17F
:103910008CF800700127DFF88CC1DFF8808198F8FF
:1039200000800CEBC80CDFF8788198F800800CF868
:1039300008708AE1594F3F780744DFF868C10CEB03
:10394000C707DFF85CC19CF800C08C4417F80C7006
:10395000022F7CD1514F3F784FF0020C0CFB0077C7
:10396000DFF840C10CEBC707DFF834C19CF800C09A
:103970004FF0020808FB01CC17F80C70EFBB0027D2
:10398000DFF820C1DFF8148198F800800CEBC80C38
:10399000DFF80C8198F800800CF808703F4F3F78F2
:1039A0000744DFF8F8C08CF800703D4F3F780F44B3
:1039B000DFF8ECC08CF800700127DFF8E8C0DFF812
:1039C000DC8098F800800CEBC80CDFF8D48098F805
:1039D00000800CF808700227DFF8C0C09CF800C017
:1039E0008444DFF8C08008EBCC0CDFF8B48098F892
:1039F000008088440CF8087027E1FFE7274F3F78E4
:103A00004FF0020C0CFB0077DFF898C00CEBC707F7
:103A1000DFF88CC09CF800C04FF0020808FB01CC16
:103A200017F80C70042F84D14FF0000C1D4FDFF8F5
:103A30006C8098F8008007EBC807DFF8648098F87E
:103A4000008007F808C0154F3F78074400E045E0C4
:103A5000DFF848C08CF80070114F3F780F44DFF852
:103A600040C08CF800700127DFF838C0DFF82C80E8
:103A700098F800800CEBC80CDFF8248098F80080E0
:103A80000CF808700527DFF814C09CF800C08444C7
:103A9000DFF8108008EBCC0C18E000004207002093
:103AA00043070020A8070020300700200C8B0008E7
:103AB000B4880008EC87000824870008448A0008BE
:103AC0007C8900084407002010080020DFF8C48229
:103AD00098F8008088440CF80870B6E0AE4F3F7844
:103AE0000744DFF8B8C20CEBC707DFF8A8C29CF8A0
:103AF00000C08C4417F80C70052F51D1A64F3F78A9
:103B00004FF0020C0CFB0077DFF890C20CEBC707FC
:103B1000DFF880C29CF800C04FF0020808FB01CC1F
:103B200017F80C70EFBB0027DFF870C2DFF868826F
:103B300098F800800CEBC80CDFF8588298F80080E9
:103B40000CF80870944F3F780744DFF84CC28CF8AB
:103B50000070904F3F780F44DFF838C28CF8007047
:103B60004FF0010C8D4FDFF8308298F8008007EBA2
:103B7000C807DFF8208298F8008007F808C00227FD
:103B8000DFF814C29CF800C08444DFF8108208EB10
:103B9000CC0CDFF8008298F8008088440CF808709C
:103BA00053E0FFE77C4F3F784FF0020C0CFB0077AF
:103BB000DFF8E8C10CEBC707DFF8D8C19CF800C0FC
:103BC0004FF0020808FB01CC17F80C70042F3CD111
:103BD0000027DFF8C8C1DFF8C08198F800800CEB3F
:103BE000C80CDFF8B08198F800800CF808706A4FB4
:103BF0003F780744DFF8A0C18CF80070654F3F782C
:103C00000F44DFF890C18CF800700127DFF88CC1F9
:103C1000DFF8848198F800800CEBC80CDFF8748121
:103C200098F800800CF808700527DFF86CC19CF844
:103C300000C08444DFF8648108EBCC0CDFF85481C9
:103C400098F8008088440CF80870534F3F78BD42C4
:103C500003D1504F3F78BE4206D0514F3F787F1C72
:103C6000DFF83CC18CF80070002229E0002323E03B
:103C70004C4FBF5C4FF0010C0CFA03FC07EA0C0739
:103C8000C7B1464F07EBC207FF5C042F12D0434F6A
:103C900007EBC207FF5C052F0CD0404F07EBC207B4
:103CA000FF5C012F06D00427DFF8F0C00CEBC20C3C
:103CB0000CF803705F1CFBB2082BD9DB571CFAB25F
:103CC0000D2AD3DBBDE8F08110B537480088FEF738
:103CD00093FB002335A21E212820FEF78FFE4FF410
:103CE0007A7002F01AF810BDF8B5054600240020DD
:103CF000009004EB8400800000F10A0110231222DE
:103D00001C20FEF7BAFC0020009004EB8400800029
:103D100000F10A01102313222C20FEF7AEFC002034
:103D200003463E220A2100904B20FEF7F3FD00BF20
:103D30002DE00020009004EB8400800000F10A01D7
:103D400010231A465C20FEF798FC2819401E072114
:103D500090FBF1F201FB1200401C86B204EB8400E0
:103D6000800000F10A014FF4784332466C20FEF7E0
:103D700074FE0020009004EB8400800000F10A0132
:103D8000102311227C20FEF778FC601CC4B2032CA7
:103D9000CFDBF8BD4307002042070020A807002022
:103DA000440700201008002030070020596F7520BC
:103DB00057696E21000000000EB5FFF785F801215C
:103DC000084602F01FFC00208DF808000C208DF83A
:103DD000090001208DF80A000021084602F06CFA63
:103DE0000120019001A803F091FD0121002002F0C3
:103DF00063FA0220019001A803F088FD06208DF8E7
:103E0000000002208DF8010001208DF802008DF8DD
:103E10000300684602F071F807208DF800000220C8
:103E20008DF801008DF8020001208DF8030068462E
:103E300002F063F80EBD10B51E2001F06EFFFFF713
:103E400053F8012824D1C82001F067FFFFF74CF890
:103E5000012812D1322001F060FFFFF745F8012858
:103E600016D12648007840F0020024490870084620
:103E7000007800F0FE0008700AE02048007840F06A
:103E800001001E4908700846007800F0FD00087027
:103E9000012003F0B2FD10BD10B51E2001F03DFF62
:103EA000FFF722F8022824D1C82001F036FFFFF7DF
:103EB0001BF8022812D1322001F02FFFFFF714F86F
:103EC000022816D10D48007840F008000B49087010
:103ED0000846007800F0FB0008700AE00748007808
:103EE00040F00400054908700846007800F0F7002B
:103EF0000870022003F081FD10BD00003207002091
:103F000008B500204F239F22122100902620FEF7A3
:103F10008CFC08BD08B50020102302460221009049
:103F20002820FEF7AAFB0020102301220221009086
:103F30003820FEF7A2FB002003463A22022100901F
:103F40004820FEF7E7FC0023FE48028802215020AB
:103F5000FEF783FD08BDF8B50024002500BF6BE027
:103F6000002565E004EB8400F74901EB8000405D2B
:103F7000012819D1F548C08804EB4406760006F103
:103F8000190305EB4506760006F12D0204EB440605
:103F9000760006F1130105EB45067600009006F168
:103FA0002700FEF7B7FB41E004EB8400E64901EB94
:103FB0008000405D092820DD04EB840001EB8000D7
:103FC000405D0A38E24931F8100004EB44067600FF
:103FD00006F1190305EB4506760006F12D0204EB08
:103FE0004406760006F1130105EB450676000090C5
:103FF00006F12700FEF78EFB18E0D648008804EB98
:104000004406760006F1190305EB4506760006F135
:104010002D0204EB4406760006F1130105EB45067C
:104020007600009006F12700FEF774FB681CC5B20D
:10403000142D97DB601CC4B20A2C91DB002434E001
:1040400000252EE0C44800EB8400405D012813D118
:10405000C248C08805EB45067600B31D04EB440654
:104060007600B21D05EB4506710004EB4406009096
:104070007000FEF74FFB12E0B648008805EB4506DE
:104080007600B31D04EB44067600B21D05EB450631
:10409000710004EB440600907000FEF73BFB681CC7
:1040A000C5B2042DCEDB601CC4B2022CC8DBF8BD47
:1040B00070B50546FCF7ACF8072190FBF1F201FB67
:1040C0001200A6490870FCF7A3F80446C01704EBD9
:1040D00090708010A4EB8000A0490861FCF798F86C
:1040E0000446C01704EB5070C010A4EBC0000A30A7
:1040F0009A4908720846007A0A38954931F8100042
:104100009649C8800420C8700120087108460078CC
:10411000072875D2DFE800F0041324354555630005
:1041200001208D490870487000208870C87008719F
:1041300001218948417181710021C17160E0002035
:10414000854908700120487088700020C8700120DF
:10415000087101218048417100218171C1714FE0D6
:1041600000207D4908704870012088700020C870C8
:104170000120087101217848417181710021C171CC
:104180003EE0012074490870002048708870C870B3
:104190000120087101217048417181710021C171B4
:1041A0002EE001206C490870487000208870C870AB
:1041B0000120087101216848417100218171C1719C
:1041C0001EE000206449087048708870C8700120A3
:1041D00008710121604841718171C17110E00020B6
:1041E0005D4908700120487000208870C870012067
:1041F000087101215848417181710021C17100BFCE
:1042000000BF14225549284603F020FC70BD70B54C
:1042100000230022002000214C4C246934B1012CE1
:104220002AD0022C4ED0032C25D171E0002020E0B2
:1042300000211AE04A4C04EB8004645C9CB1434CBE
:10424000E478641E6318414C2479641E2218002A05
:1042500009DB434C04EB8004645C03EB83053A4EBA
:1042600006EB8505AC544C1CE1B20429E2DB441C8E
:10427000E0B20228DCDB82E0002020E000211AE02E
:10428000374C04EB8004645C9CB1304CE478641CD3
:10429000231A2E4C2479641E6218002A09DB304C44
:1042A00004EB8004645C03EB8305274E06EB850575
:1042B000AC544C1CE1B20429E2DB441CE0B20228FD
:1042C000DCDB5CE0002020E000211AE0244C04EB61
:1042D0008004645C9CB11D4CE478641C631A1B4C24
:1042E0002479641C221A002A09DB1D4C04EB80048B
:1042F000645C03EB8305144E06EB8505AC544C1C43
:10430000E1B20429E2DB441CE0B20228DCDB36E047
:10431000002031E000212BE0114C04EB8004645CB0
:1043200024B30A4CE478641E2318084C2479641CD6
:10433000621A002A1ADB0A4C04EB8004645C03EB6B
:1043400083050FE046070020E8080020B0090020A0
:10435000580700203007002050070020C409002023
:1043600048070020F74E06EB8505AC544C1CE1B223
:104370000429D1DB441CE0B20228CBDB00BF00BF24
:1043800070BD30B5024600200021002A2FD0012A3E
:1043900002D0022A3DD116E000200EE0002108E004
:1043A000002300EB8004E84D05EB840463544B1CB0
:1043B000D9B21429F4DB431CD8B20A28EEDB00235F
:1043C000E24C238025E000200EE0002108E00023DD
:1043D00000EB8004DB4D05EB840463544B1CD9B225
:1043E0001429F4DB431CD8B20A28EEDB11E00020CC
:1043F0000CE0002106E00023D54C04EB800463545C
:104400004B1CD9B20429F6DB431CD8B20228F0DBDE
:1044100000BF00BF30BD70B506460024002536B190
:10442000012E1ED0022E44D0032E19D15AE00024B2
:104430000FE0002509E0C74800EB8400405DC44957
:1044400001EB84014855681CC5B2042DF3DB601CE8
:10445000C4B2022CEDDB1422BF49C04803F0F6FAC7
:1044600071E0002422E000251CE004EB8400B54943
:1044700001EB8000405D01280BDD04EB840001EBC3
:104480008000405D04EB8401AF4A02EB8101485596
:1044900006E0002004EB8401AB4A02EB81014855A1
:1044A000681CC5B2142DE0DB601CC4B20A2CDADB38
:1044B00049E0002413E000250DE004EB8400A2494C
:1044C00001EB8000405D04EB84019E4A02EB810118
:1044D0004855681CC5B2142DEFDB601CC4B20A2C11
:1044E000E9DB30E000242BE0002525E004EB84002C
:1044F000944901EB8000405D01280BDD04EB840052
:1045000001EB8000405D04EB84018F4A02EB8101E6
:1045100048550FE004EB84008A4901EB8000405DC0
:10452000012807D18D48007A04EB8401864A02EB0A
:1045300081014855681CC5B2142DD7DB601CC4B27C
:104540000A2CD1DB00BF00BF70BD0022002100BFDC
:1045500020E07C48B430405C012801D10020704745
:10456000082213E002EB8200764B03EB8000405CF4
:10457000012809D1501C00EB800003EB8000405C57
:10458000092801DD0020EAE7501EC2B20A2AE9DD4F
:10459000481CC1B21429DCDB0120E0E70022002125
:1045A00000BF1FE06748405C012801D10020704730
:1045B000012213E002EB8200624B03EB8000405CBF
:1045C000012809D1501E00EB800003EB8000405C05
:1045D000092801DD0020EAE7501CC2B20A2AE9DB03
:1045E000481CC1B21429DDDB0120E0E701460022AE
:1045F000142911DA00290FDD00BF0AE002EB820066
:10460000514B03EB8000405C08B900207047501C00
:10461000C2B20A2AF2DB01E00020F7E70120F5E749
:1046200070B50925002400260320FFF7F4FE1325AA
:1046300033E02846FFF7DAFF68B32E4614E0002483
:104640000EE004EB8400404901EB8001701E085C21
:1046500004EB84013C4A02EB81018855601CC4B222
:104660000A2CEEDB701EC6B2002EE8DC002407E048
:10467000002004EB8401344A02F82100601CC4B21B
:104680000A2CF5DB681CC5B2304800880A302F4977
:104690000880FFF73FFC681EC5B2002DC9DC022070
:1046A000FFF7B9FE70BD0021002200BF23E001EB3F
:1046B0008100244B03EB8000C07C012801D1002045
:1046C0007047122213E001EB81001E4B03EB8000C8
:1046D000805C012809D101EB810003EB8003501CB1
:1046E000185C092801DD0020EAE7501EC2B2002A4A
:1046F000E9DC481CC1B20A29D9DB0120E0E710B58A
:1047000086B0044615480079144988700846C07878
:10471000487008460069C860052C06D0062C2DD0CC
:10472000072C34D0082C4AD13AE0FFF7BCFFB8B1CF
:104730000A480079132820DA08480079401C074904
:1047400008711AE0E8080020200800204607002031
:104750004807002050070020C4090020B0090020AD
:10476000FFF75EFF0020FFF756FE01A8FFF7A0FC51
:10477000142201A9874803F069F920E0FFF70EFF32
:1047800020B18548C078401E8349C87017E0FFF704
:10479000DCFE20B18048C078401C7F49C8700EE024
:1047A0007D480069401C7C4908610869C11700EB1D
:1047B00091718910A0EB8101774A116100BF00BFA0
:1047C00006B010BD74488078734908710846407877
:1047D000C8700846C0680861704730B500230024DF
:1047E000002100226C48006930B1012831D0022834
:1047F0005CD0032873D187E0002127E0002221E06C
:10480000664800EB8100805CD0B16348C078401EF0
:10481000831861480079401E4418002B03DB0A2BE3
:1048200001DA142C01DB002030BD002C08DB03EB87
:1048300083005B4D05EB8000005D08B10020F3E7CD
:10484000501CC2B2042ADBDB481CC1B20229D5DBF2
:1048500089E0002127E0002221E0504800EB8100A0
:10486000805CD0B14C48C078401C431A4A4800795B
:10487000401E8418002B03DB0A2B01DA142C01DB09
:104880000020D1E7002C08DB03EB8300444D05EB4F
:104890008000005D08B10020C6E7501CC2B2042AA7
:1048A000DBDB481CC1B20229D5DB5CE0002128E03B
:1048B000002222E0394800EB8100805CD8B1364804
:1048C000C078401C831A34480079401C441A002BDD
:1048D00003DB0A2B01DA142C02DB0020A4E740E002
:1048E000002C08DB03EB83002D4D05EB8000005D01
:1048F00008B1002098E7501CC2B2042ADADB481C39
:10490000C1B20229D4DB2EE0002127E0002221E001
:10491000224800EB8100805CD0B11F48C078401E67
:1049200043181D480079401C841A002B03DB0A2B16
:1049300001DA142C01DB002076E7002C08DB03EB06
:104940008300174D05EB8000005D08B100206BE788
:10495000501CC2B2042ADBDB481CC1B20229D5DBE1
:1049600001E0002060E700BF01205DE7002100BFFB
:104970000BE001EB81000B4A02EB8000C0780928B4
:1049800001DD01207047481CC1B20A29F1DB00207B
:10499000F8E70000C4090020B00900204807002003
:1049A00020080020E808002008B500201023142269
:1049B000014600905220FDF760FE002010230D22DA
:1049C000014600906220FDF758FE002003463A227F
:1049D000014600907220FDF79DFF0023FD480288EC
:1049E00019467A20FEF739F80020102315221421E9
:1049F00000905220FDF741FE002010230D221421CB
:104A000000906220FDF739FE002003463A2214216F
:104A100000907220FDF77EFFEF480078C0F10B0098
:104A200082B2002314217A20FEF717F80020102309
:104A30001922282100905220FDF71FFE002010238C
:104A40001A22282100906220FDF717FE002003465D
:104A50003A22282100907220FDF75CFFDF480078A1
:104A6000012808D1002010231B22282100907A2041
:104A7000FDF703FE07E000201023112228210090FB
:104A80007A20FDF7FAFD08BD08B5002050231A462C
:104A9000014600901846FDF772FE08BDF8B50024E7
:104AA0000025FFF7F1FFFFF77FFF00BF49E000257A
:104AB00043E004EB8400CA4901EB8000405D38B359
:104AC00004EB840001EB8000405DFF2804D140F23C
:104AD000FF70C44908800FE004EB8400C04901EB7B
:104AE0008000405D172190FBF1F201FB1200BE49EE
:104AF00031F81000BB490880BA480088AE00331D69
:104B0000A600321DA9000090A000FDF703FE12E0F0
:104B1000B648007884420ED1B548007885420AD163
:104B2000B4480088AE00331DA600321DA9000090D5
:104B3000A000FDF7EFFD681CC5B2142DB9DB601CA9
:104B4000C4B2142CB3DBF8BD30B5024600200021FE
:104B500000BF23E000211DE0012A0CD100EB8003FF
:104B6000A54C04EB83035B5C00EB80049C4D05EBE0
:104B7000840463540CE05AB900EB8003984C04EBB6
:104B800083035B5C00EB80049B4D05EB8404635462
:104B90004B1CD9B21429DFDB431CD8B21428D9DB53
:104BA00030BD10B51DE0FBF733FB142190FBF1F293
:104BB00001FB120091490870FBF72AFB142190FBBE
:104BC000F1F201FB12008E4908708C48007800EB6E
:104BD0008000894901EB800089490978405C00B96F
:104BE00000E0E0E700BFFF208449097801EB810184
:104BF000814A02EB8101824A1278885410BD70B557
:104C00000024002500BF0CE0002507E0002004EB95
:104C10008401734A02EB810148556D1C142DF5DBAC
:104C2000641C142CF0DBFBF7F3FA0A2190FBF1F281
:104C300001FB1200401D73490870FBF7E9FA0A21D5
:104C400090FBF1F201FB1200401D6F4908706D48A6
:104C50000078664908706C48007865490870012042
:104C60006849097801EB81015D4A02EB8101664ADE
:104C700012788854574908800A2057490870FBF772
:104C8000C7FA0646C01706EB90708010A6EB8000AE
:104C9000401C5E490870FFF787FE0020FFF754FFB5
:104CA000FFF77FFF0120FFF74FFF70BD4A480078F4
:104CB000704756480078012806D0022818D00328EB
:104CC0002AD0042850D13BE04F48007800280EDD60
:104CD0004C48007800EB8000414901EB80014A48D4
:104CE0000078401E085CFF2801D1012070473BE09E
:104CF0004448007813280EDA42480078401C00EB44
:104D00008000374901EB80003F490978405CFF286B
:104D100001D10120EAE727E03B48007813280EDAAA
:104D20003848007800EB80002D4901EB80013648BF
:104D30000078401C085CFF2801D10120D6E713E071
:104D40003048007800280EDD2E480078401E00EB29
:104D50008000234901EB80002B490978405CFF2843
:104D600001D10120C2E700BF00BF0020BEE710B59F
:104D7000002426480078012806D0022864D00328A1
:104D80007DD004285FD1E3E01F48007800285ADD79
:104D90001C48007800EB8000114901EB80011A48A3
:104DA0000078401E095C0B480088401E81422FD1CC
:104DB0001448007800EB8000094901EB800112489B
:104DC0000078401E085C20B1012403200F490870C0
:104DD00039E01DE07A0700207C07002080070020D2
:104DE000D80900207E070020208B000877070020CC
:104DF0007807002030070020680B00207307002090
:104E00007407002075070020760700207207002035
:104E1000F748007800EB8000F64901EB8001F64886
:104E20000078401E085C60B1F148007800EB80001B
:104E3000F04901EB8001F0480078401E085CFF2833
:104E400001D1012010BDC4E0E948007813283DDA03
:104E5000E7480078401C00EB8000E64901EB800049
:104E6000E5490978415CE5480088401E814212D13D
:104E7000DF480078401C00EB8000DE4900E026E0BF
:104E800001EB8000DC490978405C20B1012404205A
:104E9000DB4908701AE0D6480078401C00EB80001F
:104EA000D44901EB8000D4490978405C60B1D04816
:104EB0000078401C00EB8000CE4901EB8000CE4919
:104EC0000978405CFF2801D10120BBE781E0CA4896
:104ED000007813283BDAC648007800EB8000C5490B
:104EE00001EB8001C4480078401C095CC34800887D
:104EF000401E814210D1BE48007800EB8000BD49C1
:104F000001EB8001BC480078401C085C20B1012402
:104F10000120BB4908701AE0B548007800EB80001A
:104F2000B44901EB8001B4480078401C085C60B1D2
:104F3000AF48007800EB8000AE4901EB8001AE483D
:104F40000078401C085CFF2801D101207AE740E08E
:104F5000A748007800283BDDA5480078401E00EBFC
:104F60008000A44901EB8000A3490978415CA34873
:104F70000088401E814210D19D480078401E00EB01
:104F800080009C4901EB80009B490978405C20B17E
:104F9000012402209A4908701AE095480078401EC2
:104FA00000EB8000934901EB800093490978405C55
:104FB00060B18F480078401E00EB80008D4901EB06
:104FC00080008D490978405CFF2801D1012039E734
:104FD00000BF00BF14B1FFF7CAFE33E7002031E77E
:104FE00070B50024002500260020FFF7ADFDFFF777
:104FF000BEFE00287ED0FFF75CFE00287BD100BFFC
:10500000BAE00025B3E066B904EB84007D4901EB0A
:105010008000405D012804D17B4804707B48057006
:10502000012604EB8400734901EB8000405D0028F9
:1050300016DD04EB840001EB8000405D6F490988B8
:1050400088420DDA04EB84006E4901EB8000405D7C
:10505000401E04EB84016B4A02EB8101485584E059
:1050600004EB8400634901EB8000405D63490988DB
:1050700088427AD162480078012806D002281FD0E1
:1050800003283BD004286FD153E004EB84005D4932
:1050900001EB8000405D401E04EB8401594A02EBA5
:1050A000810148555548017804EB840002EB8002E9
:1050B000681E115450480078401E4F49087053E054
:1050C00004EB84004F4901EB8000405D401E04EB7F
:1050D00084014C4A02EB8101485548480178601C24
:1050E00000EB800002EB8000415541480078401CF5
:1050F0003F4901E0CDE043E0087035E004EB840077
:10510000404901EB8000405D401E04EB84013D4AB4
:1051100002EB810148553948017804EB840002EB29
:105120008002681C115434480078401C32490870D1
:105130001AE004EB8400334901EB8000405D401E1F
:1051400004EB84012F4A02EB810148552B4801787A
:10515000601E00EB800002EB80004155244800787F
:10516000401E2349087000BF00BF681CC5B2142D43
:10517000FFF649AF601CC4B2142CFFF642AF8AE0C0
:105180001E480088401C1D49088021480078C0F155
:105190000A002049085C19490988884208DC1C4833
:1051A0000078012804DD1A480078401E184908706C
:1051B000FFF7FAFB12480078012806D002282BD00E
:1051C00003283CD0042860D14CE00C480178084802
:1051D000007800EB80000B4A02EB80020648007862
:1051E000401E115404480078401E034908704CE0EA
:1051F00075070020D8090020760700207A070020D4
:1052000072070020680B0020770700207807002035
:105210007C070020680700207348017873480078F5
:10522000401C00EB8000724A02EB8000714A127849
:1052300081546E480078401C6C49087025E06A482B
:1052400001786A48007800EB8000694A02EB80022E
:1052500068480078401C115466480078401C654935
:10526000087012E06048017860480078401E00EB4A
:1052700080005F4A02EB80005E4A127881545B48EE
:105280000078401E5949087000BF00BFFFF789FC35
:1052900001E0002070BD0120FFF756FC0120F9E776
:1052A000F8B50020009000260024504800785249AC
:1052B000097888420DD1514800784E4909788842D2
:1052C00003DD03204E49087016E001204C490870A8
:1052D00012E0484800784949097888420CD146488C
:1052E000007842490978884203DD02204449087069
:1052F00002E00420424908701CE00126FAF788FF0A
:105300000546C01705EB90708010A5EB8000401C8F
:105310003B49087001213A480078401E0DF8001002
:10532000002405E01DF8040000B90026601CC4B28A
:10533000042CF7DBFFF71BFD08B9002EDDD0F8BD0C
:1053400010B53048007830490978884213DD2F487D
:10535000007808B1FFF7A4FFFFF742FE28B92C48F8
:105360000088FDF749F8FFF74AFCFFF797FB00209C
:105370002449087004E023480078401C2149087043
:1053800010BD012807D11E49097803292BD001211E
:105390001B4A117027E0022807D119490978012911
:1053A00021D00321164A11701DE0042807D11449A9
:1053B0000978042917D00221114A117013E003283B
:1053C00007D10F49097802290DD004210C4A117028
:1053D00009E0072807D10D49097809B9012100E042
:1053E00000210A4A117070477A07002075070020D3
:1053F000680B002076070020730700207407002048
:1054000072070020810700207C0700208007002011
:1054100030070020F8B50024002500205023512239
:10542000014600901046FDF7AAF900BF3BE00025B9
:1054300035E0F84800EB8400405DC8B1142005EB6E
:1054400085039B061A0E04EB84039B06190EF14B91
:1054500003EB840300905B5D5B1E03EBC30606EB6E
:105460000313ED4E06EB43101423FDF7B3FB14E0DA
:10547000EA48008805EB8506B60006F1140304EB44
:105480008406B60006F1140205EB8506B10004EBB4
:1054900084060090B000FDF73DF9681CC5B2042DEC
:1054A000C7DB601CC4B2042CC1DBF8BD70B5FAF7D1
:1054B000AFFE0646C01706EB90708010A6EB80008A
:1054C000C4B2FAF7A5FE0646C01706EB907080102E
:1054D000A6EB8000C5B216E0FAF79AFE0646C017A2
:1054E00006EB90708010A6EB8000C4B2FAF790FE35
:1054F0000646C01706EB90708010A6EB8000C5B280
:10550000022000F00AFCC34800EB8400405D002844
:10551000E2D1C3480088642190FBF1F201FB120044
:105520005F2805DA0120BB4901EB8401485504E0FE
:105530000220B84901EB8401485570BD2DE9F041C6
:105540000746002400250026A046012F55D100BFA4
:1055500050E003264AE0354643E0AE4800EB8400C5
:10556000805DB8B9AB4800EB8401681E085C70B37D
:10557000A84800EB8401681E085CA64901EB840181
:1055800088550021A34800EB8402681E11544FF097
:10559000010824E09F4800EB8401681E085C9D49D7
:1055A00001EB8401895D884212D19A4800EB8400A6
:1055B000805D401C974901EB840188550021954886
:1055C00000EB8402681E11544FF001080BE006E066
:1055D000904800EB8401681E085C00B103E0681E7F
:1055E000C5B2002DB9DC00BF701EC6B2002EB2DC01
:1055F000601CC4B2042CACDB00E1022F55D10024A6
:1056000050E000264AE0354643E0824800EB840043
:10561000805DB8B97F4800EB8401681C085C70B3FA
:105620007C4800EB8401681C085C7A4901EB84012A
:1056300088550021774800EB8402681C11544FF014
:10564000010824E0734800EB8400815D714800EBA1
:105650008402681C105C814212D16E4800EB840009
:10566000805D401C6B4901EB84018855002169482D
:1056700000EB8402681C11544FF001080BE006E0B7
:10568000644800EB8401681C085C00B103E0681CFE
:10569000C5B2032DB9DB00BF701CC6B2032EB2DB4E
:1056A000601CC4B2042CACDBA8E0032F52D100254F
:1056B0004DE0032647E0344640E0564800EB8600C4
:1056C000405DA8B9601E534901EB8000405D90B376
:1056D000601E01EB8000405D01EB86014855002112
:1056E000601E4C4A02EB800041554FF0010823E058
:1056F000484800EB8600415D601E464A02EB800090
:10570000405D814210D1104600EB8600405D401C98
:10571000114601EB860148550021601E02EB800016
:1057200041554FF001080BE0601E3A4901EB800043
:10573000405D00B104E0FFE7601EC4B2002CBCDC99
:1057400000BF701EC6B2002EB5DC681CC5B2042DA9
:10575000AFDB53E0042F51D100254DE0002647E098
:10576000344640E02B4800EB8600405DA8B929494B
:10577000601C01EB8000405D90B3601C01EB800079
:10578000405D01EB860148550021224A601C02EB76
:10579000800041554FF0010823E01E4800EB8600D1
:1057A000415D1C4A601C02EB8000405D814210D1CB
:1057B000104600EB8600405D401C114601EB86015F
:1057C00048550021601C02EB800041554FF0010854
:1057D0000BE01049601C01EB8000405D00B104E06B
:1057E000FFE7601CC4B2032CBCDB00BF701CC6B258
:1057F000032EB5DB681CC5B2042DAFDBB8F1010F79
:1058000001D1FFF753FEBDE8F0810020002100BF69
:1058100015E00000F80C00204E8B00083007002037
:105820003C070020002106E00022064B03EB80032A
:105830005A544A1CD1B20429F6DB421CD0B20428C7
:10584000F0DB7047F80C002010B50446012C0AD19B
:10585000012240F22551F94801F013F80121F748DF
:1058600001F003F80AE04CB9002240F22551F34858
:1058700001F007F80021F14800F0F7FF10BD10B566
:1058800086B004460121082000F0BCFE01218804F6
:1058900000F0C5FE03208DF816004FF48060ADF8CF
:1058A000140018208DF8170005A9E54800F0EEFB5C
:1058B0004FF40060ADF8140004208DF8170005A91E
:1058C000DF4800F0E3FB01940020ADF80800ADF8DC
:1058D0000A00ADF80C00ADF810000C20ADF80E0079
:1058E00001A9D64800F035FF4FF4A06000F000FB9E
:1058F00027208DF8000001208DF801008DF80200AE
:105900008DF80300684600F0F8FA0020FFF79CFFCE
:1059100006B010BD10B540F22551C84801F096F808
:10592000F0B12021C54801F088F840F22551C34864
:1059300001F0B6F8C14801F009F8C4B2C1480078D6
:10594000142805DABF480078401CBE49087002E000
:105950000120BC490870BB480078401EBA490C546D
:1059600010BD70B504460D462946204600F0EAFFFA
:1059700000BF8021204601F053F80028F9D070BD07
:105980002DE9F04107460D461646002405E0295D45
:105990003846FFF7E6FF601CC4B2B442F7DB00BF35
:1059A0004021384601F03CF80028F9D0BDE8F081EC
:1059B00070B506460C46002500BF615D3046FFF716
:1059C000D0FF6D1C605D0028F7D100BF402130463C
:1059D00001F026F80028F9D070BD2DE9F041054608
:1059E0000C46260AE7B23146284600F0ABFF00BF5E
:1059F0008021284601F014F80028F9D039462846BD
:105A000000F0A0FF00BF8021284601F009F800281F
:105A1000F9D0BDE8F08138B5002400238BA21946E7
:105A20001846FCF7EBFF002003463A22014600909F
:105A30001020FCF76FFF002385A228211846FCF7F1
:105A4000DDFF002003463A22282100901020FCF7B9
:105A500061FF00BF17E07B480078844209DA00202C
:105A6000794900900A5DE00000231421FCF752FF01
:105A700007E000200090E000002320221421FCF722
:105A800049FF601CC4B2142CE5DB00242FE07148F0
:105A90000078844209DA00206F4900900A5DE00036
:105AA00000233C21FCF736FF1FE06A4909788C424D
:105AB00013D16A490988642291FBF2F000EBD0719E
:105AC0004910A0EB410141B100200090E00000230B
:105AD0005F223C21FCF71EFF07E000200090E00061
:105AE000002320223C21FCF715FF601CC4B2142CBB
:105AF000CDDB38BD70B50446002500267F2C11DBB8
:105B0000882C0FDC5348007814280ADAA4F14F00DF
:105B10005149504A127888544E480078401C4D49EB
:105B20000870B4E0652C1BDB7E2C19DC494800783A
:105B30001428F6DA4A480078012806D1A4F1240096
:105B40004549444A1278885404E0201F4249414A9A
:105B5000127888543F480078401C3E49087096E00F
:105B6000892C3DDB00262046902C1CD008DCA0F1BF
:105B70008900062821D2DFE800F00C200E10121454
:105B8000912812D0922812D09E2812D0A22814D187
:105B900011E0212613E0232611E024260FE025261C
:105BA0000DE026260BE0282609E0292607E02A2614
:105BB00005E0402603E05E2601E0002600BF00BFAE
:105BC000002E64D023480078142860DA2248214946
:105BD000097846541F480078401C1E49087056E05A
:105BE000082C0ED11B480078142850DA20211A48BE
:105BF000184A1278815417480078401C15490870DB
:105C000045E0052C0ED11348007800283FDD1148EF
:105C10000078401E0F49087045200F490D4A127840
:105C2000885434E0062C1DD100200A490870452113
:105C30000948084A1278815429E0000000480040D1
:105C4000000C014084070020080D0020525800007D
:105C500054580000850700201C0D00203C07002040
:105C600082070020072C12D1002009490860002576
:105C700006E00848415D0848FFF773FE681CC5B29E
:105C8000064800788542F4DB01200149086070BDB8
:105C9000B40122421C0D002000480040850700206E
:105CA00010B56FF0040000F072F92E4800682E491C
:105CB000B0FBF1F02D4908700846007800EB400178
:105CC000C1EBC0104FF6FF7101EAC00028490880FF
:105CD00010BD0146254A12784A434FF0E0235A612D
:105CE00000229A611A46126942F001021A6100BF4D
:105CF0004FF0E022106900F001021AB100F4803286
:105D0000002AF5D04FF0E022126922F001024FF094
:105D1000E0231A6100229A6170470146144A1288F2
:105D20004A434FF0E0235A6100229A611A461269F1
:105D300042F001021A6100BF4FF0E022106900F04A
:105D400001021AB100F48032002AF5D04FF0E022AF
:105D5000126922F001024FF0E0231A6100229A61D9
:105D6000704700001C00002000127A008607002007
:105D700088070020014600BF704700BF474A1288CD
:105D800002F04002002AF9D0C2B2444B1B1D1A8017
:105D9000704710B586B00446012144F2050000F0BA
:105DA00031FC4FF40070ADF8140003208DF816009C
:105DB00018208DF8170005A9394800F067F94FF44D
:105DC0008060ADF8140004208DF8170005A9344850
:105DD00000F05CF925208DF8000003208DF801000B
:105DE0008DF8020001208DF80300684600F085F868
:105DF00001940020ADF80800ADF80A00ADF80C00E1
:105E0000ADF810000C20ADF80E0001A9234800F0F9
:105E1000A0FC012240F22551204800F032FD012172
:105E20001E4800F022FD06B010BD10B540F225510D
:105E30001A4800F00BFE70B32021184800F0FDFD59
:105E400040F22551154800F02BFE144800F07EFD6D
:105E5000C4B2232C05D100201249087012490870E1
:105E600010BD212C02D101200E4908700D48007888
:105E700088B90E480C49097844540B480078401CF6
:105E80000949087008460078142804DB00200870CF
:105E900003200449087000BFE2E700000038014019
:105EA000000801409007002091070020300D0020DD
:105EB0000948804709480047FEE7FEE7FEE7FEE79E
:105EC000FEE7FEE7FEE7FEE7FEE7FEE704480549DA
:105ED000054A064B70470000D71F00083101000833
:105EE000880E0020881400208810002088100020D0
:105EF00031490143314A1160704770B500210023D8
:105F00000F22C47804B32D4C246804F4E064C4F573
:105F1000E064210AC1F10403CA40447804FA03F1A1
:105F20008478144021430901254C0678A155047852
:105F300004F01F050124AC4005786D11AD0005F19A
:105F4000E025C5F8004109E0047804F01F050124AC
:105F5000AC401C4D0678761145F8264070BD1A4AB3
:105F60000A400243154B1B1F1A60704739B1134A90
:105F7000121D12680243114B1B1D1A6006E00F4AE6
:105F8000121D126882430D4B1B1D1A6070470428B6
:105F900008D14FF0E021096941F004014FF0E022FF
:105FA000116107E04FF0E021096921F004014FF091
:105FB000E0221161704700000000FA050CED00E0DE
:105FC00000E400E080E100E080FFFF1F10B5044620
:105FD000CC48844208D10121042000F02DFB00218F
:105FE000042000F029FB46E0C748844208D1012183
:105FF000082000F021FB0021082000F01DFB3AE002
:10600000C248844208D10121102000F015FB002174
:10601000102000F011FB2EE0BD48844208D1012180
:10602000202000F009FB0021202000F005FB22E0E9
:10603000B848844208D10121402000F0FDFA002137
:10604000402000F0F9FA16E0B348844208D101215B
:10605000802000F0F1FA0021802000F0EDFA0AE043
:10606000AE48844207D10121801500F0E5FA0021F5
:10607000A01500F0E1FA10BD10B50121084600F0AE
:10608000DBFA0021012000F0D7FA10BD2DE9F04124
:10609000024600250026002000230024002791F856
:1060A00003C00CF00F0591F803C00CF0100CBCF10C
:1060B000000F03D091F802C04CEA050591F800C02A
:1060C000BCF1000F31D0146800202BE04FF0010C20
:1060D0000CFA00F3B1F800C00CEA03069E4220D18E
:1060E00083004FF00F0C0CFA03F7BC4305FA03FCD6
:1060F0004CEA040491F803C0BCF1280F06D14FF01C
:10610000010C0CFA00FCC2F814C00AE091F803C0BC
:10611000BCF1480F05D14FF0010C0CFA00FCC2F89D
:1061200010C0401C0828D1D31460B1F800C0BCF1E5
:10613000FF0F34DD546800202EE000F1080C4FF012
:10614000010808FA0CF3B1F800C00CEA03069E42FD
:1061500021D183004FF00F0C0CFA03F7BC4305FA72
:1061600003FC4CEA040491F803C0BCF1280F05D1EC
:1061700000F1080C08FA0CF8C2F8148091F803C07A
:10618000BCF1480F07D100F1080C4FF0010808FAE4
:106190000CF8C2F81080401C0828CED35460BDE82B
:1061A000F0814FF6FF710180022181700421C170DE
:1061B00070470246002093680B400BB1012000E0BD
:1061C000002070470146886880B270470246002070
:1061D000D3680B400BB1012000E00020704701465E
:1061E000C86880B2704701617047416170470AB169
:1061F000016100E041617047C16070474FF4803237
:106200000A438261816182618269826970470246C4
:106210000020434B18684FF68073184040EA021084
:1062200008433F4B186070473E49C8617047F0B55E
:106230000A46002300240021002500F00046B6F1A4
:10624000004F02D1364EF16901E0354E7168C0F35E
:10625000034583B200F44016B6F5401F08D121F083
:1062600070612F4E766826F070662D4F7E6012E0CA
:1062700000F48016B6F5801F06D1032606FA05F451
:10628000A14341F0706106E0460D360103FA06F6BF
:10629000B14341F0706122B1460D360103FA06F6B2
:1062A000314300F00046B6F1004F02D11C4EF161BF
:1062B00001E01B4E7160F0BD30B500228B071C0F52
:1062C0000F2303FA04F2164B08338C1053F82430D2
:1062D0009343134C08348D1044F8253023468C101A
:1062E00053F824308C07240F00FA04F423430C4C99
:1062F00008348D1044F8253030BD0A49DC3108607F
:106300007047000000080140000C014000100140EF
:106310000014014000180140001C01400020014011
:106320000000014000002042DF48006840F001000A
:10633000DD49086008464068DC490840DA494860A1
:1063400008460068DA490840D749086008460068EE
:1063500020F4802008600846406820F4FE00486071
:106360004FF41F0088607047CF49096821F48031DD
:10637000CD4A11601146096821F480211160B0F501
:10638000803F03D0B0F5802F0ED106E0C6490968E2
:1063900041F48031C44A116007E0C349096841F4FF
:1063A000A021C14A116000E000BF00BF704710B5D6
:1063B00001460022002300204A11012A02D1BA4CD2
:1063C000236806E0022A02D1B74C236A01E0B64CEA
:1063D000636A01F01F02012494401C400CB10120AB
:1063E00000E0002010BD38B50020009000240025FA
:1063F00000BF3120FFF7DBFF05460098401C0090EE
:106400000098B0F5A06F01D0002DF2D03120FFF739
:10641000CEFF08B1012400E00024204638BD01462B
:106420000020A14A106820F0F80040EAC100106086
:106430007047A04908607047024600209A4B586890
:1064400020F47C1042EA01031843974B58607047D0
:1064500098490866704701460020934A506820F02A
:1064600003000843506070478F48406800F00C00FC
:106470007047014600208C4A506820F0F000084325
:106480005060704701460020874A506820F4E06061
:1064900008435060704701460020834A506820F44A
:1064A000605040EAC1005060704729B17E4A527A7C
:1064B00002437D4B5A7204E07B4A527A82437A4B04
:1064C0005A7270477B49D8310860704701460020F6
:1064D000754A506820F440400843506070470021DE
:1064E000714A20321170704A82F82010012802D0BF
:1064F00004280AD104E001216B4A2032117005E022
:106500000521694A2032117000E000BF00BF7047CA
:106510006949086070476449096A0143624A116227
:106520007047654944390860704730B50021002242
:10653000002400235C4D6D6805F00C0121B1042995
:1065400005D0082923D105E05C4D056022E05B4DB4
:1065500005601FE0544D6D6805F47012524D6D6872
:1065600005F48034022505EB92421CB9544D554385
:1065700005600BE04C4D6D6805F400351DB1504DC4
:106580005543056002E04D4D5543056002E04B4D1B
:10659000056000BF00BF444D6D6805F0F0010909BA
:1065A000484D6B5C0568DD4045603F4D6D6805F406
:1065B000E061090A434D6B5C4568DD4085603A4DFA
:1065C0006D6805F46051C90A3E4D6B5C4568DD405D
:1065D000C560354D6D6805F44041890B3A4D6B5CE3
:1065E000C568B5FBF3F5056130BD29B12E4A526986
:1065F00002432D4B5A6104E02B4A526982432A4BD5
:106600005A61704729B1284A92690243264B9A6120
:1066100004E0254A92698243234B9A61704729B16D
:10662000214AD2690243204BDA6104E01E4AD26952
:1066300082431D4BDA61704729B11B4AD26802437D
:10664000194BDA6004E0184AD2688243164BDA60CC
:10665000704729B1144A12690243134B1A6104E0CE
:10666000114A12698243104B1A617047124940392E
:10667000086070470F49C86470470B49C87170477C
:106680000948406A40F080700749486270470146F7
:106690000020054A92680A400AB1012000E000206B
:1066A0007047014988727047001002400000FFF8EF
:1066B000FFFFF6FE000042428004424200127A00D0
:1066C00000093D0092070020A207002010B50446F3
:1066D000FB48844209D101218803FFF7ADFF002167
:1066E0004FF48040FFF7A8FF32E0F648844209D11A
:1066F00001214804FFF7ADFF00214FF40030FFF700
:10670000A8FF25E0F048844209D101218804FFF761
:10671000A0FF00214FF48020FFF79BFF18E0EB481B
:10672000844209D10121C804FFF793FF00214FF4EF
:106730000020FFF78EFF0BE0E548844208D10121DD
:106740000805FFF786FF00214FF48010FFF781FF57
:1067500010BD2DE9F04786B005460E460024A2463E
:1067600000BFA1460027B08900B100BF2F462C8A88
:106770004CF6FF700440F08804432C82AC894EF63E
:10678000F3100440B08831890843718908430443F9
:10679000AC81AC8A4FF6FF400440B0890443AC8220
:1067A00001A8FFF7C2FEC648874202D1DDF810A05B
:1067B00001E0DDF80CA0A88900F4004040B10AEB2C
:1067C000CA0000EB0A1031684900B0FBF1F807E09D
:1067D0000AEBCA0000EB0A1031688900B0FBF1F83F
:1067E0006420B8FBF0F004012009642101FB10894A
:1067F000A88900F4004040B1322000EBC900B0FB92
:10680000F1F000F00700044308E0322000EB09102B
:106810006421B0FBF1F000F00F0004432C8106B0BE
:10682000BDE8F0874FF41651016000218180C180DE
:1068300001810C21418100218181704710B5024600
:106840000020108A4FF2FF0318400B884C88234326
:106850008C882343CC8823431843108210BD002129
:10686000018041808180C180704721B1828942F4DA
:106870000052828104E082894DF6FF731A408281C2
:106880007047F0B50346002400260025002040F69E
:106890006A17B94200D100BF1846C1F3421401F093
:1068A0001F06012707FA06F5012C01D10C3004E080
:1068B000022C01D1103000E014301AB107682F43C8
:1068C000076002E00768AF430760F0BD1AB1838A32
:1068D0000B43838202E0838A8B4383827047028A60
:1068E0004FF6F0731A400282028A0A43028270470E
:1068F00082894FF2FF731A40828182890A43828122
:10690000704721B1828942F00202828104E08289CB
:106910004FF6FD731A4082817047028A4FF6DF738B
:106920001A400282028A0A430282704721B1028A17
:1069300042F48042028204E0028A4BF6FF731A405E
:1069400002827047C1F3080282807047014688883E
:10695000C0F308007047818941F0010181817047CF
:10696000028BD2B20283028B42EA01220283704779
:10697000028B02F47F420283028B0A430283704738
:1069800021B1828A42F02002828204E0828A4FF69C
:10699000DF731A408282704721B1828A42F010026E
:1069A000828204E0828A4FF6EF731A408282704737
:1069B00021B1828A42F00802828204E0828A4FF684
:1069C000F7731A408282704721B1828942F40042F3
:1069D000828103E08289C2F30E028281704721B175
:1069E000828A42F40062828204E0828A4FF2FF735C
:1069F0001A4082827047828A4FF6FB731A40828265
:106A0000828A0A438282704721B1828A42F002025E
:106A1000828204E0828A4FF6FD731A4082827047B8
:106A200002460020B1F5007F00D100BF13880B4063
:106A30000BB1012000E00020704701F40072B2F5B4
:106A4000007F00D100BFCA430280704770B5024684
:106A5000002400230025002040F66A16B14200D130
:106A600000BFC1F3421501F01F03012606FA03F32C
:106A7000012D02D19689334006E0022D02D1168AFB
:106A8000334001E0968A33400C12012606FA04F4E2
:106A90001688344013B10CB1012000E0002070BD15
:106AA00010B50022002340F66A14A14200D100BFB5
:106AB0000A1201249440A3B2DC43048010BD0000FC
:106AC000003801400044004000480040004C0040B5
:106AD0000050004010B50446FE48844208D1012110
:106AE000C014FFF7A9FD0021E014FFF7A5FDC4E0E5
:106AF000B4F1804F08D101210846FFF7AAFD00211B
:106B00000120FFF7A6FDB8E0F348844208D1012137
:106B10000220FFF79EFD00210220FFF79AFDACE066
:106B2000EE48844208D101210420FFF792FD0021A4
:106B30000420FFF78EFDA0E0E948844208D101213E
:106B40000820FFF786FD00210820FFF782FD94E072
:106B5000E448844208D101211020FFF77AFD00218A
:106B60001020FFF776FD88E0DF48844208D101213C
:106B70002020FFF76EFD00212020FFF76AFD7CE05A
:106B8000DA48844208D101214014FFF755FD002165
:106B90006014FFF751FD70E0D548844209D101210E
:106BA000C804FFF749FD00214FF40020FFF744FD22
:106BB00063E0D048844209D101210805FFF73CFD7C
:106BC00000214FF48010FFF737FD56E0CA48844299
:106BD00009D101214805FFF72FFD00214FF40010D6
:106BE000FFF72AFD49E0C548844208D10121402031
:106BF000FFF72FFD00214020FFF72BFD3DE0C048AF
:106C0000844208D101218020FFF723FD002180204C
:106C1000FFF71FFD31E0BB48844208D101218015F8
:106C2000FFF717FD0021A015FFF713FD25E0B6487B
:106C3000844209D101210804FFF7FEFC00214FF432
:106C40008030FFF7F9FC18E0B048844209D10121F7
:106C50004804FFF7F1FC00214FF40030FFF7ECFC93
:106C60000BE0AB48844208D101218804FFF7E4FC23
:106C700000214FF48020FFF7DFFC10BD00220288C6
:106C8000944B98420ED0994B98420BD0B0F1804F64
:106C900008D0914B984205D0904B984202D0904B2F
:106CA000984204D14FF68F731A404B881A438D4B8C
:106CB000984207D08C4B984204D04FF6FF431A40BD
:106CC000CB881A4302808B8883850B880385814B90
:106CD00098420BD0854B984208D08B4B984205D0F8
:106CE0008A4B984202D08A4B984201D10B7A038694
:106CF00001238382704770B5002400220023058C95
:106D00004FF6FE7635400584028C8388048B4FF65F
:106D10008F752C40B51E2C400D882C43751E2A40C3
:106D20000D892A434D882A436A4DA8420BD06F4DE6
:106D3000A84208D0744DA84205D0744DA84202D094
:106D4000734DA84213D14FF6F7752A404D892A4357
:106D50004FF6FB752A408D882A434FF6FF652B407E
:106D60004FF6FF552B408D892B43CD892B438380D4
:106D70000483CD888586028470BD70B5002400220E
:106D80000023058C4FF6EF7635400584028C83880E
:106D9000048B48F6FF752C404FF6FF452C400D88BC
:106DA0004FF6FF7606EA05252C434FF6DF752A409D
:106DB0000D8906EA05152A434D8806EA05152A437A
:106DC000444DA84202D0494DA8421DD14FF67F75CF
:106DD0002A404D894FF6FF7606EA05152A434FF6FD
:106DE000BF752A408D8806EA05152A434FF6FF3500
:106DF0002B404FF2FF752B408D8906EA85052B430A
:106E0000CD8906EA85052B4383800483CD880587D9
:106E1000028470BD70B5002400220023058C4FF65B
:106E2000FF6635400584028C8388848B4FF68F750E
:106E30002C404FF6FC752C400D882C434FF6FF5527
:106E40002A400D894FF6FF7606EA05252A434D882C
:106E500006EA05252A431F4DA84202D0234DA84229
:106E60001DD14FF2FF752A404D894FF6FF7606EA95
:106E700005252A434FF6FF352A408D8806EA052569
:106E80002A434EF6FF752B404DF6FF752B408D893A
:106E900006EA05152B43CD8906EA05152B438380A9
:106EA0008483CD888587028470BD70B5002200235D
:106EB0000024058C4EF6FF7635400584038C8488CB
:106EC000828B48F6FF752A404FF6FF452A400D8811
:106ED00020E00000002C01400004004000080040B9
:106EE000000C00400010004000140040003401403D
:106EF000004C014000500140005401400018004087
:106F0000001C0040002000400040014000440140BF
:106F1000004801404FF6FF7606EA05252A434DF664
:106F2000FF752B400D8906EA05352B434D8806EA8F
:106F300005352B43FA4DA84202D0FA4DA84208D19C
:106F40004BF6FF752C408D894FF6FF7606EA8515C6
:106F50002C4384808283CD88A0F84050038470BD88
:106F6000828B4FF2FF331A408283828B4FF6FF737E
:106F700003EA01231A4382837047F0B50C46154695
:106F8000002200210026078C4EF6FF7C07EA0C0742
:106F90000784828B018C4FF6FF7707EA043640F6B0
:106FA000FF473A404FF6FF7707EA05273A434FF687
:106FB000FF7707EA03373A43D94FB8420ED0D94F8B
:106FC000B8420BD0B0F1804F08D0D74FB84205D0AF
:106FD000D64FB84202D0D64FB84206D14DF6FF7711
:106FE000394046F48057394305E047F6FF573940AA
:106FF00044F48057394382830184F0BD828B4FF67D
:10700000F3731A408283828B0A4382837047F0B500
:107010000C461546002200210026078C4FF6FF6C17
:1070200007EA0C070784828B018C4FF6FF7707EA8B
:1070300004264FF60C773A404FF6FF7707EA03171E
:107040002F433A43B64FB8420ED0B64FB8420BD09A
:10705000B0F1804F08D0B44FB84205D0B34FB8421A
:1070600002D0B34FB84206D14FF6FF57394046F42D
:107070008077394305E04FF2FF57394044F4807779
:10708000394382830184F0BD028B4FF2FF331A40F3
:107090000283028B4FF6FF7303EA01231A43028334
:1070A0007047F0B50C461546002200210026078CDB
:1070B0004FF6EF7C07EA0C070784028B018C4FF632
:1070C000FF7707EA041640F6FF473A404FF6FF778E
:1070D00007EA03373A434FF6FF7707EA05273A43B3
:1070E0008F4FB8420ED08F4FB8420BD0B0F1804FC7
:1070F00008D08D4FB84205D08C4FB84202D08C4F8B
:10710000B84206D14FF6DF77394046F010073943D1
:1071100005E04FF65F77394044F0100739430283AA
:107120000184F0BD028B4FF6F3731A400283028B89
:107130000A4302837047F0B50C4615460022002131
:10714000068C4FF6FE773E400684028B018C4FF68C
:107150000C7632407E1C06EA03162E433243704EF4
:10716000B0420ED06F4EB0420BD0B0F1804F08D07D
:107170006D4EB04205D06D4EB04202D06C4EB04262
:1071800006D14FF6FD76314044F00106314305E06B
:107190004FF6F576314044F0010631430283018415
:1071A000F0BD70B505460C465D4885420ED05D4881
:1071B00085420BD0B5F1804F08D05B48854205D0A1
:1071C0005A48854202D05A48854200D100E000BFAB
:1071D000208850B92389A28861882846FFF7ABFF31
:1071E000E1882846FFF79EFF25E0208804280AD181
:1071F0002389A28861882846FFF753FFE188284643
:10720000FFF742FF17E0208808280AD12389A288C7
:1072100061882846FFF7FBFEE1882846FFF7EEFE6F
:1072200009E02389A28861882846FFF7A6FEE18845
:107230002846FFF795FE70BD2DE9F04105460C4646
:1072400000260127608808B9022600E00026A088F1
:10725000012801D1022700E001272088A0B9238955
:10726000A28861882846FFF766FFE1882846FFF775
:1072700059FF23893A4631462846FFF712FFE18835
:107280002846FFF701FF13E02389A288618828467A
:10729000FFF707FFE1882846FFF7F6FE23893A4605
:1072A00031462846FFF747FFE1882846FFF73AFFB7
:1072B000BDE8F0810A884B881A438B881A43CB8833
:1072C0001A430B891A434B891A438B891A43A0F836
:1072D000442070474FF6FF71818000210180C180FA
:1072E0004180017270470021018041808180C1800E
:1072F000018141818181C1817047002101804180EC
:10730000012181800021C18001817047002101801D
:1073100041808180C180018141818181704700006D
:10732000002C0140003401400004004000080040EF
:10733000000C004021B1028842F00102028004E00A
:1073400002884FF6FE731A400280704731B1B0F8E0
:10735000442042F40042A0F8442005E0B0F8442064
:10736000C2F30E02A0F8442070471AB183890B4380
:10737000838102E083898B438381704781827047D8
:1073800041EA0203A0F8483070471AB183890B43E1
:10739000838102E083898B438381704701894FF6A3
:1073A000F8721140018170470A46002101894FF6A9
:1073B0008F73194011430181704730B504460D4663
:1073C00029462046FFF7F0FF208940F00700208182
:1073D00030BD2DE9F04104460D4616461F46602D8E
:1073E00006D13B46012231462046FFF75AFE05E012
:1073F0003B46012231462046FFF79DFE29462046A6
:10740000FFF7D2FF208940F007002081BDE8F0811E
:1074100030B50C4600210189C9B24FF6FF7505EA67
:107420000325154325432943018130BD2DE9F04152
:1074300005460E4617469846002443463A463146CE
:107440002846FFF7E5FF2C894FF6F870044044F01A
:1074500007044FF68F70044044F070042C81BDE89F
:10746000F081F0B504460D4616461F463B463246AF
:1074700029462046FFF7CCFF208940F48040208138
:10748000F0BD0185828270470A46002101884FF6CF
:107490008F731940114301807047F0B50C461546B3
:1074A0001E460021002200230189028B038C4FF627
:1074B000F877394021434FF6FC473A4040F2011734
:1074C0003A434FF6DD773B404FF6FF7707EA061762
:1074D0002F433B43018102830384F0BD0A46002110
:1074E000018B4FF68F7319401143018370470A4691
:1074F0000021018B48F6FF7319404FF6FF7303EA32
:1075000002231943018370470A460021818B4FF6FD
:107510008F7319401143818370470A460021818B84
:1075200048F6FF7319404FF6FF7303EA022319432D
:107530008183704721B1028842F08002028004E01A
:1075400002884FF67F731A400280704721B182880B
:1075500042F00402828004E082884FF6FB731A40F6
:107560008280704721B1828842F00802828004E064
:1075700082884FF6F7731A408280704721B1828863
:1075800042F00102828004E082884FF6FE731A40C6
:10759000828070470A460021018B4FF6F77319402D
:1075A0001143018370470A460021018B4FF2FF739C
:1075B00019404FF6FF7303EA022319430183704712
:1075C0000A460021818B4FF6F773194011438183DE
:1075D00070470A460021818B4FF2FF7319404FF626
:1075E000FF7303EA02231943818370470A4600218F
:1075F000018B4FF6FB7319401143018370470A4614
:107600000021018B4FF6FF3319404FF6FF7303EA59
:1076100002231943018370470A460021818B4FF6EC
:10762000FB7319401143818370470A460021818B07
:107630004FF6FF3319404FF6FF7303EA0223194355
:10764000818370470A460021018B4FF67F731940F2
:107650001143018370470A460021018BC1F30E01DB
:107660004FF6FF7303EA02231943018370470A466A
:107670000021818B4FF67F7319401143818370473E
:107680000A460021818BC1F30E014FF6FF7303EA16
:1076900002231943818370470A460021018C4FF66B
:1076A000FD7319401143018470470A460021018C83
:1076B0004FF6F77319401143018470470A460021C1
:1076C000018C4FF6DF7319404FF6FF7303EA021384
:1076D0001943018470470A460021018C4FF67F73DD
:1076E00019404FF6FF7303EA0213194301847047F0
:1076F0000A460021018C4FF6FF5319404FF6FF73E5
:1077000003EA02231943018470470A460021018CD1
:107710004FF2FF7319404FF6FF7303EA0223194338
:10772000018470470A460021018C4DF6FF73194011
:107730004FF6FF7303EA023319430184704730B5F3
:10774000002301248C40A3B2048C9C430484048C49
:1077500002FA01F5ADB22C43048430BD30B50023EC
:1077600004248C40A3B2048C9C430484048C02FA4D
:1077700001F5ADB22C43048430BD70B50346002042
:1077800000241846183001258D40ACB21D8CA5434D
:107790001D8409B1082909D100EB6100056825F0B5
:1077A000700505600568154305600EE00D1FC5F303
:1077B0004E052844056825F4E045056005684FF648
:1077C000FF7606EA02263543056070BD21B10288C6
:1077D00042F00202028004E002884FF6FD731A4074
:1077E0000280704721B1028842F00402028004E066
:1077F00002884FF6FB731A400280704721B18288DD
:1078000042F08002828004E082884FF67F731A4043
:107810008280704702884FF6F7731A400280028810
:107820000A430280704782884FF68F731A40828025
:1078300082880A438280704702894FF6F8731A40A3
:10784000028102890A430281704702894FF67F73E1
:107850001A40028102890A4302817047818470477D
:10786000818570478186704701877047818770479F
:10787000A0F84010704702884FF6FF431A4002807C
:1078800002880A43028070470146888E704701468D
:10789000088F70470146888F70470146B1F8400055
:1078A00070470146888C70470146088D7047024634
:1078B0000020138A0B400BB1012000E0002070472C
:1078C000CA430282704730B50246002000230024DC
:1078D000158A05EA0103958905EA010413B10CB183
:1078E000012000E0002030BDCA4302827047000042
:1078F000002044490860091D0860091D0860091D31
:10790000086041483F4914310860704700213D49F3
:107910008279002A3AD00A46126803689A430B46D5
:107920001A600A1D126803689A430B1D1A600279D7
:1079300011440A6803681A430A60324A083212681E
:1079400003689A432F4B08331A601A1D12680368A4
:107950009A432C4B0C331A604279102A0ED11A1F0D
:10796000126803681A43274B08331A601A1D1268FD
:1079700003681A43234B0C331A600DE02149427906
:1079800011440A6803681A430A6005E00279114449
:107990000A6803689A430A60704700210160017118
:1079A0000C2141710021817170471649103109681D
:1079B0000143144A10321160704701460020114AF9
:1079C000143212680A400AB1012000E0002070471A
:1079D0000C49143108607047014600200022094B11
:1079E0001B6803EA0102074B14331B680B4013B1F9
:1079F0000AB1012000E000207047024914310860FC
:107A00007047000000040140FFFF0F0070470000B6
:107A10000B4910B5A1F17C020A4CC2E9371237219B
:107A200006E000EB104342F82130074B00FB034017
:107A30000B1EA1F10101F4DC10BD0120E8E70000FC
:107A4000C00D0020E119D666CD0D010010B5203A19
:107A5000C0F00B80B1E81850203AA0E81850B1E807
:107A60001850A0E81850BFF4F5AF5FEA027C24BFBD
:107A7000B1E81850A0E8185044BF18C918C0BDE8B4
:107A800010405FEA827C24BF51F8043B40F8043B7D
:107A900008BF7047D20728BF31F8023B48BF11F832
:107AA000012B28BF20F8023B48BF00F8012B70478C
:107AB0007047704770477047754600F029F8AE462A
:107AC00005006946534620F00700854618B020B5EA
:107AD000FEF7FCF9BDE820404FF000064FF000072C
:107AE0004FF000084FF0000B21F00701AC46ACE866
:107AF000C009ACE8C009ACE8C009ACE8C0098D46D3
:107B000070470446AFF300802046F8F77AFB000088
:107B100000487047280E0020C10DD1F19E0206DBFF
:107B20004FEA002343F0004323FA02F0704700427B
:107B300007D54FEA4001B1F1FE4F02D24FF00000ED
:107B4000704710B500F089F84992248000207047F2
:107B50006FEA2000704700004FF47F0C1CEAD0123F
:107B60001EBF1CEAD11392EA0C0F93EA0C0F00F02F
:107B7000478090EA010F48BF42F480724FF0004CFA
:107B80004CEA00204CEA012102EB0302A0FB0113A6
:107B9000A2F50002002918BF43F001035B0028BFD3
:107BA0004FEA330342EB22425FEA132C4CEBC25004
:107BB0002EBFBCEB436FB2F57C0F70474FEA036CEE
:107BC000BCF1004F08BF20F00100B2F57C0F38BFB8
:107BD00070470BD582F0FF0212F5803FC8BF704797
:107BE00000F1C040D8BF00F00040704700F5000C25
:107BF0005FEA4C0C48BF7047B0F1C04000F073B86A
:107C000090EA010F0CEAD11348BF42F4807262453A
:107C100038BF634504D280EA010000F0004070479D
:107C200010B500F01AF800BF8900013E00F007B857
:107C300000F009B85FEA410C5FEA1C6C08D080EAEA
:107C4000010000F050B85FEA400C5FEA1C6CF6D10E
:107C50004FF00040A0F5800070470EF1020E2EF0AC
:107C6000030E5EF8044B244204D44FEA4102B2F101
:107C70007F4F11D84FEA4003B3F17F4F0CD80ED19C
:107C80004FEAD07CB2F17F4F0CEB4C0C0CF1020CA4
:107C900008BF4CEBD17C04E04FF0080C01E04FEA48
:107CA000D17C0CEB4C0324FA03F404F00704B4F188
:107CB000040C06D20EEB840CBDE810404CF0010C15
:107CC0006047DFE80CF0070802024FF00040A0F523
:107CD000800010BD0846420018BFD2F1807288BFF4
:107CE00000F0004010BDFF2141EAD050C0057047B0
:107CF0000000000000000000000000000000202044
:107D00002020200000200000282850000000000053
:107D10000000000000005050F85050F85050000093
:107D2000002070A8A0603028A8702000000048A89B
:107D3000B0A874345448000000002050506CA8A82B
:107D40009468000040408000000000000000000037
:107D500008101020202020201010080040202010A3
:107D6000101010102020400000000020A87070A803
:107D70002000000000000010107C10100000000027
:107D800000000000000000004040800000000000F3
:107D900000FC0000000000000000000000000000E7
:107DA000004000000004080810102020404080001F
:107DB0000000708888888888887000000000206033
:107DC00020202020207000000000708888102040B3
:107DD00080F80000000070880830080888700000F3
:107DE00000001030305090F8103800000000F8808B
:107DF00080F08808887000000000304880B0C88893
:107E0000887000000000780810102020202000005A
:107E10000000708888708888887000000000708872
:107E200088986808906000000000000020000000B2
:107E300000200000000000000020000000202000C2
:107E40000000081020404020100800000000000042
:107E5000FC00FC000000000000004020100808109A
:107E600020400000000070888810202000200000C2
:107E70000000384494B4B4B8443800000000202016
:107E80003050507848CC00000000F0484870484816
:107E900048F00000000078888080808088700000B2
:107EA0000000F0484848484848F000000000F84802
:107EB0005070504048F800000000F84850705040A2
:107EC00040E000000000384880809C884830000076
:107ED0000000CC484878484848CC00000000F82012
:107EE0002020202020F8000000007C10101010102E
:107EF000101090E00000EC485060504848EC000042
:107F00000000E0404040404044FC00000000DCD85D
:107F1000D8D8A8A8A8AC00000000DC486868585869
:107F200048E8000000007088888888888870000011
:107F30000000F0484870404040E0000000007088B9
:107F4000888888E8987018000000F0484870504809
:107F500048EC0000000078888060100888F000007D
:107F60000000F8A820202020207000000000CC484D
:107F700048484848483000000000CC48485050303D
:107F8000202000000000A8A8A8A8705050500000B1
:107F90000000D8505020205050D800000000D85089
:107FA00050502020207000000000F8901020204049
:107FB00048F80000382020202020202020203800F1
:107FC00000404020202010101008080070101010F1
:107FD0001010101010107000205000000000000061
:107FE000000000000000000000000000000000FC95
:107FF0004020000000000000000000000000000021
:1080000000304838483C000000C0404040704848BC
:108010004870000000000000003848404830000070
:108020000018080808384848483C000000000000D4
:1080300000304878403800000018242020782020A4
:108040002078000000000000003C483040384438F0
:1080500000C040404070484848EC0000002020002C
:108060000060202020700000001010000030101070
:10807000101010E000C040404058506050C8000050
:1080800000E020202020202020F800000000000038
:1080900000F0A8A8A8A800000000000000F04848D0
:1080A00048EC000000000000003048484830000064
:1080B0000000000000F04848487040E00000000068
:1080C000003848484838081C0000000000D86040CC
:1080D00040E0000000000000007840300878000018
:1080E0000000002020782020203800000000000040
:1080F00000D84848483C00000000000000D850501C
:10810000202000000000000000A8A87050500000CF
:108110000000000000D8502050D8000000000000EF
:1081200000CC4848301020C000000000007810202B
:1081300020780000000000000000000000000000A7
:1081400000000000000000080808080808080000F7
:108150001818000000486C24120000000000000005
:10816000000000000000002424247F1212127F125D
:10817000121200000000081C2A2A0A0C1828282ABB
:108180002A1C080800000022251515152A585454E9
:10819000542200000000000C1212120A7625291148
:1081A000916E0000000606040300000000000000BD
:1081B00000000000004020101008080808080810FF
:1081C00010204000000204080810101010101008C1
:1081D000080402000000000008086B1C1C6B080863
:1081E0000000000000000000080808087F080808D8
:1081F0000800000000000000000000000000000077
:10820000060604030000000000000000FE0000005D
:10821000000000000000000000000000000000005E
:1082200006060000000080404020201010080804CE
:10823000040202000000001824424242424242422C
:1082400024180000000000080E08080808080808A4
:10825000083E00000000003C42424220201008047A
:10826000427E00000000003C424220182040404274
:10827000221C0000000000203028242422227E201E
:10828000207800000000007E0202021A26404042D0
:10829000221C0000000000382402021A264242423A
:1082A000241800000000007E222210100808080890
:1082B000080800000000003C4242422418244242C8
:1082C000423C0000000000182442424264584040F2
:1082D000241C00000000000000001818000000002E
:1082E0001818000000000000000000080000000056
:1082F00000080804000000402010080402040810D0
:10830000204000000000000000007F0000007F000F
:1083100000000000000000020408102040201008A7
:10832000040200000000003C4242464020101000C1
:10833000181800000000001C225A555555552D42B2
:10834000221C00000000000808181414243C2242DB
:1083500042E700000000001F2222221E2242424269
:10836000221F00000000007C424201010101014285
:10837000221C00000000001F2242424242424242B0
:10838000221F00000000003F4212121E1212024281
:10839000423F00000000003F4212121E1212020271
:1083A000020700000000003C22220101017121228D
:1083B000221C0000000000E7424242427E4242424C
:1083C00042E700000000003E080808080808080806
:1083D000083E00000000007C10101010101010105B
:1083E0001010110F0000007722120A0E0A1212223A
:1083F00022770000000000070202020202020202CD
:10840000427F000000000077363636362A2A2A2AB4
:108410002A6B0000000000E346464A4A525252626C
:10842000624700000000001C22414141414141419E
:10843000221C00000000003F424242423E02020273
:10844000020700000000001C2241414141414D5300
:10845000321C60000000003F4242423E12122222C3
:1084600042C700000000007C424202041820404243
:10847000423E00000000007F49080808080808087C
:10848000081C0000000000E74242424242424242D1
:10849000423C0000000000E7424222242414141849
:1084A000080800000000006B49494949555536222B
:1084B00022220000000000E7422424181818242477
:1084C00042E7000000000077222214140808080880
:1084D000081C00000000007E212010100804044247
:1084E000423F000000780808080808080808080843
:1084F0000808780000000202040408080810102090
:1085000020204040001E10101010101010101010ED
:1085100010101E00003844000000000000000000A1
:10852000000000000000000000000000000000004B
:10853000000000FF0006080000000000000000002E
:1085400000000000000000000000003C42784442AF
:1085500042FC0000000000030202021A26424242CE
:10856000261A000000000000000000384402020249
:1085700044380000000000604040407844424242DD
:1085800064D80000000000000000003C427E0202AF
:10859000423C0000000000F08808087E0808080837
:1085A000083E0000000000000000007C22221C02A7
:1085B0003C42423C000000030202023A4642424270
:1085C00042E700000000000C0C00000E080808083C
:1085D000083E00000000003030000038202020203D
:1085E0002020221E0000000302020272120A16124C
:1085F000227700000000000E080808080808080894
:10860000083E0000000000000000007F929292925D
:1086100092B70000000000000000003B46424242CA
:1086200042E70000000000000000003C42424242DD
:10863000423C0000000000000000001B26424242B5
:10864000221E02070000000000000078444242425F
:10865000447840E000000000000000774C0404046F
:10866000041F0000000000000000007C42023C40AB
:10867000423E0000000000000008083E080808080C
:108680000830000000000000000000634242424247
:1086900062DC000000000000000000E74224241417
:1086A0000808000000000000000000EB4949555593
:1086B0002222000000000000000000762418181894
:1086C000246E000000000000000000E74224241493
:1086D00018080807000000000000007E22100808AB
:1086E000447E000000C020202020201020202020D8
:1086F0002020C000101010101010101010101010BA
:1087000010101010000608080808081008080808CB
:10871000080806000C32C200000000000000000043
:1087200000000000063B0645C644C644C644C64495
:10873000C644C6442645E63246456644274EE74DC4
:10874000E74DE74DE74D274E66440645E644274E84
:10875000263C074EC74DC74D074E263C274EA64424
:10876000E644E74D074E263C074E074E263C074E93
:10877000E74DA644E644E74DC74D074E8644864480
:10878000074EC74DE74DA644E644E74DC74D074E9B
:1087900066446644074EC74DE74DA644E644E74DA0
:1087A000074E263C074E074E263C074EE74DA64493
:1087B000E644274E263C074EC74DC74D074E263C84
:1087C000274EA64426456644274EE74DE74DE74D24
:1087D000E74D274E66440645063B2645C644C6443B
:1087E000C644C644C644C6442645E632E46228DE92
:1087F000C8CDA8CDA8CDA8CDA8CDC8CD28DEA45A77
:1088000069DE07B5CAFF6AFF6AFF6AFF6AFFCAFF2F
:1088100007B508D6E8CDEBFFA7A48AFF4AFF4AFFB9
:108820008AFFA7A4EBFF87C5E8CD6AFFAAFFA7A42C
:108830008AFF8AFFA7A4AAFF6AFF88C5E8CD6AFF5E
:108840004AFFAAFF27B527B5AAFF4AFF6AFF88C5D6
:10885000E8CD6AFF4AFF8AFF27B527B58AFF4AFF9E
:108860006AFF88C5E8CD6AFF8AFFA7A4AAFFAAFF0E
:10887000A7A48AFF6AFF88C5E8CDCAFFA7A4AAFFFC
:108880004AFF4AFFAAFFA7A4CAFF88C549DE07B569
:10889000EBFF6AFF6AFF6AFF6AFFEBFF07B508D6C6
:1088A000E46248DEA8CDA8CDA8CDA8CDA8CDA8CD9E
:1088B00048DEA45A4A5BE0FFE0FFE0FFE0FFE0FF94
:1088C000E0FFE0FFE0FF463AC2540B5BE0FFE0FF51
:1088D000E0FFE0FFE0FFE0FF8D6BC354C45CA465E4
:1088E000E0FFE0FFE0FFE0FFE0FFE0FF6365C55C65
:1088F000A45C467E656DA764A764A764A76425652C
:10890000667EA45CA45C4A8E6343EA85267626765E
:108910006A8E823B4A8EA45CA45C277E0565E7755F
:10892000067E067629864454698EA45CA45C267E65
:10893000267E067EC675A66D0676267E267EA45CFD
:10894000A45C277EC675477EE23280196786C675AD
:10895000277EC45CA55CC675277E477E8454C45CB4
:10896000477E277E667EA44BE0FFA44B223B023B62
:10897000E55CC55C023B423BC33AE0FFD39C59CE69
:1089800038C638C638C638C638C638C659CEB29486
:1089900059CEFFFFFFFFFFFFFFFFFFFFFFFFFFFFBE
:1089A000FFFF18C638C6FFFFFFFFFFFFFFFFFFFFF7
:1089B000FFFFFFFFFFFFF7BD38C6FFFFFFFFFFFF11
:1089C0004CE64BDEDEFFFFFFFFFFF7BD38C6FFFFC3
:1089D000FFFF09DEE3DDE3DDC6DDFFFFFFFFF7BDDF
:1089E00038C6FFFFFFFFC5D5E5DD05DE82D5FFFFF9
:1089F000FFFFF7BD38C6FFFFFFFF37EF80D580D5FB
:108A0000F5EEFFFFFFFFF7BD38C6FFFFFFFFFFFFDB
:108A1000FFFFFFFFFFFFFFFFFFFFF7BD59CEFFFF87
:108A2000FFFFFFFFFFFFFFFFFFFFFFFFFFFF18C676
:108A3000D39C59CE38C638C638C638C638C638C6AC
:108A400059CEB294E15123C4E3BBE3BBE3BBE3BB28
:108A5000E3BBE3BB23C4E15143CC839B64FD24F51A
:108A600024F524F524F564FD839B43CCE3BB64FD2E
:108A7000439344FD04ED04ED44FD439364FDE3BBE7
:108A8000E3BB24F544FD439344FD44FD439344FD7F
:108A900024F5E3BBE3BB24F504ED44FD83A383A3EA
:108AA00044FD04ED24F5E3BBE3BB24F504ED44FDF4
:108AB00083A383A344FD04ED24F5E3BBE3BB24F5CA
:108AC00044FD439344FD44FD439344FD24F5E3BB3F
:108AD000E3BB64FD439344FD04ED04ED44FD439387
:108AE00064FDE3BB23C4839B64FD24F524F524F5D6
:108AF00024F564FD839B23C4E15143CCE3BBE3BB7A
:108B0000E3BBE3BBE3BBE3BB43CCC1518040C0C08C
:108B1000C0C0FFC0FFC0FFC0FFC0FFC0FFC07F805C
:108B20002AE22FE234E237E23BE2FCD1FCA9FC81ED
:108B3000FC595C3D5C3E3C3F373F343F2F3F283F74
:108B4000279727BF27E7E7E567E427E327E2E0FF6A
:108B5000E0FFE0FFE0FFE0FFE0FFE0FFE0FFE0FF1D
:108B6000E0FFE0FFE0FFE0FFE0FFE0FFE0FFE0FF0D
:108B7000E0FFE0FFE0FFE0FFE0FF18C618C618C600
:108B800018C618C618C618C618C618C618C618C6F5
:108B900018C618C618C618C618C6E0FFE0FFE0FFE2
:108BA00018C618C618C618C618C618C618C618C6D5
:108BB00018C618C618C618C618C618C618C618C6C5
:108BC00018C618C6E0FFE0FF18C618C618C618C6B3
:108BD00018C618C618C618C618C618C618C618C6A5
:108BE00018C618C618C618C618C618C6E0FFE0FF93
:108BF00018C618C618C618C618C618C618C6FFFF65
:108C0000FFFFFFFFFFFF18C618C618C618C618C614
:108C100018C618C6E0FFE0FF18C618C618C618C662
:108C200018C618C6FFFFFFFFFFFFFFFFFFFFFFFF94
:108C300018C618C618C618C618C618C6E0FFE0FF42
:108C400018C618C618C618C618C6FFFFFFFFFFFFD4
:108C500018C618C6FFFFFFFFFFFF18C618C618C6C4
:108C600018C618C6E0FFE0FF18C618C618C618C612
:108C7000FFFFFFFFFFFF18C618C618C618C6FFFF84
:108C8000FFFFFFFF18C618C618C618C6E0FFE0FFB2
:108C900018C618C618C618C6FFFFFFFF18C618C6A4
:108CA00018C618C618C618C6FFFFFFFF18C618C694
:108CB00018C618C6E0FFE0FF18C618C618C618C6C2
:108CC00018C618C618C618C618C618C618C6FFFF94
:108CD000FFFFFFFF18C618C618C618C6E0FFE0FF62
:108CE00018C618C618C618C618C618C618C618C694
:108CF00018C618C6FFFFFFFFFFFF18C618C618C624
:108D000018C618C6E0FFE0FF18C618C618C618C671
:108D100018C618C618C618C618C6FFFFFFFFFFFF03
:108D200018C618C618C618C618C618C6E0FFE0FF51
:108D300018C618C618C618C618C618C618C618C643
:108D4000FFFFFFFFFFFF18C618C618C618C618C6D3
:108D500018C618C6E0FFE0FF18C618C618C618C621
:108D600018C618C618C6FFFFFFFFFFFF18C618C6B3
:108D700018C618C618C618C618C618C6E0FFE0FF01
:108D800018C618C618C618C618C618C6FFFFFFFFB3
:108D9000FFFF18C618C618C618C618C618C618C6C3
:108DA00018C618C6E0FFE0FF18C618C618C618C6D1
:108DB00018C6FFFFFFFFFFFFFFFFFFFFFFFFFFFFE3
:108DC000FFFFFFFF18C618C618C618C6E0FFE0FF71
:108DD00018C618C618C618C6FFFFFFFFFFFFFFFF23
:108DE000FFFFFFFFFFFFFFFFFFFFFFFF18C618C6D3
:108DF00018C618C6E0FFE0FF18C618C618C618C681
:108E000018C618C618C618C618C618C618C618C672
:108E100018C618C618C618C618C618C6E0FFE0FF60
:108E2000E0FF18C618C618C618C618C618C618C651
:108E300018C618C618C618C618C618C618C618C642
:108E400018C6E0FFE0FFE0FFE0FFE0FFE0FFE0FF2B
:108E5000E0FFE0FFE0FFE0FFE0FFE0FFE0FFE0FF1A
:108E6000E0FFE0FFE0FFE0FFE0FFE0FFE0FFE0FF0A
:108E7000E0FFE0FFE0FFE0FFE0FFE0FFE0FFE0FFFA
:108E8000E0FFE0FFE0FFE0FFE0FFE0FFE0FFE0FFEA
:108E9000E0FFE0FFE0FFE0FFE0FFE0FFE0FFE0FFDA
:108EA000E0FFE0FFE0FFE0FFE0FFE0FFE0FFE0FFCA
:108EB000E0FFE0FFE0FFE0FFE0FFE0FFE0FFE0FFBA
:108EC000E0FFE0FFE0FFE0FFE0FFE0FFE0FFE0FFAA
:108ED000E0FFE0FFE0FFE0FFE0FFE0FFE0FFE0FF9A
:108EE000E0FFE0FFE0FFE0FFE0FFE0FFE0FFE0FF8A
:108EF000E0FFE0FFE0FFE0FFE0FFE0FFFFFFE0FF5B
:108F0000E0FFE0FFE0FFE0FFE0FFE0FFE0FFE0FF69
:108F1000E0FFE0FFE0FFE0FFE0FFE0FFE0FFE0FF59
:108F2000E0FFFFFFFFFFFFFFE0FFE0FFE0FFE0FFEC
:108F3000E0FFE0FFE0FFE0FFE0FFE0FFE0FFE0FF39
:108F4000E0FFE0FFE0FFE0FFFFFFFFFFFFFFFFFFAD
:108F5000E0FFE0FFE0FFE0FFE0FFE0FFE0FFE0FF19
:108F6000E0FFE0FFE0FFE0FFE0FFE0FFE0FFFFFFEA
:108F7000FFFFFFFFFFFFFFFFE0FFE0FFE0FFE0FF7D
:108F8000E0FFE0FFE0FFE0FFE0FFE0FFE0FFE0FFE9
:108F9000E0FFE0FFFFFFFFFFFFFFE0FFFFFFFFFF3E
:108FA000E0FFE0FFE0FFE0FFE0FFE0FFE0FFE0FFC9
:108FB000E0FFE0FFE0FFE0FFE0FFFFFFFFFFFFFF5C
:108FC000E0FFE0FFFFFFFFFFE0FFE0FFE0FFE0FF6B
:108FD000E0FFE0FFE0FFE0FFE0FFE0FFE0FFE0FF99
:108FE000FFFFFFFFFFFFE0FFE0FFE0FFFFFFFFFFEE
:108FF000E0FFE0FFE0FFE0FFE0FFE0FFE0FFE0FF79
:10900000E0FFE0FFE0FFFFFFFFFFFFFFE0FFE0FF0B
:10901000E0FFE0FFFFFFFFFFE0FFE0FFE0FFE0FF1A
:10902000E0FFE0FFE0FFE0FFE0FFE0FFFFFFFFFF0A
:10903000FFFFE0FFE0FFE0FFE0FFE0FFFFFFFFFFDB
:10904000E0FFE0FFE0FFE0FFE0FFE0FFE0FFE0FF28
:10905000E0FFE0FFFFFFFFFFFFFFFFFFFFFFFFFF5E
:10906000FFFFFFFFFFFFFFFFFFFFFFFFFFFFFFFF10
:10907000E0FFE0FFE0FFE0FFE0FFE0FFE0FFFFFFD9
:10908000FFFFFFFFFFFFFFFFFFFFFFFFFFFFFFFFF0
:10909000FFFFFFFFFFFFFFFFE0FFE0FFE0FFE0FF5C
:1090A000E0FFE0FFE0FFE0FFE0FFE0FFE0FFE0FFC8
:1090B000E0FFE0FFFFFFFFFFE0FFE0FFE0FFE0FF7A
:1090C000E0FFE0FFE0FFE0FFE0FFE0FFE0FFE0FFA8
:1090D000E0FFE0FFE0FFE0FFE0FFE0FFFFFFFFFF5A
:1090E000E0FFE0FFE0FFE0FFE0FFE0FFE0FFE0FF88
:1090F000E0FFE0FFE0FFE0FFE0FFE0FFE0FFE0FF78
:10910000E0FFE0FFFFFFFFFFE0FFE0FFE0FFE0FF29
:10911000E0FFE0FFE0FFE0FFE0FFE0FFE0FFE0FF57
:10912000E0FFE0FFE0FFE0FFE0FFE0FFE0FFE0FF47
:10913000E0FFE0FFE0FFE0FFE0FFE0FFE0FFE0FF37
:10914000E0FFE0FFE0FFE0FFE0FFE0FFE0FFE0FF27
:10915000E0FFE0FFE0FFE0FFE0FFE0FFE0FFE0FF17
:10916000E0FFE0FFE0FFE0FFE0FFE0FFE0FFE0FF07
:10917000E0FFE0FFE0FFE0FFE0FFE0FFE0FFE0FFF7
:10918000E0FFE0FFE0FFE0FFE0FFE0FFE0FFE0FFE7
:10919000E0FFE0FFE0FFE0FFE0FFE0FFE0FFE0FFD7
:1091A000E0FFE0FFE0FFE0FFE0FFE0FFE0FFE0FFC7
:1091B000E0FFE0FFE0FFE0FFE0FFE0FFE0FFE0FFB7
:1091C000E0FFE0FFE0FFE0FFE0FFE0FFE0FFE0FFA7
:1091D000E0FFE0FFE0FFE0FFE0FFE0FFE0FFE0FF97
:1091E000E0FFE0FFE0FFE0FFE0FFE0FFE0FFE0FF87
:1091F000E0FFE0FFE0FFE0FFE0FFE0FFE0FFE0FF77
:10920000E0FFE0FFE0FFE0FFE0FFE0FFE0FFE0FF66
:10921000E0FFE0FFFFFFFFFFFFFFFFFFFFFFFFFF9C
:10922000E0FFE0FFE0FFE0FFE0FFE0FFE0FFE0FF46
:10923000E0FFE0FFE0FFE0FFE0FFFFFFFFFFE0FFF8
:10924000E0FFE0FFE0FFFFFFFFFFE0FFE0FFE0FFE8
:10925000E0FFE0FFE0FFE0FFE0FFE0FFE0FFE0FF16
:10926000FFFFFFFFE0FFE0FFE0FFE0FFE0FFE0FFC8
:10927000FFFFFFFFE0FFE0FFE0FFE0FFE0FFE0FFB8
:10928000E0FFE0FFE0FFE0FFFFFFE0FFE0FFE0FFC7
:10929000E0FFE0FFE0FFE0FFE0FFFFFFE0FFE0FFB7
:1092A000E0FFE0FFE0FFE0FFE0FFE0FFE0FFE0FFC6
:1092B000FFFFFFFFE0FFE0FFE0FFE0FFE0FFE0FF78
:1092C000FFFFFFFFE0FFE0FFE0FFE0FFE0FFE0FF68
:1092D000E0FFE0FFE0FFE0FFE0FFFFFFFFFFE0FF58
:1092E000E0FFE0FFE0FFFFFFFFFFE0FFE0FFE0FF48
:1092F000E0FFE0FFE0FFE0FFE0FFE0FFE0FFE0FF76
:10930000E0FFE0FFFFFFFFFFFFFFFFFFFFFFFFFFAB
:10931000E0FFE0FFE0FFE0FFE0FFE0FFE0FFE0FF55
:10932000E0FFE0FFE0FFE0FFE0FFE0FFFFFFFFFF07
:10933000FFFFFFFFFFFFFFFFE0FFE0FFE0FFE0FFB9
:10934000E0FFE0FFE0FFE0FFE0FFE0FFE0FFE0FF25
:10935000E0FFFFFFFFFFE0FFE0FFE0FFE0FFFFFFB8
:10936000FFFFE0FFE0FFE0FFE0FFE0FFE0FFE0FFE6
:10937000E0FFE0FFE0FFE0FFFFFFFFFFE0FFE0FFB7
:10938000E0FFE0FFE0FFE0FFFFFFFFFFE0FFE0FFA7
:10939000E0FFE0FFE0FFE0FFE0FFE0FFE0FFE0FFD5
:1093A000FFFFE0FFE0FFE0FFE0FFE0FFE0FFE0FFA6
:1093B000E0FFFFFFE0FFE0FFE0FFE0FFE0FFE0FF96
:1093C000E0FFE0FFE0FFE0FFFFFFE0FFE0FFE0FF86
:1093D000E0FFE0FFE0FFE0FFE0FFFFFFE0FFE0FF76
:1093E000E0FFE0FFE0FFE0FFE0FFE0FFE0FFE0FF85
:1093F000FFFFFFFFE0FFE0FFE0FFE0FFE0FFE0FF37
:10940000FFFFFFFFE0FFE0FFE0FFE0FFE0FFE0FF26
:10941000E0FFE0FFE0FFE0FFE0FFFFFFFFFFE0FF16
:10942000E0FFE0FFE0FFFFFFFFFFE0FFE0FFE0FF06
:10943000E0FFE0FFE0FFE0FFE0FFE0FFE0FFE0FF34
:10944000E0FFE0FFFFFFFFFFFFFFFFFFFFFFFFFF6A
:10945000E0FFE0FFE0FFE0FFE0FFE0FFE0FFE0FF14
:10946000E0FFE0FFE0FFE0FFE0FFE0FFE0FFE0FF04
:10947000E0FFE0FFE0FFE0FFE0FFE0FFE0FFE0FFF4
:10948000E0FFE0FFE0FFE0FFE0FFE0FFE0FFE0FFE4
:10949000E0FFE0FFE0FFE0FFE0FFE0FFE0FFE0FFD4
:1094A000E0FFE0FFE0FFE0FFE0FFE0FFE0FFE0FFC4
:1094B000E0FFE0FFE0FFE0FFE0FFE0FFE0FFE0FFB4
:1094C000E0FFE0FFE0FFE0FFE0FFE0FFE0FFE0FFA4
:1094D000E0FFE0FFE0FFE0FFE0FF00F800F800F849
:1094E00000F800F800F800F800F800F800F800F8BC
:1094F00000F800F800F800F800F8E0FFE0FFE0FFF7
:1095000000F800F800F800F800F800F800F800F89B
:1095100000F800F800F800F800F800F800F800F88B
:1095200000F800F8E0FFE0FF00F800F800F800F8AD
:1095300000F800F800F800F800F800F800F800F86B
:1095400000F800F800F800F800F800F8E0FFE0FF8D
:1095500000F800F800F800F8FFFF00F800F800F845
:10956000FFFFFFFFFFFFFFFFFFFF00F800F800F81D
:1095700000F800F8E0FFE0FF00F800F800F8FFFF57
:10958000FFFF00F800F8FFFFFFFF00F800F800F809
:10959000FFFFFFFF00F800F800F800F8E0FFE0FF31
:1095A00000F800F800F800F8FFFF00F800F8FFFFEF
:1095B00000F800F800F800F800F800F800F800F8EB
:1095C00000F800F8E0FFE0FF00F800F800F800F80D
:1095D000FFFF00F800F8FFFF00F800F800F800F8BF
:1095E00000F800F800F800F800F800F8E0FFE0FFED
:1095F00000F800F800F800F8FFFF00F800F8FFFF9F
:1096000000F8FFFFFFFFFFFF00F800F800F800F888
:1096100000F800F8E0FFE0FF00F800F800F800F8BC
:10962000FFFF00F800F8FFFFFFFFFFFFFFFFFFFF56
:10963000FFFF00F800F800F800F800F8E0FFE0FF96
:1096400000F800F800F800F8FFFF00F800F8FFFF4E
:10965000FFFF00F800F800F800F8FFFF00F800F83E
:1096600000F800F8E0FFE0FF00F800F800F800F86C
:10967000FFFF00F800F8FFFF00F800F800F800F81E
:1096800000F8FFFF00F800F800F800F8E0FFE0FF46
:1096900000F800F800F800F8FFFF00F800F8FFFFFE
:1096A00000F800F800F800F800F8FFFF00F800F8F4
:1096B00000F800F8E0FFE0FF00F800F800F800F81C
:1096C000FFFF00F800F8FFFFFFFF00F800F800F8C8
:1096D000FFFFFFFF00F800F800F800F8E0FFE0FFF0
:1096E00000F800F800F800F8FFFF00F800F800F8B4
:1096F000FFFFFFFFFFFFFFFFFFFF00F800F800F88C
:1097000000F800F8E0FFE0FF00F800F800F800F8CB
:1097100000F800F800F800F800F800F800F800F889
:1097200000F800F800F800F800F800F8E0FFE0FFAB
:1097300000F800F800F800F800F800F800F800F869
:1097400000F800F800F800F800F800F800F800F859
:1097500000F800F8E0FFE0FF00F800F800F800F87B
:1097600000F800F800F800F800F800F800F800F839
:1097700000F800F800F800F800F800F8E0FFE0FF5B
:10978000E0FF00F800F800F800F800F800F800F832
:1097900000F800F800F800F800F800F800F800F809
:1097A00000F8E0FFE0FFE0FFE0FFE0FFE0FFE0FFA8
:1097B000E0FFE0FFE0FFE0FFE0FFE0FFE0FFE0FFB1
:1097C000E0FFE0FFE0FFE0FFE0FFE0FFE0FFE0FFA1
:1097D000E0FFE0FFE0FFE0FFE0FFE0FFE0FFE0FF91
:1097E000E0FFE0FFE0FFE0FFE0FFE0FFE0FFE0FF81
:1097F000E0FFE0FFE0FFE0FFE0FF00F800F800F826
:1098000000F800F800F800F800F800F800F800F898
:1098100000F800F800F800F800F8E0FFE0FFE0FFD3
:1098200000F800F800F800F800F800F800F800F878
:1098300000F800F800F800F800F800F800F800F868
:1098400000F800F8E0FFE0FF00F800F800F800F88A
:1098500000F800F800F800F800F800F800F800F848
:1098600000F800F800F800F800F800F8E0FFE0FF6A
:1098700000F800F800F800F8FFFFFFFFFFFF00F816
:1098800000F800F800F8FFFFFFFFFFFF00F800F806
:1098900000F800F8E0FFE0FF00F800F800F8FFFF34
:1098A000FFFF00F8FFFFFFFF00F800F8FFFFFFFFDA
:1098B00000F8FFFFFFFF00F800F800F8E0FFE0FF0E
:1098C00000F800F800F8FFFF00F800F800F8FFFFCC
:1098D000FFFF00F8FFFF00F800F800F8FFFFFFFFB0
:1098E00000F800F8E0FFE0FF00F800F800F800F8EA
:1098F00000F800F800F800F8FFFF00F800F800F8A2
:1099000000F800F800F8FFFF00F800F8E0FFE0FFC3
:1099100000F800F800F800F800F800F800F8FFFF81
:10992000FFFF00F800F800F800F800F8FFFFFFFF65
:1099300000F800F8E0FFE0FF00F800F800F800F899
:1099400000F8FFFFFFFFFFFF00F800F800F800F845
:1099500000F8FFFFFFFF00F800F800F8E0FFE0FF6D
:1099600000F800F800F800F800F800F800F8FFFF31
:10997000FFFF00F800F800F800F8FFFF00F800F81B
:1099800000F800F8E0FFE0FF00F800F800F800F849
:1099900000F800F800F800F8FFFF00F800F800F801
:1099A000FFFFFFFF00F800F800F800F8E0FFE0FF1D
:1099B00000F800F800F8FFFF00F800F800F8FFFFDB
:1099C000FFFF00F800F8FFFFFFFF00F800F800F8C5
:1099D00000F800F8E0FFE0FF00F800F800F8FFFFF3
:1099E000FFFF00F8FFFFFFFF00F800F8FFFFFFFF99
:1099F000FFFFFFFFFFFFFFFF00F800F8E0FFE0FFC1
:109A000000F800F800F800F8FFFFFFFFFFFF00F884
:109A100000F800F8FFFFFFFFFFFFFFFFFFFFFFFF62
:109A200000F800F8E0FFE0FF00F800F800F800F8A8
:109A300000F800F800F800F800F800F800F800F866
:109A400000F800F800F800F800F800F8E0FFE0FF88
:109A500000F800F800F800F800F800F800F800F846
:109A600000F800F800F800F800F800F800F800F836
:109A700000F800F8E0FFE0FF00F800F800F800F858
:109A800000F800F800F800F800F800F800F800F816
:109A900000F800F800F800F800F800F8E0FFE0FF38
:109AA000E0FF00F800F800F800F800F800F800F80F
:109AB00000F800F800F800F800F800F800F800F8E6
:109AC00000F8E0FFE0FFE0FFE0FFE0FFE0FFE0FF85
:109AD000E0FFE0FFE0FFE0FFE0FFE0FFE0FFE0FF8E
:109AE000E0FFE0FFE0FFE0FFE0FFE0FFE0FFE0FF7E
:109AF000E0FFE0FFE0FFE0FFE0FFE0FFE0FFE0FF6E
:109B0000E0FFE0FFE0FFE0FFE0FFE0FFE0FFE0FF5D
:109B1000E0FFE0FFE0FFE0FFE0FF0080008000806A
:109B20000080008000800080008000800080008035
:109B300000800080008000800080E0FFE0FFE0FF08
:109B40000080008000800080008000800080008015
:109B50000080008000800080008000800080008005
:109B600000800080E0FFE0FF008000800080008037
:109B700000800080008000800080008000800080E5
:109B8000008000800080008000800080E0FFE0FF17
:109B900000800080008000800080FFFFFFFF0080C9
:109BA000008000800080008000800080FFFF008037
:109BB00000800080E0FFE0FF0080008000800080E7
:109BC000FFFF00800080FFFF008000800080008099
:109BD0000080FFFFFFFF008000800080E0FFE0FFCB
:109BE000008000800080FFFF0080008000800080F7
:109BF0000080008000800080FFFF0080FFFF008069
:109C000000800080E0FFE0FF008000800080FFFF18
:109C10000080008000800080008000800080FFFFC6
:109C200000800080FFFF008000800080E0FFE0FFF8
:109C3000008000800080FFFF0080008000800080A6
:109C4000008000800080FFFF00800080FFFF008018
:109C500000800080E0FFE0FF008000800080FFFFC8
:109C60000080FFFFFFFFFFFF00800080FFFF0080FC
:109C700000800080FFFF008000800080E0FFE0FFA8
:109C8000008000800080FFFFFFFF008000800080D8
:109C9000FFFF0080FFFFFFFFFFFFFFFFFFFFFFFF52
:109CA00000800080E0FFE0FF008000800080FFFF78
:109CB0000080008000800080FFFF00800080008026
:109CC00000800080FFFF008000800080E0FFE0FF58
:109CD000008000800080FFFF008000800080008006
:109CE000FFFF00800080008000800080FFFF008078
:109CF00000800080E0FFE0FF0080008000800080A6
:109D0000FFFF008000800080FFFF00800080008057
:109D100000800080FFFF008000800080E0FFE0FF07
:109D200000800080008000800080FFFFFFFFFFFFB9
:109D3000008000800080008000800080FFFF0080A5
:109D400000800080E0FFE0FF008000800080008055
:109D50000080008000800080008000800080008003
:109D6000008000800080008000800080E0FFE0FF35
:109D700000800080008000800080008000800080E3
:109D800000800080008000800080008000800080D3
:109D900000800080E0FFE0FF008000800080008005
:109DA00000800080008000800080008000800080B3
:109DB000008000800080008000800080E0FFE0FFE5
:109DC000E0FF008000800080008000800080008034
:109DD0000080008000800080008000800080008083
:109DE0000080E0FFE0FFE0FFE0FFE0FFE0FFE0FFDA
:109DF000E0FFE0FFE0FFE0FFE0FFE0FFE0FFE0FF6B
:109E0000E0FFE0FFE0FFE0FFE0FFE0FFE0FFE0FF5A
:109E1000E0FFE0FFE0FFE0FFE0FFE0FFE0FFE0FF4A
:109E2000E0FFE0FFE0FFE0FFE0FFE0FFE0FFE0FF3A
:109E3000E0FFE0FFE0FFE0FFE0FF18C618C618C62D
:109E400018C618C618C618C618C618C618C618C622
:109E500018C618C618C618C618C6E0FFE0FFE0FF0F
:109E600018C618C618C618C618C618C618C618C602
:109E700018C618C618C618C618C618C618C618C6F2
:109E800018C618C6E0FFE0FF18C618C618C618C6E0
:109E900018C618C618C618C618C618C618C618C6D2
:109EA00018C618C618C618C618C618C6E0FFE0FFC0
:109EB00018C618C6FFFF18C618C618C6FFFFFFFF52
:109EC000FFFF18C618C618C6FFFFFFFFFFFFFFFF02
:109ED00018C618C6E0FFE0FF18C6FFFFFFFF18C650
:109EE00018C6FFFFFFFF18C6FFFFFFFF18C6FFFFE2
:109EF000FFFF18C618C6FFFFFFFF18C6E0FFE0FF10
:109F000018C618C6FFFF18C618C6FFFF18C618C621
:109F100018C6FFFF18C6FFFF18C618C618C618C611
:109F2000FFFF18C6E0FFE0FF18C618C6FFFF18C6FF
:109F300018C618C618C618C618C6FFFF18C6FFFFF1
:109F400018C618C618C618C6FFFF18C6E0FFE0FFFF
:109F500018C618C6FFFF18C618C618C618C618C6F1
:109F6000FFFFFFFF18C6FFFF18C618C618C618C6A1
:109F7000FFFF18C6E0FFE0FF18C618C6FFFF18C6AF
:109F800018C618C618C618C6FFFF18C618C618C6C1
:109F9000FFFFFFFFFFFFFFFF18C618C6E0FFE0FF4F
:109FA00018C618C6FFFF18C618C618C618C6FFFF81
:109FB000FFFF18C618C618C6FFFF18C618C6FFFF51
:109FC00018C618C6E0FFE0FF18C618C6FFFF18C67F
:109FD00018C618C618C6FFFF18C618C618C6FFFF51
:109FE00018C618C618C618C6FFFF18C6E0FFE0FF5F
:109FF00018C618C6FFFF18C618C618C6FFFFFFFF11
:10A0000018C618C618C6FFFF18C618C618C618C640
:10A01000FFFF18C6E0FFE0FF18C618C6FFFF18C60E
:10A0200018C6FFFFFFFF18C618C618C618C6FFFFE0
:10A0300018C618C618C618C6FFFF18C6E0FFE0FF0E
:10A0400018C6FFFFFFFFFFFF18C6FFFFFFFFFFFF60
:10A05000FFFFFFFF18C618C6FFFFFFFFFFFFFFFF50
:10A0600018C618C6E0FFE0FF18C618C618C618C6FE
:10A0700018C618C618C618C618C618C618C618C6F0
:10A0800018C618C618C618C618C618C6E0FFE0FFDE
:10A0900018C618C618C618C618C618C618C618C6D0
:10A0A00018C618C618C618C618C618C618C618C6C0
:10A0B00018C618C6E0FFE0FF18C618C618C618C6AE
:10A0C00018C618C618C618C618C618C618C618C6A0
:10A0D00018C618C618C618C618C618C6E0FFE0FF8E
:10A0E000E0FF18C618C618C618C618C618C618C67F
:10A0F00018C618C618C618C618C618C618C618C670
:10A1000018C6E0FFE0FFE0FFE0FFE0FFE0FFE0FF58
:10A11000E0FFE0FFE0FFE0FFE0FFE0FFE0FFE0FF47
:10A12000E0FFE0FFE0FFE0FFE0FFE0FFE0FFE0FF37
:10A13000E0FFE0FFE0FFE0FFE0FFE0FFE0FFE0FF27
:10A14000E0FFE0FFE0FFE0FFE0FFE0FFE0FFE0FF17
:10A15000E0FFE0FFE0FFE0FFE0FF108410841084E8
:10A16000108410841084108410841084108410844F
:10A1700010841084108410841084E0FFE0FFE0FF5E
:10A18000108410841084108410841084108410842F
:10A19000108410841084108410841084108410841F
:10A1A00010841084E0FFE0FF108410841084108479
:10A1B00010841084108410841084108410841084FF
:10A1C000108410841084108410841084E0FFE0FF59
:10A1D00010841084108410841084108410841084DF
:10A1E00010841084108410841084108410841084CF
:10A1F00010841084E0FFE0FF10841084FFFFFFFF55
:10A20000FFFF10841084FFFFFFFFFFFFFFFF10849C
:10A210001084FFFFFFFFFFFF10841084E0FFE0FFCA
:10A220001084FFFFFFFF10841084FFFF1084FFFFE6
:10A230001084108410841084FFFF10841084108414
:10A24000FFFF1084E0FFE0FF1084FFFF1084108404
:10A250001084FFFF1084FFFF10841084108410848A
:10A26000FFFF10841084108410841084E0FFE0FF4E
:10A2700010841084108410841084FFFF1084FFFF6A
:10A28000FFFFFFFF10841084FFFF1084FFFFFFFF1C
:10A2900010841084E0FFE0FF108410841084108488
:10A2A000FFFF1084108410841084FFFFFFFF1084D0
:10A2B000FFFFFFFF10841084FFFF1084E0FFE0FF2A
:10A2C0001084108410841084FFFF10841084108484
:10A2D00010841084FFFF1084FFFF1084108410840A
:10A2E000FFFF1084E0FFE0FF108410841084FFFF64
:10A2F000108410841084108410841084FFFF108454
:10A30000FFFF108410841084FFFF1084E0FFE0FF43
:10A3100010841084FFFF1084108410841084FFFFC9
:10A320001084FFFFFFFF1084FFFF10841084FFFFE5
:10A33000FFFF1084E0FFE0FF1084FFFFFFFFFFFF3F
:10A34000FFFFFFFF1084FFFFFFFFFFFF108410845B
:10A350001084FFFFFFFFFFFF10841084E0FFE0FF89
:10A36000108410841084108410841084108410844D
:10A37000108410841084108410841084108410843D
:10A3800010841084E0FFE0FF108410841084108497
:10A39000108410841084108410841084108410841D
:10A3A000108410841084108410841084E0FFE0FF77
:10A3B00010841084108410841084108410841084FD
:10A3C00010841084108410841084108410841084ED
:10A3D00010841084E0FFE0FF108410841084108447
:10A3E00010841084108410841084108410841084CD
:10A3F000108410841084108410841084E0FFE0FF27
:10A40000E0FF108410841084108410841084108461
:10A41000108410841084108410841084108410849C
:10A420001084E0FFE0FFE0FFE0FFE0FFE0FFE0FF7F
:10A43000E0FFE0FFE0FFE0FFE0FFE0FFE0FFE0FF24
:10A44000E0FFE0FFE0FFE0FFE0FFE0FFE0FFE0FF14
:10A45000E0FFE0FFE0FFE0FFE0FFE0FFE0FFE0FF04
:10A46000E0FFE0FFE0FFE0FFE0FFE0FFE0FFE0FFF4
:10A47000E0FFE0FFE0FFE0FFE0FF108010801080D1
:10A48000108010801080108010801080108010804C
:10A4900010801080108010801080E0FFE0FFE0FF4F
:10A4A000108010801080108010801080108010802C
:10A4B000108010801080108010801080108010801C
:10A4C00010801080E0FFE0FF10801080108010806E
:10A4D00010801080108010801080108010801080FC
:10A4E000108010801080108010801080E0FFE0FF4E
:10A4F00010801080108010801080108010801080DC
:10A5000010801080108010801080108010801080CB
:10A5100010801080E0FFE0FF10801080FFFFFFFF41
:10A52000FFFFFFFF108010801080FFFF1080108061
:10A53000FFFFFFFFFFFF108010801080E0FFE0FFB3
:10A5400010801080FFFF108010801080108010801D
:10A55000FFFFFFFF10801080FFFF10801080FFFFC3
:10A5600010801080E0FFE0FF10801080FFFF10805F
:10A5700010801080108010801080FFFF10801080ED
:10A58000108010801080FFFF10801080E0FFE0FF3F
:10A5900010801080FFFFFFFFFFFF108010801080F1
:10A5A0001080FFFF10801080108010801080FFFF4F
:10A5B00010801080E0FFE0FF10801080108010807D
:10A5C000FFFFFFFF108010801080FFFF10801080C1
:10A5D00010801080FFFF108010801080E0FFE0FFEF
:10A5E00010801080108010801080FFFF108010807D
:10A5F0001080FFFF1080108010801080FFFF1080FF
:10A6000010801080E0FFE0FF10801080108010802C
:10A610001080FFFF108010801080FFFF10801080DE
:10A620001080FFFF1080108010801080E0FFE0FF9E
:10A6300010801080FFFF1080FFFFFFFF1080108050
:10A640001080FFFF10801080FFFF108010801080AE
:10A6500010801080E0FFE0FF10801080FFFFFFFF00
:10A66000FFFF108010801080FFFFFFFFFFFF1080B2
:10A67000FFFFFFFFFFFFFFFF10801080E0FFE0FF04
:10A68000108010801080108010801080108010804A
:10A69000108010801080108010801080108010803A
:10A6A00010801080E0FFE0FF10801080108010808C
:10A6B000108010801080108010801080108010801A
:10A6C000108010801080108010801080E0FFE0FF6C
:10A6D00010801080108010801080108010801080FA
:10A6E00010801080108010801080108010801080EA
:10A6F00010801080E0FFE0FF10801080108010803C
:10A7000010801080108010801080108010801080C9
:10A71000108010801080108010801080E0FFE0FF1B
:10A72000E0FF10801080108010801080108010805A
:10A730001080108010801080108010801080108099
:10A740001080E0FFE0FFE0FFE0FFE0FFE0FFE0FF60
:10A75000E0FFE0FFE0FFE0FFE0FFE0FFE0FFE0FF01
:10A76000E0FFE0FFE0FFE0FFE0FFE0FFE0FFE0FFF1
:10A77000E0FFE0FFE0FFE0FFE0FFE0FFE0FFE0FFE1
:10A78000E0FFE0FFE0FFE0FFE0FFE0FFE0FFE0FFD1
:10A79000E0FFE0FFE0FFE0FFE0FF1000100010002E
:10A7A0001000100010001000100010001000100029
:10A7B00010001000100010001000E0FFE0FFE0FFAC
:10A7C0001000100010001000100010001000100009
:10A7D00010001000100010001000100010001000F9
:10A7E00010001000E0FFE0FF10001000100010004B
:10A7F00010001000100010001000100010001000D9
:10A80000100010001000100010001000E0FFE0FF2A
:10A8100010001000100010001000100010001000B8
:10A8200010001000100010001000100010001000A8
:10A8300010001000E0FFE0FF1000FFFF100010000C
:10A840001000FFFFFFFF10001000FFFFFFFFFFFFE2
:10A850001000100010001000FFFF1000E0FFE0FFEC
:10A86000FFFFFFFF10001000FFFF10001000FFFFB0
:10A870001000FFFF10001000FFFF10001000FFFF8E
:10A88000FFFF1000E0FFE0FF1000FFFF10001000CE
:10A89000FFFF10001000FFFF10001000100010005C
:10A8A000FFFF10001000FFFFFFFF1000E0FFE0FFC0
:10A8B0001000FFFF10001000FFFF10001000FFFF4E
:10A8C0001000100010001000FFFF1000FFFF10002C
:10A8D000FFFF1000E0FFE0FF1000FFFF100010007E
:10A8E000FFFF10001000FFFF100010001000FFFF1E
:10A8F0001000FFFFFFFF1000FFFF1000E0FFE0FF70
:10A900001000FFFF10001000FFFF10001000FFFFFD
:10A91000100010001000FFFF1000FFFF10001000DB
:10A92000FFFF1000E0FFE0FF1000FFFF100010002D
:10A93000FFFF10001000FFFF10001000FFFF1000CD
:10A940001000FFFFFFFFFFFFFFFFFFFFE0FFE0FF43
:10A950001000FFFF10001000FFFF10001000FFFFAD
:10A960001000FFFF10001000100010001000100079
:10A97000FFFF1000E0FFE0FFFFFFFFFFFFFF100001
:10A980001000FFFFFFFF10001000FFFFFFFFFFFFA1
:10A99000FFFF100010001000FFFF1000E0FFE0FFBD
:10A9A0001000100010001000100010001000100027
:10A9B0001000100010001000100010001000100017
:10A9C00010001000E0FFE0FF100010001000100069
:10A9D00010001000100010001000100010001000F7
:10A9E000100010001000100010001000E0FFE0FF49
:10A9F00010001000100010001000100010001000D7
:10AA000010001000100010001000100010001000C6
:10AA100010001000E0FFE0FF100010001000100018
:10AA200010001000100010001000100010001000A6
:10AA3000100010001000100010001000E0FFE0FFF8
:10AA4000E0FF1000100010001000100010001000B7
:10AA50001000100010001000100010001000100076
:10AA60001000E0FFE0FFE0FFE0FFE0FFE0FFE0FFBD
:10AA7000E0FFE0FFE0FFE0FFE0FFE0FFE0FFE0FFDE
:10AA8000E0FFE0FFE0FFE0FFE0FFE0FFE0FFE0FFCE
:10AA9000E0FFE0FFE0FFE0FFE0FFE0FFE0FFE0FFBE
:10AAA000E0FFE0FFE0FFE0FFE0FFE0FFE0FFE0FFAE
:10AAB000E0FFE0FFE0FFE0FFE0FFE007E007E00786
:10AAC000E007E007E007E007E007E007E007E0074E
:10AAD000E007E007E007E007E007E0FFE0FFE0FF56
:10AAE000E007E007E007E007E007E007E007E0072E
:10AAF000E007E007E007E007E007E007E007E0071E
:10AB0000E007E007E0FFE0FFE007E007E007E0071D
:10AB1000E007E007E007E007E007E007E007E007FD
:10AB2000E007E007E007E007E007E007E0FFE0FFFD
:10AB3000E007E007E007E007E007E007E007E007DD
:10AB4000E007E007E007E007E007E007E007E007CD
:10AB5000E007E007E0FFE0FF008000800080E00702
:10AB6000E00700F800F8E007E007E007E00718C694
:10AB7000E007E00700F800F8E007E007E0FFE0FF8B
:10AB80000080E007E007008000F8E007E00700F839
:10AB9000E007E00718C618C6E00700F8E007E0077E
:10ABA00000F8E007E0FFE0FFE007E007E0070080D3
:10ABB00000F8E007E00700F8E007E00718C618C64D
:10ABC000E00700F8E007E00700F8E007E0FFE0FF3B
:10ABD000E007E007E007008000F8E007E00700F882
:10ABE000E00718C6E00718C6E00700F8E007E0072E
:10ABF00000F8E007E0FFE0FFE007E0070080E00783
:10AC000000F8E007E00700F818C618C6E00718C605
:10AC1000E007E00700F800F8E007E007E0FFE0FFEA
:10AC2000E007E0070080E00700F8E007E00700F831
:10AC300018C6E007E00718C6E00700F8E007E007DD
:10AC400000F8E007E0FFE0FFE0070080E007E00732
:10AC500000F8E007E00700F818C618C618C618C6BE
:10AC600018C600F8E007E00700F8E007E0FFE0FFA3
:10AC70000080E007E007E00700F8E007E00700F8E1
:10AC8000E007E007E00718C6E00700F8E007E00784
:10AC900000F8E007E0FFE0FF008000800080008017
:10ACA000E00700F800F8E007E007E007E00718C653
:10ACB000E007E00700F800F8E007E007E0FFE0FF4A
:10ACC000E007E007E007E007E007E007E007E0074C
:10ACD000E007E007E007E007E007E007E007E0073C
:10ACE000E007E007E0FFE0FFE007E007E007E0073C
:10ACF000E007E007E007E007E007E007E007E0071C
:10AD0000E007E007E007E007E007E007E0FFE0FF1B
:10AD1000E007E007E007E007E007E007E007E007FB
:10AD2000E007E007E007E007E007E007E007E007EB
:10AD3000E007E007E0FFE0FFE007E007E007E007EB
:10AD4000E007E007E007E007E007E007E007E007CB
:10AD5000E007E007E007E007E007E007E0FFE0FFCB
:10AD6000E0FFE007E007E007E007E007E007E007B3
:10AD7000E007E007E007E007E007E007E007E0079B
:10AD8000E007E0FFE0FFE0FFE0FFE0FFE0FFE0FFC3
:10AD9000E0FFE0FFE0FFE0FFE0FFE0FFE0FFE0FFBB
:10ADA000E0FFE0FFE0FFE0FFE0FFE0FFE0FFE0FFAB
:10ADB000E0FFE0FFE0FFE0FFE0FFE0FFE0FFE0FF9B
:10ADC000E0FFE0FFE0FFE0FFE0FFE0FFE0FFE0FF8B
:10ADD000E0FFE0FFE0FFE0FFE0FF00F800F800F830
:10ADE00000F800F800F800F800F800F800F800F8A3
:10ADF00000F800F800F800F800F8E0FFE0FFE0FFDE
:10AE000000F800F800F800F800F800F800F800F882
:10AE100000F800F800F800F800F800F800F800F872
:10AE200000F800F8E0FFE0FF00F800F800F800F894
:10AE300000F800F800F800F800F800F800F800F852
:10AE400000F800F800F800F800F800F8E0FFE0FF74
:10AE500000F800F800F800F800F800F800F800F832
:10AE600000F800F800F800F800F800F800F800F822
:10AE700000F800F8E0FFE0FF00F800F800F80080BC
:10AE800000F800F8E0FFE0FF00F800F810041004FC
:10AE900000F800F800F8FF07FF0700F8E0FFE0FF08
:10AEA00000F800F80080008000F8E0FF00F800F8EB
:10AEB000E0FF100400F800F8100400F8FF0700F8A5
:10AEC00000F8FF07E0FFE0FF00F800F800800080D6
:10AED00000F8E0FF00F800F8E0FF100400F800F8C8
:10AEE000100400F8FF0700F800F800F8E0FFE0FFAA
:10AEF00000F8008000F8008000F8E0FF00F800F89B
:10AF0000E0FF100400F800F8100400F8FF0700F854
:10AF1000FF0700F8E0FFE0FF0080008000F80080FD
:10AF200000F8E0FF00F800F8E0FF00F8100410045B
:10AF300000F800F8FF07FF0700F8FF07E0FFE0FF59
:10AF4000008000F800F8008000F8E0FF00F800F84A
:10AF5000E0FF00F800F800F8100400F8FF0700F820
:10AF600000F8FF07E0FFE0FF008000800080008025
:10AF70000080E0FF00F800F8E0FF00F800F800F8BB
:10AF8000100400F8FF0700F800F8FF07E0FFE0FFFB
:10AF900000F800F800F8008000F8E0FF00F800F882
:10AFA000E0FF00F800F800F8100400F8FF0700F8D0
:10AFB00000F8FF07E0FFE0FF00F800F800F800806D
:10AFC00000F800F8E0FFE0FF00F800F810041004BB
:10AFD00000F800F800F8FF07FF0700F8E0FFE0FFC7
:10AFE00000F800F800F800F800F800F800F800F8A1
:10AFF00000F800F800F800F800F800F800F800F891
:10B0000000F800F8E0FFE0FF00F800F800F800F8B2
:10B0100000F800F800F800F800F800F800F800F870
:10B0200000F800F800F800F800F800F8E0FFE0FF92
:10B0300000F800F800F800F800F800F800F800F850
:10B0400000F800F800F800F800F800F800F800F840
:10B0500000F800F8E0FFE0FF00F800F800F800F862
:10B0600000F800F800F800F800F800F800F800F820
:10B0700000F800F800F800F800F800F8E0FFE0FF42
:10B08000E0FF00F800F800F800F800F800F800F819
:10B0900000F800F800F800F800F800F800F800F8F0
:10B0A00000F8E0FFE0FFE0FFE0FFE0FFE0FFE0FF8F
:10B0B000E0FFE0FFE0FFE0FFE0FFE0FFE0FFE0FF98
:10B0C000E0FFE0FFE0FFE0FFE0FFE0FFE0FF000067
:10B0D000003FFFC07FFFE07FFFE07FFFE07FFFE0FA
:10B0E0007FFFE07FFFE07FFFE07FFFE07FFFE07F0B
:10B0F000FFE07FFFE07FFFE07FFFE07FFFE07FFF7B
:10B10000E07FFFE03FFFC000000000002CB100081E
:10B1100000000020A80700006C01000858B70008D4
:10B12000A8070020E00C0000C8010008226423FFEB
:10B13000FF120613C2011808313135323030450193
:10B1400012C833201C84A24A04D009010203040659
:10B1500007080913106014083060141820201430F8
:10B160006030100860FFF73FC01810248018181BCB
:10B17000180804120C101506F8F5071CF8F10F3822
:10B1800008030C70080306C00803031408830113A6
:10B1900008C32B80090418188301800C0301C00C1C
:10B1A000FF7FC00C03024004030660060306200470
:10B1B00010123002010618030106988901068CF965
:10B1C000180380E3F0012A8C0419141B0C030410EB
:10B1D0000A06F80F0C0CFC1F0C0C23100C3CD8FFBB
:10B1E0003F04398812082F1818080C300804280961
:10B1F000180C600C1806C004041710038007100315
:10B200002C03B0010418088007E020C00C60041073
:10B210001070206018F8203010DC20183086210CC7
:10B2200017032306C001371240131E10100CD01F45
:10B230004810C41F5210D01F08180DCC3F0A08E94F
:10B240007F08084808880801140A08042812022008
:10B250000220041004080804100220F94720040208
:10B260002A1012181B0484020201080508090801AB
:10B27000887FBF08C808A83F880898088C3F8B3E85
:10B280001902137F8A1284100C08020802FC7E1433
:10B2900009A210112015103F7E211021183F3821DE
:10B2A0005421543F12211121103F13FE1F1208197F
:10B2B000681480018014FF7F8089021AA0A12021D8
:10B2C00008148825E82484048404F67F86048524F1
:10B2D0008425C414B414840884488454A46244416A
:10B2E0002DFC1F24120214FC1F401220100CF00F22
:10B2F0000808160420024001C01238120712441830
:10B30000124420FE1E440244027C02447E44127C0D
:10B31000124402380CFF1220124411821181104095
:10B320006A1CFF7F203C12202DE00F2008021A101B
:10B330000219F21B0502BE29021808C83F08223F65
:10B340002208021BC87F10280C0538058708421008
:10B35000202010403E14881F88290249BE480988D1
:10B3600010880884040203802821100492045404E5
:10B37000107CFF2254229222112508147F144408C5
:10B380004208261418142C2243418023FE3F1AF849
:10B39000B823F80F2012FE7F0240F127100410049A
:10B3A000084404440378801C01FC7F0B2C04FC3F00
:10B3B0000614C40704200DF40F240842048203611C
:10B3C0000C1C70281FE23F24222422A02F202227B9
:10B3D00022E43F2420A42FA428B428AC2F2420202A
:10B3E0002810104A2BFF7F06195C5C1F40100215C5
:10B3F0000A4004402902180E0402FC7E1209A11022
:10B40000FC1F8010800612841284100CFC3FC020A8
:10B41000A02098148708802D080810083C192019CE
:10B42000AA3A80E4100D40014001200210040C18DB
:10B430000360100A0244024802C81F20022E02EFD5
:10B440003F88040210084824482428381423E27F47
:10B4500012041020E41F441084080F050402840D18
:10B4600064720C02C71F04020402E43F04020502D6
:10B4700002021029601610021001901A105E12507C
:10B480001908200B01100290045018306010192C7C
:10B490004817E83F0802C01F40124F12C81F080794
:10B4A000880A48122822080260298E1A202E150CBC
:10B4B00019F36712023F01F80F08088802174006C7
:10B4C00030180E20120113019E14927F5212321076
:10B4D0000C921F1210120812061E01921A40011A35
:10B4E00080401C080408013819BE7FAA406A202A3F
:10B4F000012A113E090A0508032841784147410203
:10B500007E60111220295629014908A90E19741BC1
:10B51000023E0413803F2D227F220402200E2112BE
:10B52000212221BF20A220401420081BFE3FE05909
:10B53000026BFF7F0A19784604040402041CFE3FD4
:10B540008068E9021AFF9E41897469041F0808FF98
:10B550007F2002441F080410400884EC1814E87D82
:10B5600041044202C23D482148114411477D441123
:10B5700024021B9415A0120412141018247E2440D7
:10B5800004407CA4072824102410142814480844DC
:10B590004C02522C6180406A2809FC1F84108410E0
:10B5A000FC1F0C2FFE3F82208220064986417BFC37
:10B5B0001FC199022916313B043EF51E223F3E244D
:10B5C00022024906100B222272220F218014400809
:10B5D00012083B1FFC4A496029D869E212A02240A8
:10B5E0001D02040208021119022BEF7F0A49023CD6
:10B5F00028021816380804027C7E12090184890486
:10B60000200B1004FF7F10040804040468177C3E1C
:10B61000442244227C3E80048008FF7F40013006A3
:10B620000C18036016111924181E0804C87F414421
:10B6300042245204D03F482148114712440A44048E
:10B64000240A24119060081E1E0A048A3F3E061830
:10B6500016C97F081038108F7F0A100811081208C9
:10B66000100814080840A814FE3F40100B2222F4D2
:10B670001188084412F227AA04C412801688088888
:10B6800010441AFC2412201816E01F501090108845
:10B6900008080504020205C0183860401084102B09
:10B6A000E83FE02C0F02E8E210090508098810487D
:10B6B000101423E27F100808010802C83F082DBFBC
:10B6C0001008091E18081802EC7F0B11880E1816B6
:10B6D00008068A1964201002100212021201127F59
:10B6E000921052111202200F1A0A160A1204100A9E
:10B6F0001011902050401B840F8217088008407062
:10B700002F2CC81F887E1D0928051868280BC01813
:10B710003060FE3F2222FE3FC41280ADF80F0808C1
:10B72000041AFF800128121F171FF8122BFF07A011
:10B7300012F8FF7F40BC1FF803060B11181F272FBC
:10B740003842620AC202490D2D0102030404200995
:08B750000607080902040608BF
:0400000508000131BD
:00000001FF
