Component: ARM Compiler 5.05 update 1 (build 106) Tool: armlink [4d0efa]

==============================================================================

Section Cross References

    main.o(.text) refers to lcd.o(.text) for LCD_ShowChar
    main.o(.text) refers to delay.o(.text) for delay_ms
    main.o(.text) refers to key.o(.data) for KeyState
    main.o(.text) refers to main.o(.data) for Command
    main.o(.text) refers to lcd.o(.data) for BACK_COLOR
    main.o(.text) refers to stm32f10x_tim.o(.text) for TIM_SetCompare1
    main.o(.text) refers to usart3.o(.text) for USART3_Config
    main.o(.text) refers to catbox.o(.text) for CatBox_ShowIndex
    main.o(.text) refers to timer.o(.data) for memref
    main.o(.text) refers to rscube.o(.text) for RSCube_Move
    main.o(.text) refers to snake.o(.text) for Snake_DealKeyDown
    main.o(.text) refers to x2048.o(.text) for X2048_Move
    main.o(.text) refers to usart.o(.data) for USART_RX_STA
    main.o(.text) refers to usart.o(.bss) for USART_RX_BUF
    main.o(.text) refers to timer.o(.text) for TIM2_PWM_Init
    main.o(.text) refers to usart3.o(.data) for USART3_RX_NUM
    main.o(.text) refers to key.o(.text) for KEY_Scan
    main.o(.text) refers to led.o(.text) for LED_Init
==============================================================================

Removing Unused input sections from the image.

    Removing sys.o(.text), (12 bytes).
    Removing core_cm3.o(.emb_text), (32 bytes).

2 unused section(s) (total 44 bytes) removed from the image.

==============================================================================

Image Symbol Table

    Local Symbols

    Symbol Name                              Value     Ov Type        Size  Object(Section)

    ../clib/angel/boardlib.s                 0x00000000   Number         0  boardinit3.o ABSOLUTE
    ../clib/angel/boardlib.s                 0x00000000   Number         0  boardshut.o ABSOLUTE
    ../clib/angel/boardlib.s                 0x00000000   Number         0  boardinit2.o ABSOLUTE
    ../clib/angel/boardlib.s                 0x00000000   Number         0  boardinit1.o ABSOLUTE
    ../clib/angel/dczerorl2.s                0x00000000   Number         0  __dczerorl2.o ABSOLUTE
    ../clib/angel/handlers.s                 0x00000000   Number         0  __scatter_zi.o ABSOLUTE
    ../clib/angel/kernel.s                   0x00000000   Number         0  __rtentry4.o ABSOLUTE
    ../clib/angel/kernel.s                   0x00000000   Number         0  rtexit.o ABSOLUTE
    ../clib/angel/kernel.s                   0x00000000   Number         0  __rtentry.o ABSOLUTE
    ../clib/angel/kernel.s                   0x00000000   Number         0  rtexit2.o ABSOLUTE
    ../clib/angel/kernel.s                   0x00000000   Number         0  __rtentry2.o ABSOLUTE
    ../clib/angel/rt.s                       0x00000000   Number         0  rt_raise.o ABSOLUTE
    ../clib/angel/scatter.s                  0x00000000   Number         0  __scatter.o ABSOLUTE
    ../clib/angel/startup.s                  0x00000000   Number         0  __main.o ABSOLUTE
    ../clib/angel/sys.s                      0x00000000   Number         0  indicate_semi.o ABSOLUTE
    ../clib/angel/sys.s                      0x00000000   Number         0  use_no_semi_2.o ABSOLUTE
    ../clib/angel/sys.s                      0x00000000   Number         0  sys_stackheap_outer.o ABSOLUTE
    ../clib/angel/sys.s                      0x00000000   Number         0  use_no_semi.o ABSOLUTE
    ../clib/angel/sys.s                      0x00000000   Number         0  libspace.o ABSOLUTE
    ../clib/angel/sysapp.c                   0x00000000   Number         0  sys_wrch.o ABSOLUTE
    ../clib/angel/sysapp.c                   0x00000000   Number         0  sys_command.o ABSOLUTE
    ../clib/armsys.c                         0x00000000   Number         0  argv_veneer.o ABSOLUTE
    ../clib/armsys.c                         0x00000000   Number         0  no_argv.o ABSOLUTE
    ../clib/armsys.c                         0x00000000   Number         0  _get_argv_nomalloc.o ABSOLUTE
    ../clib/armsys.c                         0x00000000   Number         0  argv_veneer.o ABSOLUTE
    ../clib/heapalloc.c                      0x00000000   Number         0  hrguard.o ABSOLUTE
    ../clib/heapaux.c                        0x00000000   Number         0  heapauxi.o ABSOLUTE
    ../clib/libinit.s                        0x00000000   Number         0  libshutdown2.o ABSOLUTE
    ../clib/libinit.s                        0x00000000   Number         0  libshutdown.o ABSOLUTE
    ../clib/libinit.s                        0x00000000   Number         0  libinit2.o ABSOLUTE
    ../clib/libinit.s                        0x00000000   Number         0  libinit.o ABSOLUTE
    ../clib/memcpset.s                       0x00000000   Number         0  rt_memcpy_w.o ABSOLUTE
    ../clib/signal.c                         0x00000000   Number         0  defsig_other.o ABSOLUTE
    ../clib/signal.c                         0x00000000   Number         0  __raise.o ABSOLUTE
    ../clib/signal.c                         0x00000000   Number         0  defsig_rtmem_outer.o ABSOLUTE
    ../clib/signal.c                         0x00000000   Number         0  defsig_rtmem_formal.o ABSOLUTE
    ../clib/signal.c                         0x00000000   Number         0  defsig_abrt_inner.o ABSOLUTE
    ../clib/signal.c                         0x00000000   Number         0  defsig_fpe_inner.o ABSOLUTE
    ../clib/signal.c                         0x00000000   Number         0  defsig_rtred_inner.o ABSOLUTE
    ../clib/signal.c                         0x00000000   Number         0  defsig_stak_inner.o ABSOLUTE
    ../clib/signal.c                         0x00000000   Number         0  defsig_pvfn_inner.o ABSOLUTE
    ../clib/signal.c                         0x00000000   Number         0  defsig_cppl_inner.o ABSOLUTE
    ../clib/signal.c                         0x00000000   Number         0  defsig_general.o ABSOLUTE
    ../clib/signal.c                         0x00000000   Number         0  defsig_rtmem_inner.o ABSOLUTE
    ../clib/signal.c                         0x00000000   Number         0  defsig_segv_inner.o ABSOLUTE
    ../clib/signal.c                         0x00000000   Number         0  defsig_exit.o ABSOLUTE
    ../clib/signal.s                         0x00000000   Number         0  defsig.o ABSOLUTE
    ../clib/stdlib.c                         0x00000000   Number         0  exit.o ABSOLUTE
    ../clib/stdlib.c                         0x00000000   Number         0  rand.o ABSOLUTE
    ../clib/stdlib.c                         0x00000000   Number         0  rand.o ABSOLUTE
    ../fplib/ffixu.s                         0x00000000   Number         0  ffixu.o ABSOLUTE
    ../fplib/fmul.s                          0x00000000   Number         0  fmul.o ABSOLUTE
    ../fplib/fnaninf.s                       0x00000000   Number         0  fnaninf.o ABSOLUTE
    ../fplib/fpinit.s                        0x00000000   Number         0  fpinit.o ABSOLUTE
    ../fplib/fretinf.s                       0x00000000   Number         0  fretinf.o ABSOLUTE
    ../fplib/usenofp.s                       0x00000000   Number         0  usenofp.o ABSOLUTE
    ..\CORE\core_cm3.c                       0x00000000   Number         0  core_cm3.o ABSOLUTE
    ..\CORE\startup_stm32f10x_hd.s           0x00000000   Number         0  startup_stm32f10x_hd.o ABSOLUTE
    ..\HARDWARE\Brick\brick.c                0x00000000   Number         0  brick.o ABSOLUTE
    ..\HARDWARE\Calculator\calculator.c      0x00000000   Number         0  calculator.o ABSOLUTE
    ..\HARDWARE\CatBox\catbox.c              0x00000000   Number         0  catbox.o ABSOLUTE
    ..\HARDWARE\EXTI\exti.c                  0x00000000   Number         0  exti.o ABSOLUTE
    ..\HARDWARE\KEY\key.c                    0x00000000   Number         0  key.o ABSOLUTE
    ..\HARDWARE\LCD\lcd.c                    0x00000000   Number         0  lcd.o ABSOLUTE
    ..\HARDWARE\LED\LED.c                    0x00000000   Number         0  led.o ABSOLUTE
    ..\HARDWARE\RSCube\rscube.c              0x00000000   Number         0  rscube.o ABSOLUTE
    ..\HARDWARE\Snake\snake.c                0x00000000   Number         0  snake.o ABSOLUTE
    ..\HARDWARE\TIMER\timer.c                0x00000000   Number         0  timer.o ABSOLUTE
    ..\HARDWARE\USART3\usart3.c              0x00000000   Number         0  usart3.o ABSOLUTE
    ..\HARDWARE\X2048\X2048.c                0x00000000   Number         0  x2048.o ABSOLUTE
    ..\STM32F10x_FWLib\src\misc.c            0x00000000   Number         0  misc.o ABSOLUTE
    ..\STM32F10x_FWLib\src\stm32f10x_exti.c  0x00000000   Number         0  stm32f10x_exti.o ABSOLUTE
    ..\STM32F10x_FWLib\src\stm32f10x_gpio.c  0x00000000   Number         0  stm32f10x_gpio.o ABSOLUTE
    ..\STM32F10x_FWLib\src\stm32f10x_rcc.c   0x00000000   Number         0  stm32f10x_rcc.o ABSOLUTE
    ..\STM32F10x_FWLib\src\stm32f10x_tim.c   0x00000000   Number         0  stm32f10x_tim.o ABSOLUTE
    ..\STM32F10x_FWLib\src\stm32f10x_usart.c 0x00000000   Number         0  stm32f10x_usart.o ABSOLUTE
    ..\SYSTEM\delay\delay.c                  0x00000000   Number         0  delay.o ABSOLUTE
    ..\SYSTEM\sys\sys.c                      0x00000000   Number         0  sys.o ABSOLUTE
    ..\SYSTEM\usart\usart.c                  0x00000000   Number         0  usart.o ABSOLUTE
    ..\\CORE\\core_cm3.c                     0x00000000   Number         0  core_cm3.o ABSOLUTE
    dc.s                                     0x00000000   Number         0  dc.o ABSOLUTE
    main.c                                   0x00000000   Number         0  main.o ABSOLUTE
    stm32f10x_it.c                           0x00000000   Number         0  stm32f10x_it.o ABSOLUTE
    system_stm32f10x.c                       0x00000000   Number         0  system_stm32f10x.o ABSOLUTE
    RESET                                    0x08000000   Section      304  startup_stm32f10x_hd.o(RESET)
    !!!main                                  0x08000130   Section        8  __main.o(!!!main)
    !!!scatter                               0x08000138   Section       52  __scatter.o(!!!scatter)
    !!dczerorl2                              0x0800016c   Section       90  __dczerorl2.o(!!dczerorl2)
    !!handler_zi                             0x080001c8   Section       28  __scatter_zi.o(!!handler_zi)
    .ARM.Collect$$libinit$$00000000          0x080001e4   Section        2  libinit.o(.ARM.Collect$$libinit$$00000000)
    .ARM.Collect$$libinit$$00000002          0x080001e6   Section        0  libinit2.o(.ARM.Collect$$libinit$$00000002)
    .ARM.Collect$$libinit$$00000004          0x080001e6   Section        0  libinit2.o(.ARM.Collect$$libinit$$00000004)
    .ARM.Collect$$libinit$$0000000A          0x080001e6   Section        0  libinit2.o(.ARM.Collect$$libinit$$0000000A)
    .ARM.Collect$$libinit$$0000000C          0x080001e6   Section        0  libinit2.o(.ARM.Collect$$libinit$$0000000C)
    .ARM.Collect$$libinit$$0000000D          0x080001e6   Section        4  libinit2.o(.ARM.Collect$$libinit$$0000000D)
    .ARM.Collect$$libinit$$0000000E          0x080001ea   Section        0  libinit2.o(.ARM.Collect$$libinit$$0000000E)
    .ARM.Collect$$libinit$$00000011          0x080001ea   Section        0  libinit2.o(.ARM.Collect$$libinit$$00000011)
    .ARM.Collect$$libinit$$00000013          0x080001ea   Section        0  libinit2.o(.ARM.Collect$$libinit$$00000013)
    .ARM.Collect$$libinit$$00000015          0x080001ea   Section        0  libinit2.o(.ARM.Collect$$libinit$$00000015)
    .ARM.Collect$$libinit$$00000017          0x080001ea   Section        0  libinit2.o(.ARM.Collect$$libinit$$00000017)
    .ARM.Collect$$libinit$$00000019          0x080001ea   Section        0  libinit2.o(.ARM.Collect$$libinit$$00000019)
    .ARM.Collect$$libinit$$0000001B          0x080001ea   Section        0  libinit2.o(.ARM.Collect$$libinit$$0000001B)
    .ARM.Collect$$libinit$$0000001D          0x080001ea   Section        0  libinit2.o(.ARM.Collect$$libinit$$0000001D)
    .ARM.Collect$$libinit$$0000001F          0x080001ea   Section        0  libinit2.o(.ARM.Collect$$libinit$$0000001F)
    .ARM.Collect$$libinit$$00000021          0x080001ea   Section        0  libinit2.o(.ARM.Collect$$libinit$$00000021)
    .ARM.Collect$$libinit$$00000023          0x080001ea   Section        0  libinit2.o(.ARM.Collect$$libinit$$00000023)
    .ARM.Collect$$libinit$$00000025          0x080001ea   Section        0  libinit2.o(.ARM.Collect$$libinit$$00000025)
    .ARM.Collect$$libinit$$0000002C          0x080001ea   Section        0  libinit2.o(.ARM.Collect$$libinit$$0000002C)
    .ARM.Collect$$libinit$$0000002E          0x080001ea   Section        0  libinit2.o(.ARM.Collect$$libinit$$0000002E)
    .ARM.Collect$$libinit$$00000030          0x080001ea   Section        0  libinit2.o(.ARM.Collect$$libinit$$00000030)
    .ARM.Collect$$libinit$$00000032          0x080001ea   Section        0  libinit2.o(.ARM.Collect$$libinit$$00000032)
    .ARM.Collect$$libinit$$00000033          0x080001ea   Section        2  libinit2.o(.ARM.Collect$$libinit$$00000033)
    .ARM.Collect$$libshutdown$$00000000      0x080001ec   Section        2  libshutdown.o(.ARM.Collect$$libshutdown$$00000000)
    .ARM.Collect$$libshutdown$$00000003      0x080001ee   Section        0  libshutdown2.o(.ARM.Collect$$libshutdown$$00000003)
    .ARM.Collect$$libshutdown$$00000006      0x080001ee   Section        0  libshutdown2.o(.ARM.Collect$$libshutdown$$00000006)
    .ARM.Collect$$libshutdown$$00000009      0x080001ee   Section        0  libshutdown2.o(.ARM.Collect$$libshutdown$$00000009)
    .ARM.Collect$$libshutdown$$0000000B      0x080001ee   Section        0  libshutdown2.o(.ARM.Collect$$libshutdown$$0000000B)
    .ARM.Collect$$libshutdown$$0000000E      0x080001ee   Section        0  libshutdown2.o(.ARM.Collect$$libshutdown$$0000000E)
    .ARM.Collect$$libshutdown$$0000000F      0x080001ee   Section        2  libshutdown2.o(.ARM.Collect$$libshutdown$$0000000F)
    .ARM.Collect$$rtentry$$00000000          0x080001f0   Section        0  __rtentry.o(.ARM.Collect$$rtentry$$00000000)
    .ARM.Collect$$rtentry$$00000002          0x080001f0   Section        0  __rtentry2.o(.ARM.Collect$$rtentry$$00000002)
    .ARM.Collect$$rtentry$$00000004          0x080001f0   Section        6  __rtentry4.o(.ARM.Collect$$rtentry$$00000004)
    .ARM.Collect$$rtentry$$00000009          0x080001f6   Section        0  __rtentry2.o(.ARM.Collect$$rtentry$$00000009)
    .ARM.Collect$$rtentry$$0000000A          0x080001f6   Section        4  __rtentry2.o(.ARM.Collect$$rtentry$$0000000A)
    .ARM.Collect$$rtentry$$0000000C          0x080001fa   Section        0  __rtentry2.o(.ARM.Collect$$rtentry$$0000000C)
    .ARM.Collect$$rtentry$$0000000D          0x080001fa   Section        8  __rtentry2.o(.ARM.Collect$$rtentry$$0000000D)
    .ARM.Collect$$rtexit$$00000000           0x08000202   Section        2  rtexit.o(.ARM.Collect$$rtexit$$00000000)
    .ARM.Collect$$rtexit$$00000002           0x08000204   Section        0  rtexit2.o(.ARM.Collect$$rtexit$$00000002)
    .ARM.Collect$$rtexit$$00000003           0x08000204   Section        4  rtexit2.o(.ARM.Collect$$rtexit$$00000003)
    .ARM.Collect$$rtexit$$00000004           0x08000208   Section        6  rtexit2.o(.ARM.Collect$$rtexit$$00000004)
    .emb_text                                0x08000210   Section       52  rand.o(.emb_text)
    .text                                    0x08000244   Section        0  main.o(.text)
    .text                                    0x08001edc   Section        0  stm32f10x_it.o(.text)
    .text                                    0x08001ef8   Section        0  system_stm32f10x.o(.text)
    SetSysClockTo72                          0x08001ef9   Thumb Code   214  system_stm32f10x.o(.text)
    SetSysClock                              0x08001fcf   Thumb Code     8  system_stm32f10x.o(.text)
    .text                                    0x080020d8   Section        0  led.o(.text)
    .text                                    0x0800210c   Section        0  lcd.o(.text)
    .text                                    0x08002ec8   Section        0  key.o(.text)
    .text                                    0x08002fd8   Section        0  timer.o(.text)
    .text                                    0x0800327c   Section        0  catbox.o(.text)
    .text                                    0x08003db8   Section        0  exti.o(.text)
    .text                                    0x08003f00   Section        0  rscube.o(.text)
    .text                                    0x080049a8   Section        0  snake.o(.text)
    .text                                    0x08005414   Section        0  x2048.o(.text)
    .text                                    0x08005848   Section        0  usart3.o(.text)
    .text                                    0x08005ca0   Section        0  delay.o(.text)
    .text                                    0x08005d74   Section        0  usart.o(.text)
    .text                                    0x08005eb0   Section       64  startup_stm32f10x_hd.o(.text)
    .text                                    0x08005ef0   Section        0  misc.o(.text)
    .text                                    0x08005fcc   Section        0  stm32f10x_gpio.o(.text)
    .text                                    0x08006328   Section        0  stm32f10x_rcc.o(.text)
    .text                                    0x080066cc   Section        0  stm32f10x_usart.o(.text)
    .text                                    0x08006ad4   Section        0  stm32f10x_tim.o(.text)
    TI4_Config                               0x08006f7b   Thumb Code   130  stm32f10x_tim.o(.text)
    TI3_Config                               0x0800700f   Thumb Code   122  stm32f10x_tim.o(.text)
    TI2_Config                               0x080070a3   Thumb Code   130  stm32f10x_tim.o(.text)
    TI1_Config                               0x08007137   Thumb Code   108  stm32f10x_tim.o(.text)
    .text                                    0x080078f0   Section        0  stm32f10x_exti.o(.text)
    .text                                    0x08007a0c   Section        2  use_no_semi_2.o(.text)
    .text                                    0x08007a10   Section        0  rand.o(.text)
    .text                                    0x08007a4c   Section      100  rt_memcpy_w.o(.text)
    .text                                    0x08007ab0   Section        0  heapauxi.o(.text)
    .text                                    0x08007ab6   Section        2  use_no_semi.o(.text)
    .text                                    0x08007ab8   Section       74  sys_stackheap_outer.o(.text)
    .text                                    0x08007b02   Section        0  exit.o(.text)
    .text                                    0x08007b10   Section        8  libspace.o(.text)
    x$fpl$ffixu                              0x08007b18   Section       62  ffixu.o(x$fpl$ffixu)
    x$fpl$fmul                               0x08007b58   Section      258  fmul.o(x$fpl$fmul)
    x$fpl$fnaninf                            0x08007c5a   Section      140  fnaninf.o(x$fpl$fnaninf)
    x$fpl$fretinf                            0x08007ce6   Section       10  fretinf.o(x$fpl$fretinf)
    .constdata                               0x08007cf0   Section     2612  lcd.o(.constdata)
    x$fpl$usenofp                            0x08007cf0   Section        0  usenofp.o(x$fpl$usenofp)
    .constdata                               0x08008724   Section     1020  catbox.o(.constdata)
    .constdata                               0x08008b20   Section       46  snake.o(.constdata)
    .constdata                               0x08008b4e   Section     9660  x2048.o(.constdata)
    .data                                    0x20000000   Section       26  main.o(.data)
    R                                        0x20000003   Data           1  main.o(.data)
    G                                        0x20000004   Data           1  main.o(.data)
    B                                        0x20000005   Data           1  main.o(.data)
    index                                    0x20000006   Data           1  main.o(.data)
    i                                        0x20000007   Data           1  main.o(.data)
    bound                                    0x20000008   Data           4  main.o(.data)
    buffer                                   0x2000000c   Data          10  main.o(.data)
    arr                                      0x20000016   Data           2  main.o(.data)
    psc                                      0x20000018   Data           2  main.o(.data)
    .data                                    0x2000001c   Section       20  system_stm32f10x.o(.data)
    .data                                    0x20000030   Section     1794  lcd.o(.data)
    .data                                    0x20000732   Section        8  key.o(.data)
    KEY0_DOWN_number                         0x20000734   Data           2  key.o(.data)
    KEY1_DOWN_number                         0x20000736   Data           2  key.o(.data)
    readKEY0                                 0x20000738   Data           1  key.o(.data)
    readKEY1                                 0x20000739   Data           1  key.o(.data)
    .data                                    0x2000073a   Section        8  timer.o(.data)
    .data                                    0x20000742   Section        3  catbox.o(.data)
    .data                                    0x20000746   Section       34  rscube.o(.data)
    .data                                    0x20000768   Section       26  snake.o(.data)
    countnum                                 0x20000781   Data           1  snake.o(.data)
    .data                                    0x20000782   Section        4  usart3.o(.data)
    .data                                    0x20000786   Section        4  delay.o(.data)
    fac_us                                   0x20000786   Data           1  delay.o(.data)
    fac_ms                                   0x20000788   Data           2  delay.o(.data)
    .data                                    0x2000078c   Section        6  usart.o(.data)
    .data                                    0x20000792   Section       20  stm32f10x_rcc.o(.data)
    APBAHBPrescTable                         0x20000792   Data          16  stm32f10x_rcc.o(.data)
    ADCPrescTable                            0x200007a2   Data           4  stm32f10x_rcc.o(.data)
    .bss                                     0x200007a8   Section      120  catbox.o(.bss)
    .bss                                     0x20000820   Section      440  rscube.o(.bss)
    .bss                                     0x200009d8   Section      800  snake.o(.bss)
    .bss                                     0x20000cf8   Section       16  x2048.o(.bss)
    .bss                                     0x20000d08   Section       40  usart3.o(.bss)
    .bss                                     0x20000d30   Section       20  usart.o(.bss)
    .bss                                     0x20000d44   Section      228  rand.o(.bss)
    .bss                                     0x20000e28   Section       96  libspace.o(.bss)
    HEAP                                     0x20000e88   Section      512  startup_stm32f10x_hd.o(HEAP)
    Heap_Mem                                 0x20000e88   Data         512  startup_stm32f10x_hd.o(HEAP)
    STACK                                    0x20001088   Section     1024  startup_stm32f10x_hd.o(STACK)
    Stack_Mem                                0x20001088   Data        1024  startup_stm32f10x_hd.o(STACK)
    __initial_sp                             0x20001488   Data           0  startup_stm32f10x_hd.o(STACK)

    Global Symbols

    Symbol Name                              Value     Ov Type        Size  Object(Section)

    BuildAttributes$$THM_ISAv4$P$D$K$B$S$PE$A:L22UL41UL21$X:L11$S22US41US21$IEEE1$IW$USESV6$~STKCKD$USESV7$~SHL$OSPACE$ROPI$EBA8$UX$STANDARDLIB$REQ8$PRES8$EABIv2 0x00000000   Number         0  anon$$obj.o ABSOLUTE
    __ARM_use_no_argv                        0x00000000   Number         0  main.o ABSOLUTE
    __ARM_exceptions_init                     - Undefined Weak Reference
    __alloca_initialize                       - Undefined Weak Reference
    __arm_preinit_                            - Undefined Weak Reference
    __cpp_initialize__aeabi_                  - Undefined Weak Reference
    __cxa_finalize                            - Undefined Weak Reference
    __rt_locale                               - Undefined Weak Reference
    __sigvec_lookup                           - Undefined Weak Reference
    _atexit_init                              - Undefined Weak Reference
    _call_atexit_fns                          - Undefined Weak Reference
    _clock_init                               - Undefined Weak Reference
    _fp_trap_init                             - Undefined Weak Reference
    _fp_trap_shutdown                         - Undefined Weak Reference
    _get_lc_collate                           - Undefined Weak Reference
    _get_lc_ctype                             - Undefined Weak Reference
    _get_lc_monetary                          - Undefined Weak Reference
    _get_lc_numeric                           - Undefined Weak Reference
    _get_lc_time                              - Undefined Weak Reference
    _getenv_init                              - Undefined Weak Reference
    _handle_redirection                       - Undefined Weak Reference
    _init_alloc                               - Undefined Weak Reference
    _init_user_alloc                          - Undefined Weak Reference
    _initio                                   - Undefined Weak Reference
    _signal_finish                            - Undefined Weak Reference
    _signal_init                              - Undefined Weak Reference
    _terminate_alloc                          - Undefined Weak Reference
    _terminate_user_alloc                     - Undefined Weak Reference
    _terminateio                              - Undefined Weak Reference
    __Vectors_Size                           0x00000130   Number         0  startup_stm32f10x_hd.o ABSOLUTE
    __Vectors                                0x08000000   Data           4  startup_stm32f10x_hd.o(RESET)
    __Vectors_End                            0x08000130   Data           0  startup_stm32f10x_hd.o(RESET)
    __main                                   0x08000131   Thumb Code     8  __main.o(!!!main)
    __scatterload                            0x08000139   Thumb Code     0  __scatter.o(!!!scatter)
    __scatterload_rt2                        0x08000139   Thumb Code    44  __scatter.o(!!!scatter)
    __scatterload_rt2_thumb_only             0x08000139   Thumb Code     0  __scatter.o(!!!scatter)
    __scatterload_null                       0x08000147   Thumb Code     0  __scatter.o(!!!scatter)
    __decompress                             0x0800016d   Thumb Code    90  __dczerorl2.o(!!dczerorl2)
    __decompress1                            0x0800016d   Thumb Code     0  __dczerorl2.o(!!dczerorl2)
    __scatterload_zeroinit                   0x080001c9   Thumb Code    28  __scatter_zi.o(!!handler_zi)
    __rt_lib_init                            0x080001e5   Thumb Code     0  libinit.o(.ARM.Collect$$libinit$$00000000)
    __rt_lib_init_fp_1                       0x080001e7   Thumb Code     0  libinit2.o(.ARM.Collect$$libinit$$00000002)
    __rt_lib_init_heap_1                     0x080001e7   Thumb Code     0  libinit2.o(.ARM.Collect$$libinit$$0000000A)
    __rt_lib_init_preinit_1                  0x080001e7   Thumb Code     0  libinit2.o(.ARM.Collect$$libinit$$00000004)
    __rt_lib_init_rand_2                     0x080001e7   Thumb Code     0  libinit2.o(.ARM.Collect$$libinit$$0000000D)
    __rt_lib_init_user_alloc_1               0x080001e7   Thumb Code     0  libinit2.o(.ARM.Collect$$libinit$$0000000C)
    __rt_lib_init_alloca_1                   0x080001eb   Thumb Code     0  libinit2.o(.ARM.Collect$$libinit$$0000002E)
    __rt_lib_init_argv_1                     0x080001eb   Thumb Code     0  libinit2.o(.ARM.Collect$$libinit$$0000002C)
    __rt_lib_init_atexit_1                   0x080001eb   Thumb Code     0  libinit2.o(.ARM.Collect$$libinit$$0000001B)
    __rt_lib_init_clock_1                    0x080001eb   Thumb Code     0  libinit2.o(.ARM.Collect$$libinit$$00000021)
    __rt_lib_init_cpp_1                      0x080001eb   Thumb Code     0  libinit2.o(.ARM.Collect$$libinit$$00000032)
    __rt_lib_init_exceptions_1               0x080001eb   Thumb Code     0  libinit2.o(.ARM.Collect$$libinit$$00000030)
    __rt_lib_init_fp_trap_1                  0x080001eb   Thumb Code     0  libinit2.o(.ARM.Collect$$libinit$$0000001F)
    __rt_lib_init_getenv_1                   0x080001eb   Thumb Code     0  libinit2.o(.ARM.Collect$$libinit$$00000023)
    __rt_lib_init_lc_collate_1               0x080001eb   Thumb Code     0  libinit2.o(.ARM.Collect$$libinit$$00000011)
    __rt_lib_init_lc_ctype_1                 0x080001eb   Thumb Code     0  libinit2.o(.ARM.Collect$$libinit$$00000013)
    __rt_lib_init_lc_monetary_1              0x080001eb   Thumb Code     0  libinit2.o(.ARM.Collect$$libinit$$00000015)
    __rt_lib_init_lc_numeric_1               0x080001eb   Thumb Code     0  libinit2.o(.ARM.Collect$$libinit$$00000017)
    __rt_lib_init_lc_time_1                  0x080001eb   Thumb Code     0  libinit2.o(.ARM.Collect$$libinit$$00000019)
    __rt_lib_init_rand_1                     0x080001eb   Thumb Code     0  libinit2.o(.ARM.Collect$$libinit$$0000000E)
    __rt_lib_init_return                     0x080001eb   Thumb Code     0  libinit2.o(.ARM.Collect$$libinit$$00000033)
    __rt_lib_init_signal_1                   0x080001eb   Thumb Code     0  libinit2.o(.ARM.Collect$$libinit$$0000001D)
    __rt_lib_init_stdio_1                    0x080001eb   Thumb Code     0  libinit2.o(.ARM.Collect$$libinit$$00000025)
    __rt_lib_shutdown                        0x080001ed   Thumb Code     0  libshutdown.o(.ARM.Collect$$libshutdown$$00000000)
    __rt_lib_shutdown_fp_trap_1              0x080001ef   Thumb Code     0  libshutdown2.o(.ARM.Collect$$libshutdown$$00000006)
    __rt_lib_shutdown_heap_1                 0x080001ef   Thumb Code     0  libshutdown2.o(.ARM.Collect$$libshutdown$$0000000E)
    __rt_lib_shutdown_return                 0x080001ef   Thumb Code     0  libshutdown2.o(.ARM.Collect$$libshutdown$$0000000F)
    __rt_lib_shutdown_signal_1               0x080001ef   Thumb Code     0  libshutdown2.o(.ARM.Collect$$libshutdown$$00000009)
    __rt_lib_shutdown_stdio_1                0x080001ef   Thumb Code     0  libshutdown2.o(.ARM.Collect$$libshutdown$$00000003)
    __rt_lib_shutdown_user_alloc_1           0x080001ef   Thumb Code     0  libshutdown2.o(.ARM.Collect$$libshutdown$$0000000B)
    __rt_entry                               0x080001f1   Thumb Code     0  __rtentry.o(.ARM.Collect$$rtentry$$00000000)
    __rt_entry_presh_1                       0x080001f1   Thumb Code     0  __rtentry2.o(.ARM.Collect$$rtentry$$00000002)
    __rt_entry_sh                            0x080001f1   Thumb Code     0  __rtentry4.o(.ARM.Collect$$rtentry$$00000004)
    __rt_entry_li                            0x080001f7   Thumb Code     0  __rtentry2.o(.ARM.Collect$$rtentry$$0000000A)
    __rt_entry_postsh_1                      0x080001f7   Thumb Code     0  __rtentry2.o(.ARM.Collect$$rtentry$$00000009)
    __rt_entry_main                          0x080001fb   Thumb Code     0  __rtentry2.o(.ARM.Collect$$rtentry$$0000000D)
    __rt_entry_postli_1                      0x080001fb   Thumb Code     0  __rtentry2.o(.ARM.Collect$$rtentry$$0000000C)
    __rt_exit                                0x08000203   Thumb Code     0  rtexit.o(.ARM.Collect$$rtexit$$00000000)
    __rt_exit_ls                             0x08000205   Thumb Code     0  rtexit2.o(.ARM.Collect$$rtexit$$00000003)
    __rt_exit_prels_1                        0x08000205   Thumb Code     0  rtexit2.o(.ARM.Collect$$rtexit$$00000002)
    __rt_exit_exit                           0x08000209   Thumb Code     0  rtexit2.o(.ARM.Collect$$rtexit$$00000004)
    rand                                     0x08000211   Thumb Code    48  rand.o(.emb_text)
    Getchoice                                0x08000245   Thumb Code   296  main.o(.text)
    MenuGame                                 0x0800036d   Thumb Code   316  main.o(.text)
    MenuSet                                  0x080004a9   Thumb Code  1264  main.o(.text)
    MenuMain                                 0x08000999   Thumb Code   192  main.o(.text)
    MenuTool                                 0x08000a59   Thumb Code   226  main.o(.text)
    MenuToolSerialAssit                      0x08000b3b   Thumb Code   482  main.o(.text)
    MenuGameCatbox                           0x08000d1d   Thumb Code   298  main.o(.text)
    GetCommand                               0x08000e47   Thumb Code   674  main.o(.text)
    DealRecive                               0x080010e9   Thumb Code   652  main.o(.text)
    DealShift                                0x08001375   Thumb Code   224  main.o(.text)
    MenuPWMOut                               0x08001455   Thumb Code  1650  main.o(.text)
    DealKey                                  0x08001ac7   Thumb Code   430  main.o(.text)
    main                                     0x08001c75   Thumb Code   570  main.o(.text)
    NMI_Handler                              0x08001edd   Thumb Code     2  stm32f10x_it.o(.text)
    HardFault_Handler                        0x08001edf   Thumb Code     4  stm32f10x_it.o(.text)
    MemManage_Handler                        0x08001ee3   Thumb Code     4  stm32f10x_it.o(.text)
    BusFault_Handler                         0x08001ee7   Thumb Code     4  stm32f10x_it.o(.text)
    UsageFault_Handler                       0x08001eeb   Thumb Code     4  stm32f10x_it.o(.text)
    SVC_Handler                              0x08001eef   Thumb Code     2  stm32f10x_it.o(.text)
    DebugMon_Handler                         0x08001ef1   Thumb Code     2  stm32f10x_it.o(.text)
    PendSV_Handler                           0x08001ef3   Thumb Code     2  stm32f10x_it.o(.text)
    SysTick_Handler                          0x08001ef5   Thumb Code     2  stm32f10x_it.o(.text)
    SystemInit                               0x08001fd7   Thumb Code    78  system_stm32f10x.o(.text)
    SystemCoreClockUpdate                    0x08002025   Thumb Code   142  system_stm32f10x.o(.text)
    LED_Init                                 0x080020d9   Thumb Code    48  led.o(.text)
    LCD_Writ_Bus                             0x0800210d   Thumb Code    76  lcd.o(.text)
    LCD_WR_DATA8                             0x08002159   Thumb Code    20  lcd.o(.text)
    LCD_WR_DATA                              0x0800216d   Thumb Code    26  lcd.o(.text)
    LCD_WR_REG                               0x08002187   Thumb Code    20  lcd.o(.text)
    LCD_Address_Set                          0x0800219b   Thumb Code    70  lcd.o(.text)
    LCD_Init                                 0x080021e1   Thumb Code   536  lcd.o(.text)
    LCD_Clear                                0x080023f9   Thumb Code    48  lcd.o(.text)
    LCD_ClearRegion                          0x08002429   Thumb Code   106  lcd.o(.text)
    LCD_ClearPNG                             0x08002493   Thumb Code   488  lcd.o(.text)
    LCD_ShowChinese                          0x0800267b   Thumb Code   122  lcd.o(.text)
    LCD_DrawPoint                            0x080026f5   Thumb Code    32  lcd.o(.text)
    LCD_Fill                                 0x08002715   Thumb Code    74  lcd.o(.text)
    LCD_DrawPoint_big                        0x0800275f   Thumb Code    32  lcd.o(.text)
    LCD_DrawLine                             0x0800277f   Thumb Code   172  lcd.o(.text)
    LCD_DrawRectangle                        0x0800282b   Thumb Code    76  lcd.o(.text)
    Draw_Circle                              0x08002877   Thumb Code   158  lcd.o(.text)
    LCD_ShowChar                             0x08002915   Thumb Code   232  lcd.o(.text)
    LCD_ShowString                           0x080029fd   Thumb Code    72  lcd.o(.text)
    mypow                                    0x08002a45   Thumb Code    22  lcd.o(.text)
    LCD_ShowNum                              0x08002a5b   Thumb Code   104  lcd.o(.text)
    LCD_ShowNumLength                        0x08002ac3   Thumb Code   134  lcd.o(.text)
    LCD_ShowNum1                             0x08002b49   Thumb Code   140  lcd.o(.text)
    LCD_ShowPicture                          0x08002bd5   Thumb Code    80  lcd.o(.text)
    LCD_ShowPNG                              0x08002c25   Thumb Code   588  lcd.o(.text)
    Reversedate                              0x08002e71   Thumb Code    38  lcd.o(.text)
    LCD_RGB2u16                              0x08002e97   Thumb Code    44  lcd.o(.text)
    KEY_Init                                 0x08002ec9   Thumb Code    32  key.o(.text)
    KEY_Scan                                 0x08002ee9   Thumb Code   156  key.o(.text)
    KEY_Getkeypres                           0x08002f85   Thumb Code    36  key.o(.text)
    ClearState                               0x08002fa9   Thumb Code    24  key.o(.text)
    TIM3_Int_Init                            0x08002fd9   Thumb Code    90  timer.o(.text)
    TIM3_IRQHandler                          0x08003033   Thumb Code    32  timer.o(.text)
    TIM3_PWM_Init                            0x08003053   Thumb Code   122  timer.o(.text)
    TIM2_PWM_Init                            0x080030cd   Thumb Code   144  timer.o(.text)
    TIM4_PWM_Init                            0x0800315d   Thumb Code   140  timer.o(.text)
    TIM1_PWM_Init                            0x080031e9   Thumb Code   124  timer.o(.text)
    CatBox_CopyMap                           0x0800327d   Thumb Code    86  catbox.o(.text)
    CatBox_ClearMap                          0x080032d3   Thumb Code    40  catbox.o(.text)
    CatBox_InitMap                           0x080032fb   Thumb Code   950  catbox.o(.text)
    CatBox_ShowMap                           0x080036b1   Thumb Code   322  catbox.o(.text)
    CatBox_ShowSteps                         0x080037f3   Thumb Code    50  catbox.o(.text)
    CatBox_CheckMap                          0x08003825   Thumb Code    60  catbox.o(.text)
    CatBox_MoveCat                           0x08003861   Thumb Code  1128  catbox.o(.text)
    CatBox_DealWin                           0x08003cc9   Thumb Code    32  catbox.o(.text)
    CatBox_ShowIndex                         0x08003ce9   Thumb Code   172  catbox.o(.text)
    EXTIX_Init                               0x08003db9   Thumb Code   126  exti.o(.text)
    EXTI0_IRQHandler                         0x08003e37   Thumb Code    98  exti.o(.text)
    EXTI1_IRQHandler                         0x08003e99   Thumb Code    98  exti.o(.text)
    RSCube_PutOutLine                        0x08003f01   Thumb Code    20  rscube.o(.text)
    RSCube_PutOutScore                       0x08003f15   Thumb Code    66  rscube.o(.text)
    RSCube_PutOutSquire                      0x08003f57   Thumb Code   346  rscube.o(.text)
    RSCube_ProduceMap                        0x080040b1   Thumb Code   350  rscube.o(.text)
    RSCube_Paste                             0x0800420f   Thumb Code   372  rscube.o(.text)
    RSCube_ClearMap                          0x08004383   Thumb Code   148  rscube.o(.text)
    RSCube_CopyTo                            0x08004417   Thumb Code   308  rscube.o(.text)
    RSCube_JudgeRight                        0x0800454b   Thumb Code    82  rscube.o(.text)
    RSCube_JudgeLeft                         0x0800459d   Thumb Code    80  rscube.o(.text)
    RSCube_JudgeIfLine                       0x080045ed   Thumb Code    52  rscube.o(.text)
    RSCube_ClearLine                         0x08004621   Thumb Code   134  rscube.o(.text)
    RSCube_JudgeDown                         0x080046a7   Thumb Code    88  rscube.o(.text)
    RSCube_Move                              0x080046ff   Thumb Code   198  rscube.o(.text)
    RSCube_MoveBack                          0x080047c5   Thumb Code    22  rscube.o(.text)
    RSCube_JudgeIfCanPaste                   0x080047db   Thumb Code   402  rscube.o(.text)
    RSCube_JudgeIfLose                       0x0800496d   Thumb Code    38  rscube.o(.text)
    Snake_ShowScore                          0x080049a9   Thumb Code   224  snake.o(.text)
    Snake_ShowLine                           0x08004a89   Thumb Code    20  snake.o(.text)
    Snake_ShowMap                            0x08004a9d   Thumb Code   172  snake.o(.text)
    Snake_CopyTo                             0x08004b49   Thumb Code    90  snake.o(.text)
    Snake_NewSquire                          0x08004ba3   Thumb Code    92  snake.o(.text)
    Snake_Init                               0x08004bff   Thumb Code   174  snake.o(.text)
    Speed                                    0x08004cad   Thumb Code     6  snake.o(.text)
    Snake_CheckToEat                         0x08004cb3   Thumb Code   188  snake.o(.text)
    Snake_CheckIfMove                        0x08004d6f   Thumb Code   626  snake.o(.text)
    Snake_MoveTo                             0x08004fe1   Thumb Code   704  snake.o(.text)
    Snake_MoveOnItself                       0x080052a1   Thumb Code   160  snake.o(.text)
    Snake_Move                               0x08005341   Thumb Code    66  snake.o(.text)
    Snake_DealKeyDown                        0x08005383   Thumb Code   102  snake.o(.text)
    X2048_ShowMap                            0x08005415   Thumb Code   152  x2048.o(.text)
    X2048_NewNumber                          0x080054ad   Thumb Code   144  x2048.o(.text)
    X2048_Move                               0x0800553d   Thumb Code   718  x2048.o(.text)
    X2048_ClearMap                           0x0800580b   Thumb Code    58  x2048.o(.text)
    Usart3_Enable                            0x08005849   Thumb Code    54  usart3.o(.text)
    USART3_Config                            0x0800587f   Thumb Code   150  usart3.o(.text)
    USART3_IRQHandler                        0x08005915   Thumb Code    78  usart3.o(.text)
    Usart3_SendByte                          0x08005963   Thumb Code    30  usart3.o(.text)
    Usart3_SendArray                         0x08005981   Thumb Code    48  usart3.o(.text)
    Usart3_SendString                        0x080059b1   Thumb Code    42  usart3.o(.text)
    Usart3_SendHalfWord                      0x080059db   Thumb Code    60  usart3.o(.text)
    Usart3_StartServer                       0x08005a17   Thumb Code   222  usart3.o(.text)
    Usart3_DealKeyDown                       0x08005af5   Thumb Code   412  usart3.o(.text)
    delay_init                               0x08005ca1   Thumb Code    50  delay.o(.text)
    delay_us                                 0x08005cd3   Thumb Code    72  delay.o(.text)
    delay_ms                                 0x08005d1b   Thumb Code    72  delay.o(.text)
    _sys_exit                                0x08005d75   Thumb Code     6  usart.o(.text)
    fputc                                    0x08005d7b   Thumb Code    24  usart.o(.text)
    uart_init                                0x08005d93   Thumb Code   152  usart.o(.text)
    USART1_IRQHandler                        0x08005e2b   Thumb Code   112  usart.o(.text)
    Reset_Handler                            0x08005eb1   Thumb Code     8  startup_stm32f10x_hd.o(.text)
    ADC1_2_IRQHandler                        0x08005ecb   Thumb Code     0  startup_stm32f10x_hd.o(.text)
    ADC3_IRQHandler                          0x08005ecb   Thumb Code     0  startup_stm32f10x_hd.o(.text)
    CAN1_RX1_IRQHandler                      0x08005ecb   Thumb Code     0  startup_stm32f10x_hd.o(.text)
    CAN1_SCE_IRQHandler                      0x08005ecb   Thumb Code     0  startup_stm32f10x_hd.o(.text)
    DMA1_Channel1_IRQHandler                 0x08005ecb   Thumb Code     0  startup_stm32f10x_hd.o(.text)
    DMA1_Channel2_IRQHandler                 0x08005ecb   Thumb Code     0  startup_stm32f10x_hd.o(.text)
    DMA1_Channel3_IRQHandler                 0x08005ecb   Thumb Code     0  startup_stm32f10x_hd.o(.text)
    DMA1_Channel4_IRQHandler                 0x08005ecb   Thumb Code     0  startup_stm32f10x_hd.o(.text)
    DMA1_Channel5_IRQHandler                 0x08005ecb   Thumb Code     0  startup_stm32f10x_hd.o(.text)
    DMA1_Channel6_IRQHandler                 0x08005ecb   Thumb Code     0  startup_stm32f10x_hd.o(.text)
    DMA1_Channel7_IRQHandler                 0x08005ecb   Thumb Code     0  startup_stm32f10x_hd.o(.text)
    DMA2_Channel1_IRQHandler                 0x08005ecb   Thumb Code     0  startup_stm32f10x_hd.o(.text)
    DMA2_Channel2_IRQHandler                 0x08005ecb   Thumb Code     0  startup_stm32f10x_hd.o(.text)
    DMA2_Channel3_IRQHandler                 0x08005ecb   Thumb Code     0  startup_stm32f10x_hd.o(.text)
    DMA2_Channel4_5_IRQHandler               0x08005ecb   Thumb Code     0  startup_stm32f10x_hd.o(.text)
    EXTI15_10_IRQHandler                     0x08005ecb   Thumb Code     0  startup_stm32f10x_hd.o(.text)
    EXTI2_IRQHandler                         0x08005ecb   Thumb Code     0  startup_stm32f10x_hd.o(.text)
    EXTI3_IRQHandler                         0x08005ecb   Thumb Code     0  startup_stm32f10x_hd.o(.text)
    EXTI4_IRQHandler                         0x08005ecb   Thumb Code     0  startup_stm32f10x_hd.o(.text)
    EXTI9_5_IRQHandler                       0x08005ecb   Thumb Code     0  startup_stm32f10x_hd.o(.text)
    FLASH_IRQHandler                         0x08005ecb   Thumb Code     0  startup_stm32f10x_hd.o(.text)
    FSMC_IRQHandler                          0x08005ecb   Thumb Code     0  startup_stm32f10x_hd.o(.text)
    I2C1_ER_IRQHandler                       0x08005ecb   Thumb Code     0  startup_stm32f10x_hd.o(.text)
    I2C1_EV_IRQHandler                       0x08005ecb   Thumb Code     0  startup_stm32f10x_hd.o(.text)
    I2C2_ER_IRQHandler                       0x08005ecb   Thumb Code     0  startup_stm32f10x_hd.o(.text)
    I2C2_EV_IRQHandler                       0x08005ecb   Thumb Code     0  startup_stm32f10x_hd.o(.text)
    PVD_IRQHandler                           0x08005ecb   Thumb Code     0  startup_stm32f10x_hd.o(.text)
    RCC_IRQHandler                           0x08005ecb   Thumb Code     0  startup_stm32f10x_hd.o(.text)
    RTCAlarm_IRQHandler                      0x08005ecb   Thumb Code     0  startup_stm32f10x_hd.o(.text)
    RTC_IRQHandler                           0x08005ecb   Thumb Code     0  startup_stm32f10x_hd.o(.text)
    SDIO_IRQHandler                          0x08005ecb   Thumb Code     0  startup_stm32f10x_hd.o(.text)
    SPI1_IRQHandler                          0x08005ecb   Thumb Code     0  startup_stm32f10x_hd.o(.text)
    SPI2_IRQHandler                          0x08005ecb   Thumb Code     0  startup_stm32f10x_hd.o(.text)
    SPI3_IRQHandler                          0x08005ecb   Thumb Code     0  startup_stm32f10x_hd.o(.text)
    TAMPER_IRQHandler                        0x08005ecb   Thumb Code     0  startup_stm32f10x_hd.o(.text)
    TIM1_BRK_IRQHandler                      0x08005ecb   Thumb Code     0  startup_stm32f10x_hd.o(.text)
    TIM1_CC_IRQHandler                       0x08005ecb   Thumb Code     0  startup_stm32f10x_hd.o(.text)
    TIM1_TRG_COM_IRQHandler                  0x08005ecb   Thumb Code     0  startup_stm32f10x_hd.o(.text)
    TIM1_UP_IRQHandler                       0x08005ecb   Thumb Code     0  startup_stm32f10x_hd.o(.text)
    TIM2_IRQHandler                          0x08005ecb   Thumb Code     0  startup_stm32f10x_hd.o(.text)
    TIM4_IRQHandler                          0x08005ecb   Thumb Code     0  startup_stm32f10x_hd.o(.text)
    TIM5_IRQHandler                          0x08005ecb   Thumb Code     0  startup_stm32f10x_hd.o(.text)
    TIM6_IRQHandler                          0x08005ecb   Thumb Code     0  startup_stm32f10x_hd.o(.text)
    TIM7_IRQHandler                          0x08005ecb   Thumb Code     0  startup_stm32f10x_hd.o(.text)
    TIM8_BRK_IRQHandler                      0x08005ecb   Thumb Code     0  startup_stm32f10x_hd.o(.text)
    TIM8_CC_IRQHandler                       0x08005ecb   Thumb Code     0  startup_stm32f10x_hd.o(.text)
    TIM8_TRG_COM_IRQHandler                  0x08005ecb   Thumb Code     0  startup_stm32f10x_hd.o(.text)
    TIM8_UP_IRQHandler                       0x08005ecb   Thumb Code     0  startup_stm32f10x_hd.o(.text)
    UART4_IRQHandler                         0x08005ecb   Thumb Code     0  startup_stm32f10x_hd.o(.text)
    UART5_IRQHandler                         0x08005ecb   Thumb Code     0  startup_stm32f10x_hd.o(.text)
    USART2_IRQHandler                        0x08005ecb   Thumb Code     0  startup_stm32f10x_hd.o(.text)
    USBWakeUp_IRQHandler                     0x08005ecb   Thumb Code     0  startup_stm32f10x_hd.o(.text)
    USB_HP_CAN1_TX_IRQHandler                0x08005ecb   Thumb Code     0  startup_stm32f10x_hd.o(.text)
    USB_LP_CAN1_RX0_IRQHandler               0x08005ecb   Thumb Code     0  startup_stm32f10x_hd.o(.text)
    WWDG_IRQHandler                          0x08005ecb   Thumb Code     0  startup_stm32f10x_hd.o(.text)
    __user_initial_stackheap                 0x08005ecd   Thumb Code     0  startup_stm32f10x_hd.o(.text)
    NVIC_PriorityGroupConfig                 0x08005ef1   Thumb Code    10  misc.o(.text)
    NVIC_Init                                0x08005efb   Thumb Code   100  misc.o(.text)
    NVIC_SetVectorTable                      0x08005f5f   Thumb Code    14  misc.o(.text)
    NVIC_SystemLPConfig                      0x08005f6d   Thumb Code    34  misc.o(.text)
    SysTick_CLKSourceConfig                  0x08005f8f   Thumb Code    40  misc.o(.text)
    GPIO_DeInit                              0x08005fcd   Thumb Code   172  stm32f10x_gpio.o(.text)
    GPIO_AFIODeInit                          0x08006079   Thumb Code    20  stm32f10x_gpio.o(.text)
    GPIO_Init                                0x0800608d   Thumb Code   278  stm32f10x_gpio.o(.text)
    GPIO_StructInit                          0x080061a3   Thumb Code    16  stm32f10x_gpio.o(.text)
    GPIO_ReadInputDataBit                    0x080061b3   Thumb Code    18  stm32f10x_gpio.o(.text)
    GPIO_ReadInputData                       0x080061c5   Thumb Code     8  stm32f10x_gpio.o(.text)
    GPIO_ReadOutputDataBit                   0x080061cd   Thumb Code    18  stm32f10x_gpio.o(.text)
    GPIO_ReadOutputData                      0x080061df   Thumb Code     8  stm32f10x_gpio.o(.text)
    GPIO_SetBits                             0x080061e7   Thumb Code     4  stm32f10x_gpio.o(.text)
    GPIO_ResetBits                           0x080061eb   Thumb Code     4  stm32f10x_gpio.o(.text)
    GPIO_WriteBit                            0x080061ef   Thumb Code    10  stm32f10x_gpio.o(.text)
    GPIO_Write                               0x080061f9   Thumb Code     4  stm32f10x_gpio.o(.text)
    GPIO_PinLockConfig                       0x080061fd   Thumb Code    18  stm32f10x_gpio.o(.text)
    GPIO_EventOutputConfig                   0x0800620f   Thumb Code    26  stm32f10x_gpio.o(.text)
    GPIO_EventOutputCmd                      0x08006229   Thumb Code     6  stm32f10x_gpio.o(.text)
    GPIO_PinRemapConfig                      0x0800622f   Thumb Code   138  stm32f10x_gpio.o(.text)
    GPIO_EXTILineConfig                      0x080062b9   Thumb Code    66  stm32f10x_gpio.o(.text)
    GPIO_ETH_MediaInterfaceConfig            0x080062fb   Thumb Code     8  stm32f10x_gpio.o(.text)
    RCC_DeInit                               0x08006329   Thumb Code    64  stm32f10x_rcc.o(.text)
    RCC_HSEConfig                            0x08006369   Thumb Code    70  stm32f10x_rcc.o(.text)
    RCC_GetFlagStatus                        0x080063af   Thumb Code    56  stm32f10x_rcc.o(.text)
    RCC_WaitForHSEStartUp                    0x080063e7   Thumb Code    56  stm32f10x_rcc.o(.text)
    RCC_AdjustHSICalibrationValue            0x0800641f   Thumb Code    20  stm32f10x_rcc.o(.text)
    RCC_HSICmd                               0x08006433   Thumb Code     6  stm32f10x_rcc.o(.text)
    RCC_PLLConfig                            0x08006439   Thumb Code    24  stm32f10x_rcc.o(.text)
    RCC_PLLCmd                               0x08006451   Thumb Code     6  stm32f10x_rcc.o(.text)
    RCC_SYSCLKConfig                         0x08006457   Thumb Code    18  stm32f10x_rcc.o(.text)
    RCC_GetSYSCLKSource                      0x08006469   Thumb Code    10  stm32f10x_rcc.o(.text)
    RCC_HCLKConfig                           0x08006473   Thumb Code    18  stm32f10x_rcc.o(.text)
    RCC_PCLK1Config                          0x08006485   Thumb Code    18  stm32f10x_rcc.o(.text)
    RCC_PCLK2Config                          0x08006497   Thumb Code    20  stm32f10x_rcc.o(.text)
    RCC_ITConfig                             0x080064ab   Thumb Code    26  stm32f10x_rcc.o(.text)
    RCC_USBCLKConfig                         0x080064c5   Thumb Code     8  stm32f10x_rcc.o(.text)
    RCC_ADCCLKConfig                         0x080064cd   Thumb Code    18  stm32f10x_rcc.o(.text)
    RCC_LSEConfig                            0x080064df   Thumb Code    50  stm32f10x_rcc.o(.text)
    RCC_LSICmd                               0x08006511   Thumb Code     6  stm32f10x_rcc.o(.text)
    RCC_RTCCLKConfig                         0x08006517   Thumb Code    12  stm32f10x_rcc.o(.text)
    RCC_RTCCLKCmd                            0x08006523   Thumb Code     8  stm32f10x_rcc.o(.text)
    RCC_GetClocksFreq                        0x0800652b   Thumb Code   192  stm32f10x_rcc.o(.text)
    RCC_AHBPeriphClockCmd                    0x080065eb   Thumb Code    26  stm32f10x_rcc.o(.text)
    RCC_APB2PeriphClockCmd                   0x08006605   Thumb Code    26  stm32f10x_rcc.o(.text)
    RCC_APB1PeriphClockCmd                   0x0800661f   Thumb Code    26  stm32f10x_rcc.o(.text)
    RCC_APB2PeriphResetCmd                   0x08006639   Thumb Code    26  stm32f10x_rcc.o(.text)
    RCC_APB1PeriphResetCmd                   0x08006653   Thumb Code    26  stm32f10x_rcc.o(.text)
    RCC_BackupResetCmd                       0x0800666d   Thumb Code     8  stm32f10x_rcc.o(.text)
    RCC_ClockSecuritySystemCmd               0x08006675   Thumb Code     6  stm32f10x_rcc.o(.text)
    RCC_MCOConfig                            0x0800667b   Thumb Code     6  stm32f10x_rcc.o(.text)
    RCC_ClearFlag                            0x08006681   Thumb Code    14  stm32f10x_rcc.o(.text)
    RCC_GetITStatus                          0x0800668f   Thumb Code    20  stm32f10x_rcc.o(.text)
    RCC_ClearITPendingBit                    0x080066a3   Thumb Code     6  stm32f10x_rcc.o(.text)
    USART_DeInit                             0x080066cd   Thumb Code   134  stm32f10x_usart.o(.text)
    USART_Init                               0x08006753   Thumb Code   210  stm32f10x_usart.o(.text)
    USART_StructInit                         0x08006825   Thumb Code    24  stm32f10x_usart.o(.text)
    USART_ClockInit                          0x0800683d   Thumb Code    34  stm32f10x_usart.o(.text)
    USART_ClockStructInit                    0x0800685f   Thumb Code    12  stm32f10x_usart.o(.text)
    USART_Cmd                                0x0800686b   Thumb Code    24  stm32f10x_usart.o(.text)
    USART_ITConfig                           0x08006883   Thumb Code    74  stm32f10x_usart.o(.text)
    USART_DMACmd                             0x080068cd   Thumb Code    18  stm32f10x_usart.o(.text)
    USART_SetAddress                         0x080068df   Thumb Code    18  stm32f10x_usart.o(.text)
    USART_WakeUpConfig                       0x080068f1   Thumb Code    18  stm32f10x_usart.o(.text)
    USART_ReceiverWakeUpCmd                  0x08006903   Thumb Code    24  stm32f10x_usart.o(.text)
    USART_LINBreakDetectLengthConfig         0x0800691b   Thumb Code    18  stm32f10x_usart.o(.text)
    USART_LINCmd                             0x0800692d   Thumb Code    24  stm32f10x_usart.o(.text)
    USART_SendData                           0x08006945   Thumb Code     8  stm32f10x_usart.o(.text)
    USART_ReceiveData                        0x0800694d   Thumb Code    10  stm32f10x_usart.o(.text)
    USART_SendBreak                          0x08006957   Thumb Code    10  stm32f10x_usart.o(.text)
    USART_SetGuardTime                       0x08006961   Thumb Code    16  stm32f10x_usart.o(.text)
    USART_SetPrescaler                       0x08006971   Thumb Code    16  stm32f10x_usart.o(.text)
    USART_SmartCardCmd                       0x08006981   Thumb Code    24  stm32f10x_usart.o(.text)
    USART_SmartCardNACKCmd                   0x08006999   Thumb Code    24  stm32f10x_usart.o(.text)
    USART_HalfDuplexCmd                      0x080069b1   Thumb Code    24  stm32f10x_usart.o(.text)
    USART_OverSampling8Cmd                   0x080069c9   Thumb Code    22  stm32f10x_usart.o(.text)
    USART_OneBitMethodCmd                    0x080069df   Thumb Code    24  stm32f10x_usart.o(.text)
    USART_IrDAConfig                         0x080069f7   Thumb Code    18  stm32f10x_usart.o(.text)
    USART_IrDACmd                            0x08006a09   Thumb Code    24  stm32f10x_usart.o(.text)
    USART_GetFlagStatus                      0x08006a21   Thumb Code    26  stm32f10x_usart.o(.text)
    USART_ClearFlag                          0x08006a3b   Thumb Code    18  stm32f10x_usart.o(.text)
    USART_GetITStatus                        0x08006a4d   Thumb Code    84  stm32f10x_usart.o(.text)
    USART_ClearITPendingBit                  0x08006aa1   Thumb Code    52  stm32f10x_usart.o(.text)
    TIM_DeInit                               0x08006ad5   Thumb Code   424  stm32f10x_tim.o(.text)
    TIM_TimeBaseInit                         0x08006c7d   Thumb Code   122  stm32f10x_tim.o(.text)
    TIM_OC1Init                              0x08006cf7   Thumb Code   132  stm32f10x_tim.o(.text)
    TIM_OC2Init                              0x08006d7b   Thumb Code   154  stm32f10x_tim.o(.text)
    TIM_OC3Init                              0x08006e15   Thumb Code   150  stm32f10x_tim.o(.text)
    TIM_OC4Init                              0x08006eab   Thumb Code   182  stm32f10x_tim.o(.text)
    TIM_SetIC4Prescaler                      0x08006f61   Thumb Code    26  stm32f10x_tim.o(.text)
    TIM_SetIC3Prescaler                      0x08006ffd   Thumb Code    18  stm32f10x_tim.o(.text)
    TIM_SetIC2Prescaler                      0x08007089   Thumb Code    26  stm32f10x_tim.o(.text)
    TIM_SetIC1Prescaler                      0x08007125   Thumb Code    18  stm32f10x_tim.o(.text)
    TIM_ICInit                               0x080071a3   Thumb Code   150  stm32f10x_tim.o(.text)
    TIM_PWMIConfig                           0x08007239   Thumb Code   124  stm32f10x_tim.o(.text)
    TIM_BDTRConfig                           0x080072b5   Thumb Code    32  stm32f10x_tim.o(.text)
    TIM_TimeBaseStructInit                   0x080072d5   Thumb Code    18  stm32f10x_tim.o(.text)
    TIM_OCStructInit                         0x080072e7   Thumb Code    20  stm32f10x_tim.o(.text)
    TIM_ICStructInit                         0x080072fb   Thumb Code    18  stm32f10x_tim.o(.text)
    TIM_BDTRStructInit                       0x0800730d   Thumb Code    40  stm32f10x_tim.o(.text)
    TIM_Cmd                                  0x08007335   Thumb Code    24  stm32f10x_tim.o(.text)
    TIM_CtrlPWMOutputs                       0x0800734d   Thumb Code    30  stm32f10x_tim.o(.text)
    TIM_ITConfig                             0x0800736b   Thumb Code    18  stm32f10x_tim.o(.text)
    TIM_GenerateEvent                        0x0800737d   Thumb Code     4  stm32f10x_tim.o(.text)
    TIM_DMAConfig                            0x08007381   Thumb Code    10  stm32f10x_tim.o(.text)
    TIM_DMACmd                               0x0800738b   Thumb Code    18  stm32f10x_tim.o(.text)
    TIM_InternalClockConfig                  0x0800739d   Thumb Code    12  stm32f10x_tim.o(.text)
    TIM_SelectInputTrigger                   0x080073a9   Thumb Code    18  stm32f10x_tim.o(.text)
    TIM_ITRxExternalClockConfig              0x080073bb   Thumb Code    24  stm32f10x_tim.o(.text)
    TIM_TIxExternalClockConfig               0x080073d3   Thumb Code    62  stm32f10x_tim.o(.text)
    TIM_ETRConfig                            0x08007411   Thumb Code    28  stm32f10x_tim.o(.text)
    TIM_ETRClockMode1Config                  0x0800742d   Thumb Code    54  stm32f10x_tim.o(.text)
    TIM_ETRClockMode2Config                  0x08007463   Thumb Code    32  stm32f10x_tim.o(.text)
    TIM_PrescalerConfig                      0x08007483   Thumb Code     6  stm32f10x_tim.o(.text)
    TIM_CounterModeConfig                    0x08007489   Thumb Code    18  stm32f10x_tim.o(.text)
    TIM_EncoderInterfaceConfig               0x0800749b   Thumb Code    66  stm32f10x_tim.o(.text)
    TIM_ForcedOC1Config                      0x080074dd   Thumb Code    18  stm32f10x_tim.o(.text)
    TIM_ForcedOC2Config                      0x080074ef   Thumb Code    26  stm32f10x_tim.o(.text)
    TIM_ForcedOC3Config                      0x08007509   Thumb Code    18  stm32f10x_tim.o(.text)
    TIM_ForcedOC4Config                      0x0800751b   Thumb Code    26  stm32f10x_tim.o(.text)
    TIM_ARRPreloadConfig                     0x08007535   Thumb Code    24  stm32f10x_tim.o(.text)
    TIM_SelectCOM                            0x0800754d   Thumb Code    24  stm32f10x_tim.o(.text)
    TIM_SelectCCDMA                          0x08007565   Thumb Code    24  stm32f10x_tim.o(.text)
    TIM_CCPreloadControl                     0x0800757d   Thumb Code    24  stm32f10x_tim.o(.text)
    TIM_OC1PreloadConfig                     0x08007595   Thumb Code    18  stm32f10x_tim.o(.text)
    TIM_OC2PreloadConfig                     0x080075a7   Thumb Code    26  stm32f10x_tim.o(.text)
    TIM_OC3PreloadConfig                     0x080075c1   Thumb Code    18  stm32f10x_tim.o(.text)
    TIM_OC4PreloadConfig                     0x080075d3   Thumb Code    26  stm32f10x_tim.o(.text)
    TIM_OC1FastConfig                        0x080075ed   Thumb Code    18  stm32f10x_tim.o(.text)
    TIM_OC2FastConfig                        0x080075ff   Thumb Code    26  stm32f10x_tim.o(.text)
    TIM_OC3FastConfig                        0x08007619   Thumb Code    18  stm32f10x_tim.o(.text)
    TIM_OC4FastConfig                        0x0800762b   Thumb Code    26  stm32f10x_tim.o(.text)
    TIM_ClearOC1Ref                          0x08007645   Thumb Code    18  stm32f10x_tim.o(.text)
    TIM_ClearOC2Ref                          0x08007657   Thumb Code    24  stm32f10x_tim.o(.text)
    TIM_ClearOC3Ref                          0x0800766f   Thumb Code    18  stm32f10x_tim.o(.text)
    TIM_ClearOC4Ref                          0x08007681   Thumb Code    24  stm32f10x_tim.o(.text)
    TIM_OC1PolarityConfig                    0x08007699   Thumb Code    18  stm32f10x_tim.o(.text)
    TIM_OC1NPolarityConfig                   0x080076ab   Thumb Code    18  stm32f10x_tim.o(.text)
    TIM_OC2PolarityConfig                    0x080076bd   Thumb Code    26  stm32f10x_tim.o(.text)
    TIM_OC2NPolarityConfig                   0x080076d7   Thumb Code    26  stm32f10x_tim.o(.text)
    TIM_OC3PolarityConfig                    0x080076f1   Thumb Code    26  stm32f10x_tim.o(.text)
    TIM_OC3NPolarityConfig                   0x0800770b   Thumb Code    26  stm32f10x_tim.o(.text)
    TIM_OC4PolarityConfig                    0x08007725   Thumb Code    26  stm32f10x_tim.o(.text)
    TIM_CCxCmd                               0x0800773f   Thumb Code    30  stm32f10x_tim.o(.text)
    TIM_CCxNCmd                              0x0800775d   Thumb Code    30  stm32f10x_tim.o(.text)
    TIM_SelectOCxM                           0x0800777b   Thumb Code    82  stm32f10x_tim.o(.text)
    TIM_UpdateDisableConfig                  0x080077cd   Thumb Code    24  stm32f10x_tim.o(.text)
    TIM_UpdateRequestConfig                  0x080077e5   Thumb Code    24  stm32f10x_tim.o(.text)
    TIM_SelectHallSensor                     0x080077fd   Thumb Code    24  stm32f10x_tim.o(.text)
    TIM_SelectOnePulseMode                   0x08007815   Thumb Code    18  stm32f10x_tim.o(.text)
    TIM_SelectOutputTrigger                  0x08007827   Thumb Code    18  stm32f10x_tim.o(.text)
    TIM_SelectSlaveMode                      0x08007839   Thumb Code    18  stm32f10x_tim.o(.text)
    TIM_SelectMasterSlaveMode                0x0800784b   Thumb Code    18  stm32f10x_tim.o(.text)
    TIM_SetCounter                           0x0800785d   Thumb Code     4  stm32f10x_tim.o(.text)
    TIM_SetAutoreload                        0x08007861   Thumb Code     4  stm32f10x_tim.o(.text)
    TIM_SetCompare1                          0x08007865   Thumb Code     4  stm32f10x_tim.o(.text)
    TIM_SetCompare2                          0x08007869   Thumb Code     4  stm32f10x_tim.o(.text)
    TIM_SetCompare3                          0x0800786d   Thumb Code     4  stm32f10x_tim.o(.text)
    TIM_SetCompare4                          0x08007871   Thumb Code     6  stm32f10x_tim.o(.text)
    TIM_SetClockDivision                     0x08007877   Thumb Code    18  stm32f10x_tim.o(.text)
    TIM_GetCapture1                          0x08007889   Thumb Code     6  stm32f10x_tim.o(.text)
    TIM_GetCapture2                          0x0800788f   Thumb Code     6  stm32f10x_tim.o(.text)
    TIM_GetCapture3                          0x08007895   Thumb Code     6  stm32f10x_tim.o(.text)
    TIM_GetCapture4                          0x0800789b   Thumb Code     8  stm32f10x_tim.o(.text)
    TIM_GetCounter                           0x080078a3   Thumb Code     6  stm32f10x_tim.o(.text)
    TIM_GetPrescaler                         0x080078a9   Thumb Code     6  stm32f10x_tim.o(.text)
    TIM_GetFlagStatus                        0x080078af   Thumb Code    18  stm32f10x_tim.o(.text)
    TIM_ClearFlag                            0x080078c1   Thumb Code     6  stm32f10x_tim.o(.text)
    TIM_GetITStatus                          0x080078c7   Thumb Code    34  stm32f10x_tim.o(.text)
    TIM_ClearITPendingBit                    0x080078e9   Thumb Code     6  stm32f10x_tim.o(.text)
    EXTI_DeInit                              0x080078f1   Thumb Code    28  stm32f10x_exti.o(.text)
    EXTI_Init                                0x0800790d   Thumb Code   142  stm32f10x_exti.o(.text)
    EXTI_StructInit                          0x0800799b   Thumb Code    16  stm32f10x_exti.o(.text)
    EXTI_GenerateSWInterrupt                 0x080079ab   Thumb Code    16  stm32f10x_exti.o(.text)
    EXTI_GetFlagStatus                       0x080079bb   Thumb Code    22  stm32f10x_exti.o(.text)
    EXTI_ClearFlag                           0x080079d1   Thumb Code     8  stm32f10x_exti.o(.text)
    EXTI_GetITStatus                         0x080079d9   Thumb Code    34  stm32f10x_exti.o(.text)
    EXTI_ClearITPendingBit                   0x080079fb   Thumb Code     8  stm32f10x_exti.o(.text)
    __use_no_semihosting                     0x08007a0d   Thumb Code     2  use_no_semi_2.o(.text)
    srand                                    0x08007a11   Thumb Code    42  rand.o(.text)
    _rand_init                               0x08007a3b   Thumb Code     4  rand.o(.text)
    __aeabi_memcpy4                          0x08007a4d   Thumb Code     0  rt_memcpy_w.o(.text)
    __aeabi_memcpy8                          0x08007a4d   Thumb Code     0  rt_memcpy_w.o(.text)
    __rt_memcpy_w                            0x08007a4d   Thumb Code   100  rt_memcpy_w.o(.text)
    _memcpy_lastbytes_aligned                0x08007a95   Thumb Code     0  rt_memcpy_w.o(.text)
    __use_two_region_memory                  0x08007ab1   Thumb Code     2  heapauxi.o(.text)
    __rt_heap_escrow$2region                 0x08007ab3   Thumb Code     2  heapauxi.o(.text)
    __rt_heap_expand$2region                 0x08007ab5   Thumb Code     2  heapauxi.o(.text)
    __I$use$semihosting                      0x08007ab7   Thumb Code     0  use_no_semi.o(.text)
    __use_no_semihosting_swi                 0x08007ab7   Thumb Code     2  use_no_semi.o(.text)
    __user_setup_stackheap                   0x08007ab9   Thumb Code    74  sys_stackheap_outer.o(.text)
    exit                                     0x08007b03   Thumb Code    12  exit.o(.text)
    __user_libspace                          0x08007b11   Thumb Code     8  libspace.o(.text)
    __user_perproc_libspace                  0x08007b11   Thumb Code     0  libspace.o(.text)
    __user_perthread_libspace                0x08007b11   Thumb Code     0  libspace.o(.text)
    __aeabi_f2uiz                            0x08007b19   Thumb Code     0  ffixu.o(x$fpl$ffixu)
    _ffixu                                   0x08007b19   Thumb Code    62  ffixu.o(x$fpl$ffixu)
    __aeabi_fmul                             0x08007b59   Thumb Code     0  fmul.o(x$fpl$fmul)
    _fmul                                    0x08007b59   Thumb Code   258  fmul.o(x$fpl$fmul)
    __fpl_fnaninf                            0x08007c5b   Thumb Code   140  fnaninf.o(x$fpl$fnaninf)
    __fpl_fretinf                            0x08007ce7   Thumb Code    10  fretinf.o(x$fpl$fretinf)
    __I$use$fp                               0x08007cf0   Number         0  usenofp.o(x$fpl$usenofp)
    asc2_1206                                0x08007cf0   Data        1092  lcd.o(.constdata)
    asc2_1608                                0x08008134   Data        1520  lcd.o(.constdata)
    gImage_brick                             0x08008724   Data         200  catbox.o(.constdata)
    gImage_box                               0x080087ec   Data         200  catbox.o(.constdata)
    gImage_cat                               0x080088b4   Data         200  catbox.o(.constdata)
    gImage_station                           0x0800897c   Data         200  catbox.o(.constdata)
    gImage_boxdone                           0x08008a44   Data         200  catbox.o(.constdata)
    mask_cat                                 0x08008b0c   Data          20  catbox.o(.constdata)
    SnakeColor                               0x08008b20   Data          46  snake.o(.constdata)
    gImage_X                                 0x08008b4e   Data        9600  x2048.o(.constdata)
    mask_X                                   0x0800b0ce   Data          60  x2048.o(.constdata)
    Region$$Table$$Base                      0x0800b10c   Number         0  anon$$obj.o(Region$$Table)
    Region$$Table$$Limit                     0x0800b12c   Number         0  anon$$obj.o(Region$$Table)
    Brightness                               0x20000000   Data           1  main.o(.data)
    Command                                  0x20000001   Data           1  main.o(.data)
    Choice                                   0x20000002   Data           1  main.o(.data)
    SystemCoreClock                          0x2000001c   Data           4  system_stm32f10x.o(.data)
    AHBPrescTable                            0x20000020   Data          16  system_stm32f10x.o(.data)
    Hzk32                                    0x20000030   Data         256  lcd.o(.data)
    Hzk16                                    0x20000130   Data        1536  lcd.o(.data)
    BACK_COLOR                               0x20000730   Data           2  lcd.o(.data)
    KeyState                                 0x20000732   Data           1  key.o(.data)
    channel                                  0x2000073a   Data           1  timer.o(.data)
    memref                                   0x2000073c   Data           2  timer.o(.data)
    ARR1                                     0x2000073e   Data           2  timer.o(.data)
    ARR2                                     0x20000740   Data           2  timer.o(.data)
    Cat_X                                    0x20000742   Data           1  catbox.o(.data)
    Cat_Y                                    0x20000743   Data           1  catbox.o(.data)
    Cat_Steps                                0x20000744   Data           1  catbox.o(.data)
    RSscore                                  0x20000746   Data           2  rscube.o(.data)
    RSDrop                                   0x20000748   Data           8  rscube.o(.data)
    RSDropNext                               0x20000750   Data           8  rscube.o(.data)
    RSCubeColor                              0x20000758   Data          16  rscube.o(.data)
    NumberToAccelerate                       0x20000768   Data          10  snake.o(.data)
    direction                                0x20000772   Data           1  snake.o(.data)
    foodX                                    0x20000773   Data           1  snake.o(.data)
    foodY                                    0x20000774   Data           1  snake.o(.data)
    headX                                    0x20000775   Data           1  snake.o(.data)
    headY                                    0x20000776   Data           1  snake.o(.data)
    tailX                                    0x20000777   Data           1  snake.o(.data)
    tailY                                    0x20000778   Data           1  snake.o(.data)
    SquireNumber                             0x2000077a   Data           2  snake.o(.data)
    speed                                    0x2000077c   Data           1  snake.o(.data)
    color                                    0x2000077e   Data           2  snake.o(.data)
    automove                                 0x20000780   Data           1  snake.o(.data)
    CapsLk                                   0x20000782   Data           1  usart3.o(.data)
    USART3_RX_STA                            0x20000783   Data           1  usart3.o(.data)
    USART3_RX_NUM                            0x20000784   Data           1  usart3.o(.data)
    USART3_TX_NUM                            0x20000785   Data           1  usart3.o(.data)
    __stdout                                 0x2000078c   Data           4  usart.o(.data)
    USART_RX_STA                             0x20000790   Data           1  usart.o(.data)
    USART_RX_NUM                             0x20000791   Data           1  usart.o(.data)
    CatMap                                   0x200007a8   Data         104  catbox.o(.bss)
    CatMapCopy                               0x20000810   Data          16  catbox.o(.bss)
    RSMap                                    0x20000820   Data         200  rscube.o(.bss)
    RSMapCopy                                0x200008e8   Data         200  rscube.o(.bss)
    RScube                                   0x200009b0   Data          20  rscube.o(.bss)
    RScubeNext                               0x200009c4   Data          20  rscube.o(.bss)
    Map                                      0x200009d8   Data         400  snake.o(.bss)
    MapCopy                                  0x20000b68   Data         400  snake.o(.bss)
    X2048Map                                 0x20000cf8   Data          16  x2048.o(.bss)
    USART3_RX_BUF                            0x20000d08   Data          20  usart3.o(.bss)
    USART3_TX_BUF                            0x20000d1c   Data          20  usart3.o(.bss)
    USART_RX_BUF                             0x20000d30   Data          20  usart.o(.bss)
    _random_number_data                      0x20000d44   Data         228  rand.o(.bss)
    __libspace_start                         0x20000e28   Data          96  libspace.o(.bss)
    __temporary_stack_top$libspace           0x20000e88   Data           0  libspace.o(.bss)



==============================================================================

Memory Map of the image

  Image Entry point : 0x08000131

  Load Region LR_IROM1 (Base: 0x08000000, Size: 0x0000b8d4, Max: 0x00010000, ABSOLUTE, COMPRESSED[0x0000b758])

    Execution Region ER_IROM1 (Exec base: 0x08000000, Load base: 0x08000000, Size: 0x0000b12c, Max: 0x00010000, ABSOLUTE)

    Exec Addr    Load Addr    Size         Type   Attr      Idx    E Section Name        Object

    0x08000000   0x08000000   0x00000130   Data   RO          419    RESET               startup_stm32f10x_hd.o
    0x08000130   0x08000130   0x00000008   Code   RO          511  * !!!main             c_w.l(__main.o)
    0x08000138   0x08000138   0x00000034   Code   RO          678    !!!scatter          c_w.l(__scatter.o)
    0x0800016c   0x0800016c   0x0000005a   Code   RO          676    !!dczerorl2         c_w.l(__dczerorl2.o)
    0x080001c6   0x080001c6   0x00000002   PAD
    0x080001c8   0x080001c8   0x0000001c   Code   RO          680    !!handler_zi        c_w.l(__scatter_zi.o)
    0x080001e4   0x080001e4   0x00000002   Code   RO          604    .ARM.Collect$$libinit$$00000000  c_w.l(libinit.o)
    0x080001e6   0x080001e6   0x00000000   Code   RO          523    .ARM.Collect$$libinit$$00000002  c_w.l(libinit2.o)
    0x080001e6   0x080001e6   0x00000000   Code   RO          525    .ARM.Collect$$libinit$$00000004  c_w.l(libinit2.o)
    0x080001e6   0x080001e6   0x00000000   Code   RO          528    .ARM.Collect$$libinit$$0000000A  c_w.l(libinit2.o)
    0x080001e6   0x080001e6   0x00000000   Code   RO          530    .ARM.Collect$$libinit$$0000000C  c_w.l(libinit2.o)
    0x080001e6   0x080001e6   0x00000004   Code   RO          531    .ARM.Collect$$libinit$$0000000D  c_w.l(libinit2.o)
    0x080001ea   0x080001ea   0x00000000   Code   RO          532    .ARM.Collect$$libinit$$0000000E  c_w.l(libinit2.o)
    0x080001ea   0x080001ea   0x00000000   Code   RO          535    .ARM.Collect$$libinit$$00000011  c_w.l(libinit2.o)
    0x080001ea   0x080001ea   0x00000000   Code   RO          537    .ARM.Collect$$libinit$$00000013  c_w.l(libinit2.o)
    0x080001ea   0x080001ea   0x00000000   Code   RO          539    .ARM.Collect$$libinit$$00000015  c_w.l(libinit2.o)
    0x080001ea   0x080001ea   0x00000000   Code   RO          541    .ARM.Collect$$libinit$$00000017  c_w.l(libinit2.o)
    0x080001ea   0x080001ea   0x00000000   Code   RO          543    .ARM.Collect$$libinit$$00000019  c_w.l(libinit2.o)
    0x080001ea   0x080001ea   0x00000000   Code   RO          545    .ARM.Collect$$libinit$$0000001B  c_w.l(libinit2.o)
    0x080001ea   0x080001ea   0x00000000   Code   RO          547    .ARM.Collect$$libinit$$0000001D  c_w.l(libinit2.o)
    0x080001ea   0x080001ea   0x00000000   Code   RO          549    .ARM.Collect$$libinit$$0000001F  c_w.l(libinit2.o)
    0x080001ea   0x080001ea   0x00000000   Code   RO          551    .ARM.Collect$$libinit$$00000021  c_w.l(libinit2.o)
    0x080001ea   0x080001ea   0x00000000   Code   RO          553    .ARM.Collect$$libinit$$00000023  c_w.l(libinit2.o)
    0x080001ea   0x080001ea   0x00000000   Code   RO          555    .ARM.Collect$$libinit$$00000025  c_w.l(libinit2.o)
    0x080001ea   0x080001ea   0x00000000   Code   RO          559    .ARM.Collect$$libinit$$0000002C  c_w.l(libinit2.o)
    0x080001ea   0x080001ea   0x00000000   Code   RO          561    .ARM.Collect$$libinit$$0000002E  c_w.l(libinit2.o)
    0x080001ea   0x080001ea   0x00000000   Code   RO          563    .ARM.Collect$$libinit$$00000030  c_w.l(libinit2.o)
    0x080001ea   0x080001ea   0x00000000   Code   RO          565    .ARM.Collect$$libinit$$00000032  c_w.l(libinit2.o)
    0x080001ea   0x080001ea   0x00000002   Code   RO          566    .ARM.Collect$$libinit$$00000033  c_w.l(libinit2.o)
    0x080001ec   0x080001ec   0x00000002   Code   RO          638    .ARM.Collect$$libshutdown$$00000000  c_w.l(libshutdown.o)
    0x080001ee   0x080001ee   0x00000000   Code   RO          645    .ARM.Collect$$libshutdown$$00000003  c_w.l(libshutdown2.o)
    0x080001ee   0x080001ee   0x00000000   Code   RO          648    .ARM.Collect$$libshutdown$$00000006  c_w.l(libshutdown2.o)
    0x080001ee   0x080001ee   0x00000000   Code   RO          651    .ARM.Collect$$libshutdown$$00000009  c_w.l(libshutdown2.o)
    0x080001ee   0x080001ee   0x00000000   Code   RO          653    .ARM.Collect$$libshutdown$$0000000B  c_w.l(libshutdown2.o)
    0x080001ee   0x080001ee   0x00000000   Code   RO          656    .ARM.Collect$$libshutdown$$0000000E  c_w.l(libshutdown2.o)
    0x080001ee   0x080001ee   0x00000002   Code   RO          657    .ARM.Collect$$libshutdown$$0000000F  c_w.l(libshutdown2.o)
    0x080001f0   0x080001f0   0x00000000   Code   RO          521    .ARM.Collect$$rtentry$$00000000  c_w.l(__rtentry.o)
    0x080001f0   0x080001f0   0x00000000   Code   RO          573    .ARM.Collect$$rtentry$$00000002  c_w.l(__rtentry2.o)
    0x080001f0   0x080001f0   0x00000006   Code   RO          585    .ARM.Collect$$rtentry$$00000004  c_w.l(__rtentry4.o)
    0x080001f6   0x080001f6   0x00000000   Code   RO          575    .ARM.Collect$$rtentry$$00000009  c_w.l(__rtentry2.o)
    0x080001f6   0x080001f6   0x00000004   Code   RO          576    .ARM.Collect$$rtentry$$0000000A  c_w.l(__rtentry2.o)
    0x080001fa   0x080001fa   0x00000000   Code   RO          578    .ARM.Collect$$rtentry$$0000000C  c_w.l(__rtentry2.o)
    0x080001fa   0x080001fa   0x00000008   Code   RO          579    .ARM.Collect$$rtentry$$0000000D  c_w.l(__rtentry2.o)
    0x08000202   0x08000202   0x00000002   Code   RO          610    .ARM.Collect$$rtexit$$00000000  c_w.l(rtexit.o)
    0x08000204   0x08000204   0x00000000   Code   RO          620    .ARM.Collect$$rtexit$$00000002  c_w.l(rtexit2.o)
    0x08000204   0x08000204   0x00000004   Code   RO          621    .ARM.Collect$$rtexit$$00000003  c_w.l(rtexit2.o)
    0x08000208   0x08000208   0x00000006   Code   RO          622    .ARM.Collect$$rtexit$$00000004  c_w.l(rtexit2.o)
    0x0800020e   0x0800020e   0x00000002   PAD
    0x08000210   0x08000210   0x00000034   Code   RO          502    .emb_text           c_w.l(rand.o)
    0x08000244   0x08000244   0x00001c98   Code   RO            1    .text               main.o
    0x08001edc   0x08001edc   0x0000001a   Code   RO          110    .text               stm32f10x_it.o
    0x08001ef6   0x08001ef6   0x00000002   PAD
    0x08001ef8   0x08001ef8   0x000001e0   Code   RO          145    .text               system_stm32f10x.o
    0x080020d8   0x080020d8   0x00000034   Code   RO          163    .text               led.o
    0x0800210c   0x0800210c   0x00000dbc   Code   RO          175    .text               lcd.o
    0x08002ec8   0x08002ec8   0x00000110   Code   RO          197    .text               key.o
    0x08002fd8   0x08002fd8   0x000002a4   Code   RO          215    .text               timer.o
    0x0800327c   0x0800327c   0x00000b3c   Code   RO          233    .text               catbox.o
    0x08003db8   0x08003db8   0x00000148   Code   RO          253    .text               exti.o
    0x08003f00   0x08003f00   0x00000aa8   Code   RO          265    .text               rscube.o
    0x080049a8   0x080049a8   0x00000a6c   Code   RO          290    .text               snake.o
    0x08005414   0x08005414   0x00000434   Code   RO          319    .text               x2048.o
    0x08005848   0x08005848   0x00000458   Code   RO          338    .text               usart3.o
    0x08005ca0   0x08005ca0   0x000000d4   Code   RO          357    .text               delay.o
    0x08005d74   0x08005d74   0x0000013c   Code   RO          383    .text               usart.o
    0x08005eb0   0x08005eb0   0x00000040   Code   RO          420    .text               startup_stm32f10x_hd.o
    0x08005ef0   0x08005ef0   0x000000dc   Code   RO          424    .text               misc.o
    0x08005fcc   0x08005fcc   0x0000035c   Code   RO          436    .text               stm32f10x_gpio.o
    0x08006328   0x08006328   0x000003a4   Code   RO          448    .text               stm32f10x_rcc.o
    0x080066cc   0x080066cc   0x00000408   Code   RO          462    .text               stm32f10x_usart.o
    0x08006ad4   0x08006ad4   0x00000e1a   Code   RO          474    .text               stm32f10x_tim.o
    0x080078ee   0x080078ee   0x00000002   PAD
    0x080078f0   0x080078f0   0x0000011c   Code   RO          486    .text               stm32f10x_exti.o
    0x08007a0c   0x08007a0c   0x00000002   Code   RO          500    .text               c_w.l(use_no_semi_2.o)
    0x08007a0e   0x08007a0e   0x00000002   PAD
    0x08007a10   0x08007a10   0x0000003c   Code   RO          503    .text               c_w.l(rand.o)
    0x08007a4c   0x08007a4c   0x00000064   Code   RO          507    .text               c_w.l(rt_memcpy_w.o)
    0x08007ab0   0x08007ab0   0x00000006   Code   RO          509    .text               c_w.l(heapauxi.o)
    0x08007ab6   0x08007ab6   0x00000002   Code   RO          519    .text               c_w.l(use_no_semi.o)
    0x08007ab8   0x08007ab8   0x0000004a   Code   RO          591    .text               c_w.l(sys_stackheap_outer.o)
    0x08007b02   0x08007b02   0x0000000c   Code   RO          593    .text               c_w.l(exit.o)
    0x08007b0e   0x08007b0e   0x00000002   PAD
    0x08007b10   0x08007b10   0x00000008   Code   RO          607    .text               c_w.l(libspace.o)
    0x08007b18   0x08007b18   0x0000003e   Code   RO          513    x$fpl$ffixu         fz_ws.l(ffixu.o)
    0x08007b56   0x08007b56   0x00000002   PAD
    0x08007b58   0x08007b58   0x00000102   Code   RO          517    x$fpl$fmul          fz_ws.l(fmul.o)
    0x08007c5a   0x08007c5a   0x0000008c   Code   RO          567    x$fpl$fnaninf       fz_ws.l(fnaninf.o)
    0x08007ce6   0x08007ce6   0x0000000a   Code   RO          569    x$fpl$fretinf       fz_ws.l(fretinf.o)
    0x08007cf0   0x08007cf0   0x00000000   Code   RO          571    x$fpl$usenofp       fz_ws.l(usenofp.o)
    0x08007cf0   0x08007cf0   0x00000a34   Data   RO          176    .constdata          lcd.o
    0x08008724   0x08008724   0x000003fc   Data   RO          235    .constdata          catbox.o
    0x08008b20   0x08008b20   0x0000002e   Data   RO          292    .constdata          snake.o
    0x08008b4e   0x08008b4e   0x000025bc   Data   RO          321    .constdata          x2048.o
    0x0800b10a   0x0800b10a   0x00000002   PAD
    0x0800b10c   0x0800b10c   0x00000020   Data   RO          674    Region$$Table       anon$$obj.o


    Execution Region RW_IRAM1 (Exec base: 0x20000000, Load base: 0x0800b12c, Size: 0x00001488, Max: 0x00005000, ABSOLUTE, COMPRESSED[0x0000062c])

    Exec Addr    Load Addr    Size         Type   Attr      Idx    E Section Name        Object

    0x20000000   COMPRESSED   0x0000001a   Data   RW            2    .data               main.o
    0x2000001a   COMPRESSED   0x00000002   PAD
    0x2000001c   COMPRESSED   0x00000014   Data   RW          146    .data               system_stm32f10x.o
    0x20000030   COMPRESSED   0x00000702   Data   RW          177    .data               lcd.o
    0x20000732   COMPRESSED   0x00000008   Data   RW          198    .data               key.o
    0x2000073a   COMPRESSED   0x00000008   Data   RW          216    .data               timer.o
    0x20000742   COMPRESSED   0x00000003   Data   RW          236    .data               catbox.o
    0x20000745   COMPRESSED   0x00000001   PAD
    0x20000746   COMPRESSED   0x00000022   Data   RW          267    .data               rscube.o
    0x20000768   COMPRESSED   0x0000001a   Data   RW          293    .data               snake.o
    0x20000782   COMPRESSED   0x00000004   Data   RW          340    .data               usart3.o
    0x20000786   COMPRESSED   0x00000004   Data   RW          358    .data               delay.o
    0x2000078a   COMPRESSED   0x00000002   PAD
    0x2000078c   COMPRESSED   0x00000006   Data   RW          385    .data               usart.o
    0x20000792   COMPRESSED   0x00000014   Data   RW          449    .data               stm32f10x_rcc.o
    0x200007a6   COMPRESSED   0x00000002   PAD
    0x200007a8        -       0x00000078   Zero   RW          234    .bss                catbox.o
    0x20000820        -       0x000001b8   Zero   RW          266    .bss                rscube.o
    0x200009d8        -       0x00000320   Zero   RW          291    .bss                snake.o
    0x20000cf8        -       0x00000010   Zero   RW          320    .bss                x2048.o
    0x20000d08        -       0x00000028   Zero   RW          339    .bss                usart3.o
    0x20000d30        -       0x00000014   Zero   RW          384    .bss                usart.o
    0x20000d44        -       0x000000e4   Zero   RW          504    .bss                c_w.l(rand.o)
    0x20000e28        -       0x00000060   Zero   RW          608    .bss                c_w.l(libspace.o)
    0x20000e88        -       0x00000200   Zero   RW          418    HEAP                startup_stm32f10x_hd.o
    0x20001088        -       0x00000400   Zero   RW          417    STACK               startup_stm32f10x_hd.o


==============================================================================

Image component sizes


      Code (inc. data)   RO Data    RW Data    ZI Data      Debug   Object Name

      2876        106       1020          3        120       5311   catbox.o
         0          0          0          0          0         32   core_cm3.o
       212         18          0          4          0       1063   delay.o
       328          6          0          0          0        951   exti.o
       272         24          0          8          0       1521   key.o
      3516         46       2612       1794          0      11313   lcd.o
        52          4          0          0          0        503   led.o
      7320        314          0         26          0     262182   main.o
       220         22          0          0          0       1849   misc.o
      2728         90          0         34        440       6720   rscube.o
      2668        144         46         26        800       5089   snake.o
        64         26        304          0       1536        812   startup_stm32f10x_hd.o
       284         10          0          0          0       2279   stm32f10x_exti.o
       860         38          0          0          0       5693   stm32f10x_gpio.o
        26          0          0          0          0       1202   stm32f10x_it.o
       932         36          0         20          0       8884   stm32f10x_rcc.o
      3610         88          0          0          0      22176   stm32f10x_tim.o
      1032         22          0          0          0       8416   stm32f10x_usart.o
       480         38          0         20          0       1811   system_stm32f10x.o
       676         24          0          8          0       2663   timer.o
       316         22          0          6         20       3287   usart.o
      1112         64          0          4         40       4016   usart3.o
      1076         22       9660          0         16       3077   x2048.o

    ----------------------------------------------------------------------
     30664       1164      13676       1960       2972     360850   Object Totals
         0          0         32          0          0          0   (incl. Generated)
         4          0          2          7          0          0   (incl. Padding)

    ----------------------------------------------------------------------

      Code (inc. data)   RO Data    RW Data    ZI Data      Debug   Library Member Name

        90          0          0          0          0          0   __dczerorl2.o
         8          0          0          0          0         68   __main.o
         0          0          0          0          0          0   __rtentry.o
        12          0          0          0          0          0   __rtentry2.o
         6          0          0          0          0          0   __rtentry4.o
        52          8          0          0          0          0   __scatter.o
        28          0          0          0          0          0   __scatter_zi.o
        12          0          0          0          0         72   exit.o
         6          0          0          0          0        152   heapauxi.o
         2          0          0          0          0          0   libinit.o
         6          0          0          0          0          0   libinit2.o
         2          0          0          0          0          0   libshutdown.o
         2          0          0          0          0          0   libshutdown2.o
         8          4          0          0         96         68   libspace.o
       112         18          0          0        228        160   rand.o
       100          0          0          0          0         80   rt_memcpy_w.o
         2          0          0          0          0          0   rtexit.o
        10          0          0          0          0          0   rtexit2.o
        74          0          0          0          0         80   sys_stackheap_outer.o
         2          0          0          0          0         68   use_no_semi.o
         2          0          0          0          0         68   use_no_semi_2.o
        62          4          0          0          0         84   ffixu.o
       258          4          0          0          0         84   fmul.o
       140          4          0          0          0         84   fnaninf.o
        10          0          0          0          0         68   fretinf.o
         0          0          0          0          0          0   usenofp.o

    ----------------------------------------------------------------------
      1016         42          0          0        324       1136   Library Totals
        10          0          0          0          0          0   (incl. Padding)

    ----------------------------------------------------------------------

      Code (inc. data)   RO Data    RW Data    ZI Data      Debug   Library Name

       536         30          0          0        324        816   c_w.l
       470         12          0          0          0        320   fz_ws.l

    ----------------------------------------------------------------------
      1016         42          0          0        324       1136   Library Totals

    ----------------------------------------------------------------------

==============================================================================


      Code (inc. data)   RO Data    RW Data    ZI Data      Debug   

     31680       1206      13676       1960       3296     359642   Grand Totals
     31680       1206      13676       1580       3296     359642   ELF Image Totals (compressed)
     31680       1206      13676       1580          0          0   ROM Totals

==============================================================================

    Total RO  Size (Code + RO Data)                45356 (  44.29kB)
    Total RW  Size (RW Data + ZI Data)              5256 (   5.13kB)
    Total ROM Size (Code + RO Data + RW Data)      46936 (  45.84kB)

==============================================================================

